:1080200000000120B9970000E1970000E3970000ED
:10803000E5970000E7970000E997000000000000C6
:10804000000000000000000000000000E1840000CB
:10805000ED9700000000000001850000F19700008E
:108060004D990000F3970000F3970000D1940000B1
:10807000F3970000F39700006D9E0000F397000057
:10808000F3970000F3970000F3970000F3970000C8
:10809000F3970000F3970000F3970000F3970000B8
:1080A000F397000061850000F3970000F39700004C
:1080B000F3970000F3970000F3970000F397000098
:1080C000F3970000F3970000F3970000F397000088
:1080D000F3970000F397000000000000000000008C
:1080E000F3970000F3970000F3970000F397000068
:1080F000F3970000F3970000F397000000000000E2
:10810000000000000000000000000000000000006F
:10811000000000000000000000000000000000005F
:10812000000000000000000000000000000000004F
:10813000000000000000000000000000000000003F
:10814000000000000000000000000000000000002F
:10815000000000000000000000000000000000001F
:10816000000000000000000000000000000000000F
:1081700000000000000000000000000000000000FF
:1081800000000000000000000000000000000000EF
:1081900000000000000000000000000000000000DF
:1081A00000000000000000000000000000000000CF
:1081B00000000000000000000000000000000000BF
:1081C00000000000000000000000000000000000AF
:1081D000000000000000000000000000000000009F
:1081E000000000000000000000000000000000008F
:1081F000000000000000000000000000000000007F
:10820000000000000000000000000000000000006E
:10821000000000000000000000000000000000005E
:108220000348044B834202D0034B03B11847704705
:108230001800002018000020000000000548064B30
:108240001B1AD90F01EBA301491002D0034B03B154
:108250001847704718000020180000200000000098
:1082600010B5064C237843B9FFF7DAFF044B13B17E
:108270000448AFF300800123237010BD18000020D4
:10828000000000001867030008B5054B1BB1054945
:108290000548AFF30080BDE80840FFF7CFBF00BF3F
:1082A000000000001C00002018670300A3F5803ABE
:1082B000704700BF174B002B08BF134B9D46FFF7BD
:1082C000F5FF00218B460F461348144A121A03F09B
:1082D000BBF90E4B002B00D098470D4B002B00D064
:1082E00098470020002104000D000D48002802D00E
:1082F0000C48AFF3008003F0AFF92000290001F033
:1083000005FA03F08FF900BF00000800000000002C
:108310000000000000000120180000206804002078
:10832000000000000000000010B5104B1A461B684A
:108330008342FBD354681119884201BF416810463B
:1083400009195160446801198B420DD10849096827
:108350008B4204D05B682344436013681968016052
:10836000904218BF106010BD1946F8E74800002081
:10837000440000202DE9F041044602F09FFA3549FF
:10838000354D0B68F3B9354B354A3648D21A026081
:10839000580718BF0733344A18BF23F007030020DB
:1083A00013605060314A22F00702C2E90000D01A7F
:1083B000C3E900202E4B0A6018602E4B18604FF066
:1083C00000432B602F68274207D002F003FB01F027
:1083D0008DF900263046BDE8F081002CF5D004F17F
:1083E000080362071CBF23F007030833002BECD0FF
:1083F000DFF88080D8F800509D42E6D31A4A14680E
:108400006068984201D2206800BB0968A142DCD0B4
:108410002168166811606268D21A102A06F10806EF
:1084200004D9E01842606360FFF77EFF104962687C
:108430000868AD1A17430023854267602360C8F8B7
:10844000005038BF0D6002F0C5FAC3E7224604466B
:10845000D6E700BF44000020380000206804002058
:1084600000FC00203400002048000020F8FB002021
:108470003C0000204000002010B50446E0B10F4A47
:1084800050F8043C1268134216D050F8081C99B9F1
:1084900023EA020340F8043C02F010FA084A54F8B8
:1084A000043C1168A4F108000B441360FFF73CFF83
:1084B000BDE8104002F08EBA10BD00BF38000020A9
:1084C000400000200548006880F3088862B661B665
:1084D000BFF34F8FBFF36F8F00DF00BF208000001E
:1084E000064B19680868B0E8F04F80F30988BFF3BD
:1084F0006F8F4FF0000080F3118870471404002044
:10850000EFF30980BFF36F8F144B1A681EF0100F42
:1085100008BF20ED108A20E9F04F10604DF8043DAF
:108520004FF0400080F31188BFF34F8FBFF36F8F80
:1085300002F016FB4FF0000080F3118808BC1968A8
:108540000868B0E8F04F1EF0100F08BFB0EC108ABA
:1085500080F30988BFF36F8F704700BF14040020B9
:10856000F7B51B4D0027C5F84071D5F84031019390
:10857000019B00F0F9F8D5F80445C5F80071D5F86D
:1085800000310093009B064602F0A0F9241A24F063
:108590007F4323F0010383B924F07F440025013C8D
:1085A00011D225B10B4B4FF080525A6040BF30467C
:1085B00003B0BDE8F04000F0DBB802F0BDFB0228DC
:1085C000EAD00124EAE702F08FF90543E7E700BFAC
:1085D0000010014000ED00E008B5002001F042F974
:1085E000094B1F22C3F808250122C3F804239A600F
:1085F0001A600222C3F84423044BE02283F81123BB
:108600004FF400321A6008BD0010014000E100E0A4
:108610007FB5054672B62C4CD4F8046502F072FBA7
:1086200000284DD0294A954294BF7319B31823F0FE
:108630007F430122C4F80823C4F840350023C4F85E
:108640004031D4F840310193019B4FF48033C4F89A
:108650000433BFF34F8F95B1F1EE103A23F09F032F
:10866000E1EE103AF1EE103A194B4022C3F88421A2
:1086700020BFD3F80021D3F804110A43F8D04FF4F7
:108680008033C4F808330023C4F84031D4F84021C3
:108690000392039AC4F80031D4F800310293029B8C
:1086A0000123C4F80433D4F80405094B801B4FF4AC
:1086B000003230F07F40C3F8802101D002F00CF985
:1086C00062B604B070BD00BF00100140FDFFFF00A6
:1086D00000E100E072B6FEE74FF0807340E902135C
:1086E000054B40F80C3C6FF0020340F8202C40F89A
:1086F000243C4438704700BFD58600000E4C08B5B6
:10870000E02384F82230FFF767FF0C4B00221A6049
:10871000D4F888300A4A43F47003C4F88830536BA5
:1087200043F040435363236943F010032361FFF791
:10873000C9FE72B6FEE700BF00ED00E05000002069
:1087400000EF00E072B6024A13680133136070470D
:1087500050000020034A1368013B136003B962B65E
:10876000704700BF50000020EFF3108072B67047D2
:1087700080F310887047002201600271427182719B
:10878000704710B586B09F238DF80F3003230093F8
:10879000002404AB01220DF10F010068ADF8104078
:1087A0008DF8124000F02FFB049B2046DAB262F3F2
:1087B0000700C3F3072262F30F20C3F3074363F3F9
:1087C000174006B010BD10B50446FFF7DAFFC0F33E
:1087D00007232071C0F307406371A07110BD000032
:1087E0001FB50D4B039300238DF80B30012300932D
:1087F00004460DF10B03042203A9006800F003FBFB
:108800002046FFF7BEFFC0F307232071C0F30740E7
:108810006371A07104B010BDAB0102031FB501224A
:10882000009205238DF80E300DF10E010DF10F03AE
:10883000006800F0E8FA9DF80F0005B05DF804FB51
:1088400008B5FFF7EBFF00F0010008BD08B5FFF722
:10885000E5FFC0F3400008BD1FB506238DF80F30BB
:108860000023009301220DF10F01006800F0CBFA04
:1088700005B05DF804FB1FB520238DF80C300B0C00
:1088800049BA04468DF80D30ADF80E10FFF7E4FF3D
:108890002046FFF7DBFF60B100230093206804222D
:1088A00003A900F0B0FA2046FFF7CAFF28B904B0C8
:1088B00010BD012002F0FAF8EAE7012002F0F6F814
:1088C000F1E72DE9F043074685B00D4690461E4678
:1088D0004FF0020916B905B0BDE8F08325F0FF049A
:1088E000641B04F580742B0CB4428DF80D303846AF
:1088F0006BBA28BF34468DF80C90ADF80E30FFF7F8
:10890000ABFF3846FFF7A2FF70B1009438684346CA
:10891000042203A900F083FA3846FFF791FF38B923
:108920002544A044361BD5E7012002F0BFF8E8E754
:10893000012002F0BBF8EFE7417111689288428193
:108940000022C260C0F806100261426102767047E0
:1089500010B54169044621B90322012001F002FC4F
:108960006061617A4FF0A043012202FA01F1C3F87D
:108970000815617A01F5E071032043F82100A17A1E
:108980008A40C3F80C25A27A02F5E072002143F870
:108990002200E27A02F5E07243F8221063791BB1FB
:1089A000012B22D0002010BD2A4B627A2360C3F82D
:1089B00008252368A27AC3F80C252368E27AC3F855
:1089C0001025237A002BEDD123684FF00042C3F825
:1089D0002425A3790BB1012BE4D1E1791A460329AF
:1089E000E0D8DFE801F0070531344FF04023DCE741
:1089F00043F002022368C3F8542522680023C2F81A
:108A000010312268C2F820312268C2F81831226879
:108A10004021C2F8041322680220C2F8040322682D
:108A20004FF40020C2F8040322680720C2F80005B2
:108A3000094A82F803130821116060691A46194631
:108A400001F0AAFB0120AEE743F00402D2E743F0B5
:108A50000602CFE70030004000E100E037B50368D0
:108A6000D3F808551B4B1A88ADF80420027E9B787A
:108A70008DF806300446BAB901A9284601F0D2F8AB
:108A800008B102F0C9FB0021284601F041F928464F
:108A900001F0D8F923685A690F4BC3F81005C3F8E1
:108AA00014250122C3F8042523680022C3F81821E5
:108AB00023684022C3F8082323680222C3F808234E
:108AC00023684FF40022C3F808230123237603B060
:108AD00030BD00BFD8B6000000F0014010B504461C
:108AE0000368D3F80805237E2BB101F075F90B4B11
:108AF0000122C3F8082522680023C2F81831226831
:108B00004021C2F8041322680221C2F8041322682B
:108B10004FF40021C2F80413237610BD00F0014089
:108B200070470368C3F844150368C3F84825026812
:108B30000023C2F850350268C2F834350268C2F822
:108B400038350268C2F840350268C2F818317047FB
:108B500037B5C3688BB105698DB1FF2D28BFFF25DF
:108B60002A46C168FFF7DDFFC3682B44C360036971
:108B70005B1B0361036801221A6103B030BD0179F8
:108B800001238B404FF0A041C1F80835C56001A911
:108B90004069019501F0B1FB019B002BEDD0054B25
:108BA0004FF080525A6040BFBFF34F8FBFF36F8FBB
:108BB000E3E700BF00ED00E010B504680023C4F84F
:108BC00044350468C4F848350468C4F8503504686E
:108BD000C4F834150168C1F838250268C2F8403578
:108BE0000268C2F8183110BD2DE9F041069F044615
:108BF00088461E461546002A4BD040694FF0FF318B
:108C000001F01EFC012E84F80480204626D1FFF7D7
:108C100025FFBB6813B1FB683846984723790127C5
:108C20004FF0A04207FA03F3C2F80C35E560266165
:108C30002569E168FF2D28BFFF252A462046FFF75A
:108C400070FF23695B1B2361E3682B44E3602368A7
:108C5000BE421F6105D00120BDE8F081FFF73EFF55
:108C6000D7E72268D2F81831002BFBD022790123F4
:108C700093404FF0A0420025C2F808352046E56039
:108C8000FFF72CFF60692B462A46294601F084FA3B
:108C9000E1E71046E0E7F8B504460F4640694FF0BB
:108CA000FF3115461E4601F0CBFB27712046FFF72A
:108CB00015FF23684022C3F8082323680222C3F863
:108CC000082323684FF40022C3F8082323790127DF
:108CD0004FF0A04207FA03F3C2F80C350023E3601B
:108CE0003246236129462046FFF71BFF23681F6198
:108CF0002268D2F81831002BFBD0DDE9061220469D
:108D0000FFF75AFF236801221A612268D2F818314E
:108D1000002BFBD0237901254FF0A04205FA03F385
:108D2000C2F80835002360691A46194601F034FA82
:108D30002846F8BDF8B504460F4640694FF0FF31AC
:108D400015461E4601F07CFB27712046FFF7C6FE44
:108D500023684022C3F8082323680222C3F80823AB
:108D600023684FF40022C3F80823237901274FF02A
:108D7000A04207FA03F3C2F80C350023E360324641
:108D8000236129462046FFF7CCFE23681F61226835
:108D9000D2F81831002BFBD0DDE906122046FFF790
:108DA000C0FE236801221A612268D2F81831002B14
:108DB000FBD0237901254FF0A04205FA03F3C2F856
:108DC0000835002360691A46194601F0E5F928467E
:108DD000F8BD10B5016002F5E0734FF0A041032427
:108DE000027141F8234001239340C1F8083510BDBA
:108DF00007B5009313460A4601790068FFF7F4FEB1
:108E000003B05DF804FB13B5049CCDE900341346B0
:108E10000A4601790068FFF73EFF02B010BD13B5A6
:108E2000049CCDE9003413460A4601790068FFF737
:108E300081FF02B010BD0000C0E90012034900220A
:108E4000C0E90222C0E90412826170470000FFFFFE
:108E500030B5D0E90143A34227D205688469EB5CB1
:108E60001B1BDBB2C48A4BB98361838AA34208BF50
:108E7000438AC382836801338360EAE7058A240A50
:108E80004C55048AC58A0C44013B6570048A856987
:108E90000234A4B2013594420482DBB28561E1D38D
:108EA00000230382C3680133C36030BD012A02D1AD
:108EB000016000207047022A05D0032AF9D0002A59
:108EC000F7D10260F5E70B780370F2E7012A02D1CF
:108ED000016000207047022A05D0032AF9D0002A39
:108EE000F7D10260F5E70B780370F2E7027801230F
:108EF00093404FF0A042C2F80C357047027801232E
:108F000093404FF0A042C2F80835704710B583680F
:108F1000044613B1032201469847204610BD10B500
:108F20004371002301600271837110BD0068FFF777
:108F30005FBF00001FB50023CDE90033074B03934B
:108F4000074B047902936B468DF80040FFF7EEFF64
:108F50006846FFF7DBFF04B010BD00BFFD8E0000C8
:108F6000CD8E000007B501228DF807100DF1070125
:108F7000FFF7E0FF03B05DF804FB00001FB500231E
:108F8000CDE90033074B0393074B047902936B46FB
:108F90008DF80040FFF7CAFF6846FFF7B7FF04B03F
:108FA00010BD00BFED8E0000AD8E000007B50122A0
:108FB0008DF807100DF10701FFF7E0FF03B05DF832
:108FC00004FB000013B5DF210446FFF7EFFF042286
:108FD000044B01930DEB02012046FFF7ABFF02B0FB
:108FE00010BD00BF5A69020110B5C379044653B1E0
:108FF0001121FFF7DBFF062001F058FD01F066FCB0
:109000000023A060E37110BD10B5044601F05EFCC2
:10901000A368C21A7F2A05D88033BDE81040181A09
:1090200001F044BD10BD10B50446FFF7EDFF20462A
:109030000121FFF7BBFF0123E37101F047FCA060B2
:10904000BDE81040802001F031BD10B53A21044642
:10905000FFF7ACFF20465521BDE81040FFF782BF67
:1090600010B536210446FFF7A1FF20460021BDE8D8
:109070001040FFF777BF2121FFF798BF1321FFF7BB
:1090800095BF000013B5B2210446FFF78FFF064BD2
:10909000186800901B798DF8043005226946204637
:1090A000FFF748FF02B010BDDBB6000010B5C621C7
:1090B0000446FFF77BFF20460A21BDE81040FFF77A
:1090C00051BF000013B5B3210446FFF76FFF074BF4
:1090D0001A88ADF804209B788DF80630032201A988
:1090E0002046FFF727FF02B010BD00BFF8B6000012
:1090F0002921FFF75BBF13B50446D021FFF756FFC8
:10910000A423022201A92046ADF80430FFF712FF84
:109110002046E821FFF74AFFB3212046FFF722FF50
:1091200002B010BD10B5B7210446FFF73FFF20463F
:109130000021BDE81040FFF715BFF7B504461E46F5
:109140000F462A2115467FBAFFF730FF76BA042270
:1091500069462046ADF80070ADF80260FFF7EAFE00
:1091600020462B21FFF722FF6DBABDF82030ADF865
:109170000450042204F10C055BBA0DEB02012846F1
:10918000ADF8063002F08CFA042229462046FFF79B
:10919000D1FE03B0F0BD70B504460D4616462C2135
:1091A000FFF704FF324629462046BDE87040FFF72E
:1091B000C1BE10B5C4210446FFF7F8FE20461021B9
:1091C000BDE81040FFF7CEBEF7B5BDF82040013C2A
:1091D0001444013B0B44A4B2DDE9096700949BB23F
:1091E0000546FFF7AAFF3A463146284603B0BDE8D8
:1091F000F040FFF7D0BF70B5437901254FF0A0468E
:10920000044605FA03F3C6F80C35284601F04EFC77
:10921000637905FA03F3C6F80835E57101F056FBEA
:10922000A060BDE87040802001F040BC13B5027919
:109230004FF0A04302F5E072032143F82210427977
:1092400002F5E072044643F82210417901228A4077
:10925000C3F80825FFF7CFFF2046FFF7E4FE2046BE
:10926000FFF7B0FE2046FFF7BFFE2046FFF7EDFEFA
:109270002046FFF7F5FE00224FF4A073114600933D
:109280002046F023FFF759FF2046FFF7F4FE204663
:10929000FFF7F8FE2046FFF709FF2046FFF712FF11
:1092A0002046FFF7EBFE2046FFF783FF2046FFF73F
:1092B00022FF2046FFF736FF204602B0BDE81040EF
:1092C000FFF716BFF7B54029037906460C4659D972
:1092D000A1F14004A4B21725202C60D0AB42584A1B
:1092E0004FF0010100F09380FF2B17D0554B5160D8
:1092F0000B434FF438609847534B0422C3F80825BA
:109300000222C3F80825307900F022FC33794FF0AF
:10931000A04203F5E073032142F823104B4B01A94F
:109320001A889B78ADF8042028468DF8063000F0A6
:10933000B5FB08B101F070FF284600F03BFC284661
:1093400000F04AFC404F424BC7F82035C7F82405CF
:10935000284600F041FC3F4BC7F81835A3F59E7333
:10936000C7F81C05C7F814390423C7F804350223CD
:10937000C7F80435324B0122C3F840459A601A60A1
:10938000357131E0202904D9A1F12004A4B21625B9
:10939000A2E721F0200292B20E25002A9ED1FF2BD7
:1093A00019D0274B01225A60264B4FF438601343E3
:1093B0009847254B0422C3F808250222C3F8082544
:1093C000307900F0C5FB33794FF0A04203F5E0732C
:1093D000032142F82310FF2333710123AB404FF0E8
:1093E000A0428CB9C2F80835162D4FF0A0431AD010
:1093F000172D4FF480021FD14FF48041C3F80C1594
:10940000C3F80C2503B0F0BDC2F80C35ECE70D4BEA
:1094100051604FF4386043F001039847002128461B
:1094200000F0E8FBA6E74FF48042C3F80C254FF4A8
:109430000002C3F80825E5E7C3F80825F7E700BFF1
:109440000040024000B7000000F0014006B70000F5
:1094500040410240444102400160032903D8DFE853
:1094600001F00B0907056021FFF72CBF4021FBE746
:109470002021F9E70321F7E70021F5E74FF0A043AA
:109480000322C3F83827C3F85827C3F85C274FF4E2
:109490008042C3F80C254FF48002C3F80C254FF42A
:1094A0000002C3F80C25084B0022C3F8082520222F
:1094B000C3F844254FF44032C3F84023034AC3F8AD
:1094C00008230168FFF7C8BF0040024003000F00F7
:1094D00010B5154CD4F80433580609D5D4F8183112
:1094E000012B05D100231148C4F81831FFF730FBD8
:1094F000D4F80433190309D5D4F84C31012B05D124
:1095000000230A48C4F84C31FFF70AFB064BD3F896
:109510000423920706D5D3F80421012A04BF0022B0
:10952000C3F8042110BD00BF0030004098020020A5
:10953000F0B58DB00F49104E104D40F2A55205A860
:10954000FFF77AFC00244FF4F0770B494FF4F072E8
:1095500005A8FFF77DFC01230093A2B2CDE90167C6
:10956000F023002128460134FFF72EFEF02CECD129
:109570000DB0F0BD09B700008C0000206C02002087
:109580002DE9F0431B4A07EE100A85B040F2E113C3
:109590001746013B2AD1DFED187A184EB8EE477A0C
:1095A000DC2527EE277ADFED167AB4EEE77AF1EEC6
:1095B00010FAD8BFF0EE477AFCEEE77A4FF00108D8
:1095C00017EE903A9CB24FEA44092A460135CDE99C
:1095D0000179CDF80080234600213046ADB2FFF777
:1095E000F3FDF02DF1D105B0BDE8F08302F8011BC9
:1095F000CFE700BF8C0000209A9919406C02002030
:1096000000007043F0B52E4B2E4D2F49C3F8005685
:10961000B5B0022001F03CFE08B101F0FDFD2B4881
:109620002B4F274EFFF794F92948FFF7CCF828482D
:10963000FFF7D6F82748FFF721FF2748FFF7F6FD89
:10964000FFF776FF00242146384604F58054FFF7E3
:1096500012F9B4F52C3FC6F80056F4D11F4F1C4E3A
:1096600000243919C82202A802F01AF8C82321469A
:1096700002AA3046FFF725F907EE904A9FED187AC7
:10968000F8EEE76A4FF6FF71C6EE877AC8349FEDB1
:10969000157A67EE877AFCEEE77ACDED017A9DF8D0
:1096A0000400FFF76DFF064BC3F800560E4B9C42BB
:1096B000D7D14EF207016420FFF762FF00BFFDE73C
:1096C000000001403546526E5C00002098020020E8
:1096D00088020020000000206C020020AEBC0000C8
:1096E00000992A480000C842D0AA0200024A136822
:1096F00001331360704700BF58000020024A13680E
:1097000001331360704700BF540000201FB50D4B9C
:109710000D4AC3F8002600F08DF803AB0193002337
:109720000A490B4800934FF4007200F0C1FF012872
:1097300002D0042001F070FD01F092F80F2001F03A
:109740006BFDFBE7000001403546526EE1B60000BC
:109750000596000037B5124B124C1868124D9B88C5
:1097600000906A4600212046ADF80430FFF7E4F887
:10977000052221462846FFF72CFB29460B4D0C48B5
:10978000FEF7F9FF214619222846FFF722FB094878
:109790001A231222294603B0BDE83040FFF7BFBBB1
:1097A000126703009802002090020020800200202F
:1097B000880200206C0200200649074A074B9B1ACA
:1097C00003DD043BC858D050FBDC01F0BBFDFEF7C5
:1097D00071FD000024670300000000201800002035
:1097E000FEE7FEE7FEE7FEE7FEE7FEE7FEE7FEE751
:1097F000FEE7FEE738B5074C051EA4F1080308BFD5
:109800001C4623682BB11A6822605B68284698477B
:10981000F7E738BDC402002020B9054B01225A7079
:10982000FFF7E8BF012802D1014A9070F8E77047BE
:10983000B402002038B5094C23786BB9084863603E
:10984000A3602361E36000F037F8054600F040F8BC
:1098500001232370284638BD8525FBE7B40200208C
:109860001998000038B5134CA378054603F0FF00A3
:1098700073B115B16B6801209847002001F004FD19
:10988000E3680133E360BDE83840002001F0FEBC2E
:1098900001F0FAFC25B1226913463BB92A60256123
:1098A000E368002BECD100F025F8E9E79D42F7D002
:1098B0001B68F2E7B4020020044B0246187918B97D
:1098C0001A6001229A80704785207047C8020020E4
:1098D000074B1A68D2075FBFC02283F8002301221A
:1098E0001A604FF080430122C3F81825704700BF6B
:1098F00000E100E037B54FF080430022C3F80421B7
:10990000D3F804210192019A0222C3F804230D4ADC
:10991000D2F8FC0040F08073C2F8FC300A4B1C689F
:1099200044F0010119605D685968491BB1F50A5F8F
:10993000FAD31C604FF08043C2F8FC0001229A6009
:1099400003B030BD00ED00E0001000E007B54FF0BF
:109950008043D3F800217AB10022C3F80021D3F864
:1099600000210092009A0122C3F808230F4B587976
:1099700010B95A711B6898474FF08043D3F80421FF
:1099800082B10022C3F80421D3F804210192019A84
:109990000222C3F80823054B1B68012003B05DF8C1
:1099A00004EB184703B05DF804FB00BFC8020020B9
:1099B00000F1804000F5C040002382B003600368DE
:1099C0000193019B02B07047800000F1A040D0F8E5
:1099D000003723F44033C0F80037D0F8003743EAAB
:1099E0000143C0F800377047C208012300F00700A8
:1099F0008340885C03438B5470470000054B4FF055
:109A0000FF32072843F8202084BF1B1883F8482022
:109A1000704700BFD002002010B5174C94F85830A2
:109A200043BB04F12F032021FF22013911F0FF0174
:109A300003F8012FF9D1C8B20131FFF7DFFF0C297C
:109A4000F9D104220D48002101F0FEFD0C4BC0228B
:109A500083F8062340221A604FF4BE70FFF7A8FF78
:109A6000084B4FF00042C3F80423012384F8583018
:109A7000002010BD0820FCE7D002002024030020B5
:109A800000E100E000600040034B93F8580000380C
:109A900018BF0120704700BFD002002038B52A4B04
:109AA0001A1892F9304001344CD18C78002C45D0F2
:109AB0001C46002254F8045B01353AD11C1884F886
:109AC0003020002443F82240920002F1804202F547
:109AD000C0420B78D2F810554C7825F498151B0429
:109AE000240525F4F85504F4801403F44033C2F837
:109AF000105523430402D2F8105504F4F8542343BC
:109B00002B43C2F810354A780123012A4FF0A042B6
:109B100003FA00F30CBFC2F80835C2F80C3500F5A3
:109B2000E073032142F823100849FFF75DFF00208E
:109B300003E00132082ABDD1042038BDFE2382F89B
:109B40003030E0E70820F8E7D002002024030020AE
:109B500038B5154C2518014695F83000072809D866
:109B6000FFF74CFF95F93030104A03F5A27300203F
:109B700042F823000C44FF2384F8303001F0070240
:109B8000012393400A48CA08845C1C420AD001F5AC
:109B9000E0714FF0A044022544F82150815C21EA95
:109BA0000303835438BD00BFD00200200060004092
:109BB00024030020074B034493F930309B0003F14A
:109BC000804303F5C043D3F8102542F00302C3F8E5
:109BD00010257047D0020020054B034493F9300054
:109BE0008000C0B200F1804000F5C040704700BF67
:109BF000D00200200A4B0344003993F930304FEA79
:109C0000830303F1804303F5C04318BF0121D3F858
:109C1000102522F4801242EA0152C3F81025704741
:109C2000D00200202DE9F041DFF8E08008EB0003CE
:109C3000044693F93030002B0F4663DA8978C1F37C
:109C4000400100290BBF082300230C260826B3423D
:109C500002D10420BDE8F08158F8230001304FEA1A
:109C600083053AD108EB04005EB248F8232080F85F
:109C7000306011B9434483F84840BB7859070ED48B
:109C8000DA072CD5A30003F1A043D3F8002722F074
:109C90000202C3F800271C492046FFF7A5FEBB7847
:109CA0003A789B0724D505F1804303F5C04324028D
:109CB000D3F8101521F4473121F44071C3F8101581
:109CC0001204D3F8101504F4F85402F4403214438B
:109CD0000C43C3F810450020BCE70133B7E77A789E
:109CE00004F5E0734FF0A041920041F82320D2E741
:109CF000083E48FA86F696F8503043EA821386F812
:109D00005030E8E70820A5E724030020D002002017
:109D100038B51E4C251895F93020072A16DD144455
:109D200094F848309B09032B0BD14FF0A043D3F894
:109D30001015C14001F001010231BDE83840FFF7C4
:109D400043BE012B0CBF02210321F6E7D3B2072B40
:109D50001BD8930003F1804303F5C043D3F81005EB
:109D600040F00100C3F8100502F14000800080B20D
:109D7000FFF71EFE49B195F9303054F8233023B176
:109D800001239340024AC2F8043338BDD0020020B8
:109D9000006000400E4B034493F93020072A02DD97
:109DA0000021FFF711BED3B2072B0FD8930003F1A8
:109DB000804303F5C043D3F8101521F00101C3F827
:109DC000101501239340034AC2F80833704700BFBF
:109DD000D002002000600040F8B50446FFF7DAFF2B
:109DE00015490A1992F9303092F83020072A9FBF9E
:109DF000124A03F5A273002042F8230004F0070280
:109E0000012393400E48E208855C1D420AD004F508
:109E1000E0754FF0A046022746F82570855C25EADC
:109E200003038354214491F83000FFF7E7FDFF233B
:109E300081F83030F8BD00BFD00200200060004043
:109E400024030020084B034493F9300093F830308A
:109E5000072B9DBF4030800080B24FF4BE7000F1F0
:109E6000804000F5C0407047D00200202DE9F04F3F
:109E700087B00024584D03944FF48072012102F101
:109E8000804303F5C0431B68012B07D1D5F8043389
:109E9000194203D090B2FFF78BFD0C430432B2F5A8
:109EA000907F4FEA4101EAD14B4BD3F87C31012B33
:109EB0000AD14FF4BE70FFF77BFD4FF0A04344F092
:109EC0000044D3F810350393E3B2D3B1434F0126D6
:109ED0000025344210D0AB0003F1804303F5C043AA
:109EE000D3F81005D3F8101557F8253023B1C1F376
:109EF0000141C0F3042098470135082D4FEA46067A
:109F0000E7D1002C64DA00224FF0FF33CDE90423BF
:109F1000DFF8C890DFF8C8800026374618F9014FEF
:109F2000631C46D0C4F3C20318336B440122E5B26C
:109F300004F03F0A04F0070402FA04F413F8042CB6
:109F4000224236D009EB0A02AD0992F9302059F8C5
:109F500022B0BBF1000F08D1032D2AD104A950462D
:109F60000193FFF741FD019B01E0032DF6D00AF5B7
:109F7000E0714FF0A04213F80C3C52F8211023423C
:109F8000C1F3014105D0022913D1032D0BD129467C
:109F900004E003290DD1032D05D102215046FFF71E
:109FA00013FD0136F6B2BBF1000F02D02946504630
:109FB000D8470137042FB1D156B14FF0A043039ACF
:109FC000D3F810359A4203D00393049B0593A1E77D
:109FD00007B0BDE8F08F00BF00600040D002002055
:109FE0001F03002010B50446FEF7ACFBA46BFEF780
:109FF000B1FBB4FA84F0400910BD70B51646026C8E
:10A00000856B044642B906689EB9406800F0F4FECC
:10A0100066600135A56370BD6EB9806801F040FBD4
:10A02000A368226C13446268A360934224BF236830
:10A03000A3600020EDE7C06801F032FB226CE3680A
:10A0400051429B1A2268E36093423EBF63685B18EB
:10A05000E360022EEDD10DB1013DEAE72846D8E7D5
:10A06000034610B41A6C08466AB1DC685968144497
:10A070008C4228BF1968DC6028BFD960D9685DF8B8
:10A08000044B01F00DBB5DF8044B704770B50446FE
:10A09000FEF758FB94F8455004F124066DB2002DEC
:10A0A00001DD636AB3B9FF2384F84530FEF752FB44
:10A0B000FEF748FB94F8445004F110066DB2002DF1
:10A0C00001DD23697BB9FF2384F84430BDE870408B
:10A0D000FEF740BB304600F0A1FD08B100F00CFED9
:10A0E000013D6DB2DBE7304600F098FD08B100F0AD
:10A0F00003FE013D6DB2E2E738B504460D46FEF7BA
:10A1000021FBD4E90F312268A2604B43D0185B1ABF
:10A110001A446060FF230020A063E26084F84430AA
:10A1200084F845309DB923696BB104F1100000F04B
:10A1300075FD40B10A4B4FF080525A6040BFBFF3EB
:10A140004F8FBFF36F8FFEF705FB012038BD04F181
:10A15000100001F025FA04F1240001F021FAF2E7E1
:10A1600000ED00E0F8B50646484350300D4617466E
:10A17000FEF700F9044658B165B100F15003C4E997
:10A180000F65236001212046FFF7B6FF84F84C706D
:10A190002046F8BD0346F2E72DE9F04385B00027DD
:10A1A000DFF8F090019204460E461D46B846FEF7D1
:10A1B000C9FAA26BE36B9A421AD22A46314620466C
:10A1C000FFF71BFF636A1BB104F1240000F026FDBA
:10A1D00040B1304B4FF080525A6040BFBFF34F8FB9
:10A1E000BFF36F8FFEF7B6FA012005B0BDE8F0832C
:10A1F000022DE2D0019B1BB9FEF7ACFA0020F4E778
:10A2000017B902A800F044FDFEF7A4FA00F056FBCF
:10A21000FEF798FA94F84430FF2B08BF84F8448086
:10A2200094F84530FF2B08BF84F84580FEF792FA7A
:10A2300001A902A800F038FD30BBFEF783FAA26B3B
:10A24000E36B9A420ED1FEF785FA019904F11000F2
:10A2500000F0C0FC2046FFF719FF00F0BBFB48B13F
:10A260000127A4E7FEF776FA2046FFF70FFF00F07C
:10A27000B1FBF5E74FF08053C9F8043040BFBFF39E
:10A280004F8FBFF36F8FEBE72046FFF7FFFE00F025
:10A29000A1FBB3E700ED00E02DE9F84304461646C4
:10A2A0001F468946FEF760FAA26BE36B9A4280462E
:10A2B00001D3022F1FD194F845503A466DB249465A
:10A2C0002046FFF79AFE6B1C10D1636A3BB104F184
:10A2D000240000F0A3FC10B10EB10123336001246F
:10A2E0004046FEF745FA2046BDE8F88301356DB2D9
:10A2F00084F84550F3E70024F2E770B504460D46B4
:10A30000FEF732FAA26BE36B934206461BD994F830
:10A3100045100132FF294BB2A2630FD1636A3BB1F2
:10A3200004F1240000F07AFC10B10DB101232B6080
:10A3300001243046FEF71CFA204670BD01335BB2A3
:10A3400084F84530F4E70024F3E700002DE9F043FA
:10A3500085B00027DFF8E490019204460E46B84627
:10A36000FEF7F0F9A56BDDB131462046013DFFF760
:10A3700077FEA56323696BB104F1100000F04EFC79
:10A3800040B12E4B4FF080525A6040BFBFF34F8F09
:10A39000BFF36F8FFEF7DEF9012005B0BDE8F08353
:10A3A000019B1BB9FEF7D6F90020F6E717B902A802
:10A3B00000F06EFCFEF7CEF900F080FAFEF7C2F96D
:10A3C00094F84430FF2B08BF84F8448094F845305B
:10A3D000FF2B08BF84F84580FEF7BCF901A902A84D
:10A3E00000F062FCF8B92046FFF7FCFDA8B1019926
:10A3F00004F1240000F0EEFB2046FFF747FE00F0DA
:10A40000E9FA40B94FF08053C9F8043040BFBFF3B8
:10A410004F8FBFF36F8F0127A2E72046FFF736FE6D
:10A4200000F0D8FAF7E72046FFF730FE00F0D2FA46
:10A430002046FFF7D7FD0028EDD0B5E700ED00E09E
:10A440002DE9FF410025DFF81881019104462F46D0
:10A450002E46FEF777F9A36BE3B1013BA3632368B4
:10A4600013B900F041FD606023696BB104F1100085
:10A4700000F0D4FB40B13A4B4FF080525A6040BFDD
:10A48000BFF34F8FBFF36F8FFEF764F9012004B065
:10A49000BDE8F081019B1BB9FEF75CF90020F6E7EF
:10A4A00017B902A800F0F4FBFEF754F900F006FA21
:10A4B000FEF748F994F84430FF2B08BF84F8446055
:10A4C00094F84530FF2B08BF84F84560FEF742F949
:10A4D00001A902A800F0E8FB48BB2046FFF782FD77
:10A4E000F8B123683BB9FEF72DF9606800F034FC41
:10A4F0000546FEF72FF9019904F1240000F06AFBEC
:10A500002046FFF7C3FD00F065FA40B94FF08053D5
:10A51000C8F8043040BFBFF34F8FBFF36F8F0127E0
:10A5200097E72046FFF7B2FD00F054FAF7E7204620
:10A53000FFF7ACFD00F04EFA2046FFF753FD002870
:10A54000EDD0002DAAD0FEF7FDF8616A19B1236B9A
:10A550001968C1F10301606800F086FC9CE700BF48
:10A5600000ED00E0054B1A6812B19A682AB9012281
:10A5700043F8321003EBC203586070472C030020ED
:10A5800070B504460D461646FEF7DCF894F84430E4
:10A59000FF2B04BF002384F8443094F84530FF2B90
:10A5A00004BF002384F84530FEF7D4F8A36B2BB921
:10A5B0003246294604F1240000F01CFB2046BDE889
:10A5C0007040FFF763BD0000F8B51A4B1A4D1C68C8
:10A5D0000646286804300F4601F012F840B92A6890
:10A5E0001649D06A0B680122824023EA02030B60FD
:10A5F000731C07D137B129681148BDE8F840043110
:10A6000000F0DCBF2B68A4195C6007D30D4B186801
:10A610002968BDE8F840043100F0DBBF0A4B186838
:10A620002968043100F0D5FF084B1A68A24288BFA0
:10A630001C60F8BD60030020140400205C030020AF
:10A6400068030020A8030020AC030020440300207E
:10A65000094B0A4A1B681268D06A50B9084A126846
:10A660001343012B06D8074B1868074B1B68C01A09
:10A6700070470020704700BF5C03002014040020D6
:10A68000D80300204403002060030020064A13681A
:10A690001968064B19B94FF0FF321A6070471268FB
:10A6A000D268D2685268F8E7AC0300204403002067
:10A6B0002DE9F047950006462846DDF824808A46B5
:10A6C0001F46FDF757FE814618B94FF0FF30BDE831
:10A6D000F0874820FDF74EFE0446002800F09C80DD
:10A6E000C0F830902A464846A52100F0ADFF236B04
:10A6F000043D2B4423F0070904F133020AF1FF3330
:10A700000AF1030A13F8011F02F8011F09B15345AA
:10A71000F8D1089D022D28BF0225002304F1040A68
:10A72000C4E9105384F83730E562504600F043FF27
:10A73000C5F1030504F1180000F03DFF2461A56197
:10A7400064623A4631464846FDF7C6FF2060B8F1DC
:10A75000000F01D0C8F80040FDF7F4FF304B314D39
:10A760001A68314E01321A602A68002A4AD12C60D8
:10A770001B68012B1FD12D48DFF8E0802C4F00F023
:10A780000FFF2C4800F00CFF2B4800F009FF40465B
:10A7900000F006FF384600F003FF284800F000FFF5
:10A7A000274800F0FDFE274800F0FAFE264BC3F8CC
:10A7B0000080264B1F60264A26491368086801332B
:10A7C0001360E26AA3630123934003430B60174BBA
:10A7D000142000FB0230514600F0F0FEFDF7BAFFF6
:10A7E00033686BB12B68DA6AE36A9A4208D21A4B73
:10A7F0004FF080525A6040BFBFF34F8FBFF36F8F4F
:10A80000012064E73268E36A002AD4D12A68D26A58
:10A810009A4298BF2C60CEE74846FDF72DFE54E7DC
:10A82000640300201404002058030020D8030020F3
:10A83000B0030020EC03002000040020940300205B
:10A840008003002068030020AC030020A803002040
:10A85000480300205C03002000ED00E0C40300205A
:10A8600013B5104B019300240F4910480094234660
:10A870007822FFF71DFF012811D100F08BFB012882
:10A880000DD172B60A4B4FF0FF321A60094B1860B7
:10A89000094B1C6002B0BDE81040FDF72FBF02B0AD
:10A8A00010BD00BF40030020E6B60000DDAA000096
:10A8B000440300205803002060030020024A13686C
:10A8C00001331360704700BF3C030020014B186840
:10A8D000704700BF60030020024A136803441360FE
:10A8E000704700BF600300202DE9F84F2E4B1B6816
:10A8F000002B54D12D4B1D6801351D605DB92C4ACC
:10A900002C4B1168186810602B4A196013680133CA
:10A910001360FFF7BBFE294F3B68AB4208D9002606
:10A92000274B1B68002B0CBF30460120BDE8F88F79
:10A93000DFF87CA0DFF89490DFF894B00026DAF816
:10A9400000301B681BB94FF0FF333B60E8E7DAF8D3
:10A950000030DB68DC6863689D42F6D304F10408CC
:10A96000404600F04DFEA36A1BB104F1180000F050
:10A9700047FEE26AD9F800100123934014200B43EC
:10A9800000FB02B04146C9F8003000F017FE0D4B45
:10A99000E26A1B68DB6A9A4228BF0126CFE70A4AAF
:10A9A000136801331360BAE73C0300206003002002
:10A9B000AC030020A80300204C0300204403002027
:10A9C0005003002014040020540300205C030020E6
:10A9D000D80300202DE9F843FDF7B4FE2A4B1A688E
:10A9E000013A1A601C682CB10024FDF7B3FE204622
:10A9F000BDE8F883254B1B68002BF5D0244D254E70
:10AA0000DFF8A4801FE0EB68DC6804F1040904F1BE
:10AA1000180000F0F5FD484600F0F2FDE26A3168EA
:10AA2000012707FA02F314200B4300FB028049467A
:10AA3000336000F0C3FD184BE26A1B68DB6A9A4280
:10AA400001D3164B1F602B68002BDCD10CB1FFF734
:10AA50001DFE134D2C6844B1104E0127FFF744FF33
:10AA600000B13760013CF9D12C600C4B1B68002B06
:10AA7000BAD00C4B4FF080525A6040BFBFF34F8F9B
:10AA8000BFF36F8F0124B0E73C0300206403002074
:10AA9000940300205C0300201404002050030020D5
:10AAA0005403002000ED00E0D803002008B548B9A9
:10AAB000094B4FF080525A6040BFBFF34F8FBFF336
:10AAC0006F8F08BD0021FFF7F9FEFFF77DFDFFF74F
:10AAD00081FF0028ECD0F4E700ED00E0F8B51B4C56
:10AAE0001B4F1C4E2368DBB91B4B1B68012B08D97D
:10AAF0001A4B4FF080525A6040BFBFF34F8FBFF3E5
:10AB00006F8FFFF7A5FD0128EBD9FFF7D7FEFFF701
:10AB10009FFD012801D9FDF77BFDFFF75BFFE0E713
:10AB2000FDF710FEFB68DD68281D00F069FD336845
:10AB3000013B33602368013B2360FDF70BFE286B6C
:10AB4000FDF79AFC2846FDF797FCCBE77C03002035
:10AB50008003002064030020D803002000ED00E003
:10AB600070B5174B1A68174B12B101221A6070BDED
:10AB7000154C1A602268236812681B6B9A4204D82D
:10AB8000206821683431FEF7B9FD104B10491B686D
:10AB9000B3FA83F3C3F11F03142606FB03F28818EC
:10ABA000083245686D6845600A44954204BF6A688A
:10ABB000426006FB03114B68DB682360D7E700BFE8
:10ABC0003C03002050030020140400205C030020FC
:10ABD000D803002010B5064B0C461968183100F058
:10ABE000F8FC20460121BDE81040FFF7EDBC00BF96
:10ABF0001404002038B5084B0D4619681446183166
:10AC000000F0DCFC002C21460CBF28464FF0FF3042
:10AC1000BDE83840FFF7D8BC1404002038B5C3683D
:10AC2000DC6804F11805284600F0EAFC124B1B68AA
:10AC3000F3B9251D284600F0E3FC1049E26A0868D4
:10AC40000123934003430B600D4B1420294600FB66
:10AC5000023000F0B3FC0B4BE26A1B68DB6A9A42DD
:10AC600085BF094B012000201860FFF70FFD38BD9C
:10AC700006482946EDE700BF3C0300205C030020A6
:10AC8000D803002014040020500300209403002067
:10AC9000034B1B680360034B1B684360704700BF96
:10ACA0004C0300206003002070B50C460546FDF7FC
:10ACB00049FD0F4B196823685A1C10D00D482E68A7
:10ACC00000686A68864201D08A420FD9881A834296
:10ACD0000AD95B1A134423602846FFF7D9FF0024E2
:10ACE000FDF738FD204670BD002323600124F7E7FF
:10ACF000600300204C030020014B01221A607047C2
:10AD000050030020084B186860B9084B1B6853B902
:10AD1000074B1868074B1B68013B98420CBF022089
:10AD2000012070470020704794030020500300204A
:10AD30006803002064030020054B1B6833B1054BFA
:10AD40001868B0FA80F04009400070470120704751
:10AD5000580300203C0300202DE9F0410446002860
:10AD60002ED0224DC36A2A68D26A934236D28269B3
:10AD70001F4F002AA1BF2A68D26AC2F10302826172
:10AD80001426426906FB03739A4215D100F10408A8
:10AD9000404600F035FC174AA0B12B681168D86A0C
:10ADA000E062012383400B4313601423414603FBFD
:10ADB000007000F003FC02E02B68DB6AC362012034
:10ADC000BDE8F081E06A4643BB59002BE5D113682A
:10ADD0000121814023EA01031360DEE72B68006C48
:10ADE000DB6A98422CBF00200120E9E71404002010
:10ADF000D80300205C030020F8B5044608B9002001
:10AE0000F8BD436CC16A026C013B91424364F6D0C9
:10AE1000002BF4D1061D304600F0F2FB104F114A12
:10AE200050B9E16A14234B43FB582BB91368012531
:10AE30008D4023EA05031360236CE362C3F1030131
:10AE4000A1611168012404FA03F514200D4300FBED
:10AE500003703146156000F0B1FB2046D0E700BF1B
:10AE6000D80300205C030020F8B50446002836D043
:10AE7000036C994238BF1946C36A8B422FD0426C8B
:10AE8000012A2CD18269164EC162002A4FF01405A6
:10AE90004269A8BFC1F1030105FB0363A8BF81613B
:10AEA0009A421CD1071D384600F0AAFBE26A0D4CFD
:10AEB00040B9554373592BB923680121914023EAC6
:10AEC000010323602168012393400B432360142076
:10AED000394600FB0260BDE8F84000F06FBBF8BDEA
:10AEE000D80300205C030020044B1A681AB11968CB
:10AEF0004A6C01324A641868704700BF140400208D
:10AF0000914208B5416000610AD8D21A83699A4219
:10AF10000DD2084B011D186800F05BFB002008BD36
:10AF20009A4201D2994202D2034B011DF3E701205C
:10AF3000F5E700BF2404002028040020F8B50F4CDA
:10AF4000FDF700FC2568ADB90D4F0E4E384600F0F8
:10AF500027FB304600F024FB0B4B1F600B4B2A46AF
:10AF6000102120201E60FFF7FDF8206010B1084975
:10AF7000FFF7F8FABDE8F840FDF7ECBB200400202D
:10AF8000400400202C040020280400202404002079
:10AF9000EBB6000007B5FFF7D1FF084B186850B1BA
:10AFA000074B0193012300930649074800234FF400
:10AFB0009672FFF77DFB03B05DF804FB20040020D0
:10AFC0001C040020F0B600009DB000007FB50F4CBF
:10AFD0000546206816461A4680B10529CDE90016B7
:10AFE00002950DDCFFF7A8FE0023022808BF089A8F
:10AFF000206818BF1A466946FFF7CEF804B070BD46
:10B0000000236946FFF748F9F8E700BF2004002055
:10B010002DE9F347DFF880800646FFF757FCD8F8A4
:10B0200000308342054609D9194F3B681A686AB94E
:10B03000184A116839601360012300E00023284694
:10B040003360C8F8005002B0BDE8F087DB68DC6808
:10B05000D3F8009004F1040A504600F0D1FA636A74
:10B0600020469847E369012BDFD1A3694B449945FA
:10B0700006D2386863602461514600F0AAFAD4E72A
:10B08000002300934A4619462046FFF79FFFCCE76E
:10B090002804002024040020180400202DE9F04793
:10B0A000594E88B04FF0000833681D68002D5BD002
:10B0B000DB68D3F80090554FFFF700FC04A8FFF7BA
:10B0C000A7FF049C8246002C6AD1002D4ED0484533
:10B0D00052D3FFF77FFC3368DB68DD68281D00F082
:10B0E0008FFAEB69012B0ED1A9694B4652464944B0
:10B0F0002846FFF705FF30B1009423464A46214613
:10B100002846FFF763FF6B6A284698473868002295
:10B1100004A9FFF71BF90028C6D0049B0698002B52
:10B1200041DB069C6369002B44D103A8FFF770FF45
:10B13000049B0246092BE9D801A151F823F000BF76
:10B14000BDB10000BDB10000BDB100000DB10000F7
:10B15000EFB10000FFB10000BDB10000BDB10000C3
:10B160000DB10000EFB10000A946A4E7284B1B6811
:10B170001C68B4FA84F4640938682246A9EB0A0111
:10B18000FFF7FEF9FFF726FC0028BFD1214B4FF057
:10B1900080525A6040BFBFF34F8FBFF36F8FB5E748
:10B1A000FFF718FCB2E7059B07999847049B002B13
:10B1B000ACDBB6E7201D00F023FAB6E7A169059BDA
:10B1C00020461944FFF79CFE00289FD0636A204662
:10B1D0009847E369012B99D1A2690599CDF80080C0
:10B1E00000230A4420461946FFF7F0FE8EE7059932
:10B1F000A161034601442046FFF782FE86E7204610
:10B20000FDF73AF982E700BF28040020200400205F
:10B210002404002000ED00E01FB50021039001AAE6
:10B2200044F20100CDE9011100F004F805B05DF829
:10B2300004FB000072B6094BD3F8F020D20700D50A
:10B2400000BEBFF34F8FD968054A01F4E0610A439D
:10B25000DA60BFF34F8F00BFFDE700BF00ED00E0F5
:10B260000400FA0572B6024A13680133136070478E
:10B2700054040020034A1368013B136003B962B60B
:10B28000704700BF54040020FFF7ECBFFFF7F2BF88
:10B2900070B5E1B111F0030419D10E4D0E4E0F4BF4
:10B2A00029603070042221460D481C7000F0CCF952
:10B2B0003278286802EB4202D200214600F0C4F93D
:10B2C000FEF7E2FB20B9BDE87040FEF7A5BB0724FE
:10B2D000204670BD5C040020610400206004002052
:10B2E000580400204FF0704393F8E02F062A10D145
:10B2F000D3F8E42F12070CD1D3F8E80F00F0F003D5
:10B30000302B08D000F0E000A0F140035842584133
:10B31000704700207047012070474FF0704393F84A
:10B32000E02F062A0CD1D3F8E42F120708D1D3F866
:10B33000E80F00F0F000A0F1300358425841704788
:10B340000020704708B5FFF7CDFF40B14FF08053A4
:10B35000884AD3F82433C3F30423C2F84035FFF7F7
:10B36000DCFF10B1844B854A5A67FFF7BBFF48B139
:10B370004FF080534FF08042D3F84432C3F342334E
:10B38000C2F83C35FFF7C9FF30B17D4AD2F8FC3036
:10B3900023F08073C2F8FC30FFF7A4FF40B14FF0F8
:10B3A00080430022C3F80C21C3F81021C3F83825CC
:10B3B000FFF7B3FF20B14FF080430322C3F8A0256D
:10B3C000FFF7ABFF60B16F4B0522C3F810260122D7
:10B3D000C3F888260022C3F818263F22C3F8142693
:10B3E0004FF0704393F8E02F062A50D1D3F8E42FA2
:10B3F00011074CD1D3F8E83F03F0F003502B46D1AE
:10B400004FF08052604BD2F80414C3F82015D2F8E4
:10B410000814C3F82415D2F80C14C3F82815D2F870
:10B420001014C3F82C15D2F81414C3F83015D2F840
:10B430001814C3F83415D2F81C14C3F84015D2F808
:10B440002014C3F84415D2F82414C3F84815D2F8D0
:10B450002814C3F84C15D2F82C14C3F85015D2F8A0
:10B460003014C3F85415D2F83414C3F86015D2F868
:10B470003814C3F86415D2F83C14C3F86815D2F830
:10B480004014C3F86C15D2F84424C3F87025FFF7B4
:10B4900029FF48B14FF080534FF08042D3F8583223
:10B4A00003F04F03C2F8E43EFFF71CFF48B14FF032
:10B4B0008043D3F80024D20744BF6FF00102C3F8E1
:10B4C00000244FF08053D3F83021062A0AD1D3F854
:10B4D0003431062B01BF2D4AD2F83C3743F4806348
:10B4E000C2F83C37264AD2F8883043F47003C2F8D9
:10B4F0008830BFF34F8FBFF36F8F4FF01023D3F817
:10B500000022002A03DBD3F80432002B2EDA204B72
:10B510000122C3F80425D3F80024002AFBD04FF001
:10B5200010221521C2F80012D3F80024002AFBD003
:10B530004FF010231522C3F80422154BD3F8002432
:10B54000002AFBD00022C3F80425D3F80024002AE7
:10B55000FBD0BFF34F8F0A490E4BCA6802F4E0627A
:10B560001343CB60BFF34F8F00BFFDE70A4B0B4A7D
:10B570001A6008BD0030014000C007400DF0ADBAB0
:10B5800000ED00E00050004000C00040001000400E
:10B5900000E001400400FA05080000200090D003FC
:10B5A00000F108034FF0FF32C0E90223436003615A
:10B5B00000230360704700230361704743684B60BA
:10B5C0009A688A605160996008610368013303607A
:10B5D000704730B50C68631C0AD103695A684A6029
:10B5E00091608B605960086103680133036030BD6E
:10B5F00000F10802134652681568A542FAD9EDE732
:10B60000D0E9011203698A60416851605A68824238
:10B6100004BF82685A60002202611A68013A1A6007
:10B620001868704708B5064B044613B10021AFF304
:10B630000080044B1B6803B19847204600F03EF899
:10B64000000000006404002002440346934200D13D
:10B65000704703F8011BF9E770B50D4D0D4C641BE5
:10B66000A4100026A64209D10B4D0C4C00F028F87E
:10B67000641BA4100026A64205D170BD55F8043BFA
:10B6800098470136EEE755F8043B98470136F2E754
:10B690000C0000200C0000200C00002014000020F2
:10B6A0000A44914200F1FF3300D1704710B511F800
:10B6B000014B03F8014F9142F9D110BDFEE700BFE5
:10B6C000F8B500BFF8BC08BC9E467047F8B500BF8F
:10B6D000F8BC08BC9E467047030006020301EDED6E
:10B6E000004D41494E0049444C4500546D72510093
:10B6F000546D722053766300000A0A0000000000B7
:10B700000338FDD87047030001FF00FF00FF00FF72
:10B7100000FF00FF00FF00FF00FF00FF00FF00FF31
:10B7200000FF00FF00FF006602ED04EC05EA07E8F9
:10B7300009E60AE50CE30EE110DF12DE12DD14DB90
:10B7400016D918D71AD51BD41DD30D030ED10D054C
:10B750000ECF0E050FCD0F050FCC100510CA110529
:10B7600011C8120512C6130513C5130513C4140519
:10B7700014C2150515C0170317BE33BC34BB36BA47
:10B7800037B839B63BB43CB33EB140AF09022E01E5
:10B7900008AD09042C0308AC08062A0507AB090606
:10B7A000290608A90B0529050AA70D032B030CA5DB
:10B7B0004CA34DA24FA0519F529D549B559A579810
:10B7C00059965B945D935D925F90618E638C658A00
:10B7D00066896887080259020586070457040584AC
:10B7E0000805550605820906540605810A05550512
:10B7F000077F0C045603097D747B76797779787717
:10B800007A757C737E717F70816E836C856B8669BF
:10B81000876889668B648D628F609060915E935CAF
:10B82000955A0E0771070A580D0B6D0B08570E0C31
:10B830006C0C08550F0C6C0B0A53110A6D0B0B5254
:10B840009F50A04FA24DA44BA649A848A8FF00E3D3
:10B8500044AD43AE41B040B13EB23EB33CB53AB761
:10B8600039B837B936BB350E0166013C0109330ED4
:10B870000315050E0416150D0311050E0412030918
:10B88000310F0414060D0416150D0410050E0412D4
:10B890000409300F0414060D0416150D0410060DCE
:10B8A000041204092F100414070C0416150D0410BB
:10B8B000060D0412040A2D110414070C0416041EAC
:10B8C0000410070C0412040B2C110414080B0416AA
:10B8D000041E0410070C0412040C2A120414080B92
:10B8E0000416041E0410080B0412040D281304147B
:10B8F0000401040A0416041E04100401030B0412BC
:10B90000040D281304140401040A0416041E041070
:10B910000401040A0412040E261404140402040987
:10B920000416041E04100402030A0412040F241552
:10B930000414040204090416041E04100402040979
:10B940000412041023150414040304080416041E2E
:10B95000041004020409041204112116041404033F
:10B9600004080416041E041004030408041204113D
:10B9700020170414040403080416041E041004030E
:10B980000408041204121F17041404040407041604
:10B99000041E041004040308041204131D180414E4
:10B9A000040503070416130F04100404040704120B
:10B9B00004141B1A031404050406041613100310C0
:10B9C00004050307041303151A1B011504060306D7
:10B9D000041613110111040504060414011619328A
:10B9E000040604050416132304060306042C173367
:10B9F000040703050416043204060405042D161D6D
:10BA000001150407040404160420011104070305AA
:10BA100004140119141D0314040704040416041F5C
:10BA200003100407040404130319121D041404086A
:10BA300004030416041E0410040803040412041969
:10BA4000121D0414040804030416041E0410040840
:10BA500004030412041A101E041404090303041638
:10BA6000041E0410040804030412041B0E1F041413
:10BA7000040904020416041E04100409040204123A
:10BA8000041C0D1F0414040A03020416041E0410EF
:10BA9000040904020412041D0B200414040A040106
:10BAA0000416041E0410040A03020412041D0B20D1
:10BAB0000414040B03010416041E0410040A0401F8
:10BAC0000412041E09210414040B0816041E041099
:10BAD000040B03010412041F07220414040C0716AC
:10BAE000041E0410040B0812042006220414040C83
:10BAF0000716041E0410040C071204210423041466
:10BB0000040D0616041E0410040C0712042103245D
:10BB10000414040D0616041E0410040D061204225B
:10BB200002240414040D0616041E0410040D06124B
:10BB300004480315040E0516041E0311040D061215
:10BB4000034A0166013C01FF00FF00FF00FF00FF08
:10BB500000FF00FF00FF0010110F090F0409040D82
:10BB60000F8B110F090F0507050D0F8B110F090F13
:10BB70000507050D0F92031903120605060D039E16
:10BB8000031903120605060D039E03190312060589
:10BB9000060D039E03190312030103030301030DA2
:10BBA000039E03190312030202030202030D039E04
:10BBB00003190312030203010302030D039E031979
:10BBC0000312030203010302030D039E0319031270
:10BBD00003030503030D0D94031903120303050367
:10BBE000030D0D940319031203040304030D0D94B4
:10BBF0000319031203040304030D039E0319031224
:10BC000003050105030D039E031903120305010536
:10BC1000030D039E03190312030B030D039E031967
:10BC20000312030B030D039E03190312030B030DF1
:10BC3000039E03190312030B030D039E0319031242
:10BC4000030B030D039E03190312030B030D0F9245
:10BC50000316090F030B030D0F920316090F030BB5
:10BC6000030D0FFF00FF00FF00FF00FF00FF00FFBC
:10BC700000FF00FF00FF00FF00FF00FF00FF00FFCC
:10BC800000FF00FF00FF00FF00FF00FF00FF00FFBC
:10BC900000FF00FF00FF00FF00FF00FF00FF00FFAC
:10BCA00000FF00FF00FF00FF00FF00FF00EC3DB8B9
:10BCB000F39600000000200000001CAA0200000013
:10BCC0000000010000000000000000000000000073
:10BCD000012009480200314802003348020035487B
:10BCE000020037480200394802000000000000004E
:10BCF0000000000000000000000089E500003D4851
:10BD0000020000000000A9E50000414802005D4A71
:10BD100002003589000043480200D58800004348EE
:10BD2000020043480200F54D0200854F02004348DF
:10BD3000020043480200434802004D890000434886
:10BD4000020041890000434802004348020059892B
:10BD5000000009E60000434802004348020043484F
:10BD6000020043480200434802004348020043489F
:10BD7000020043480200434802004348020043488F
:10BD80000200434802000000000000000000434899
:10BD9000020043480200434802004348020043486F
:10BDA0000200434802004348020000000000000077
:10BDB0000000000000000000000000000000000083
:10BDC0000000000000000000000000000000000073
:10BDD0000000000000000000000000000000000063
:10BDE0000000000000000000000000000000000053
:10BDF0000000000000000000000000000000000043
:10BE00000000000000000000000000000000000032
:10BE10000000000000000000000000000000000022
:10BE20000000000000000000000000000000000012
:10BE30000000000000000000000000000000000002
:10BE400000000000000000000000000000000000F2
:10BE500000000000000000000000000000000000E2
:10BE600000000000000000000000000000000000D2
:10BE700000000000000000000000000000000000C2
:10BE800000000000000000000000000000000000B2
:10BE900000000000000000000000000000000000A2
:10BEA0000000000000000000000000000000000092
:10BEB0000000000000000000000000000000000082
:10BEC0000000000000000000000000000000034827
:10BED000044B834202D0034B03B118477047000262
:10BEE000002000020020000000000548064B1B1A3D
:10BEF000D90F01EBA301491002D0034B03B118473E
:10BF0000704700020020000200200000000010B571
:10BF1000064C237843B9FFF7DAFF044B13B104480A
:10BF2000AFF300800123237010BD00020020000049
:10BF30000000B827030008B5054B1BB105490548AB
:10BF4000AFF30080BDE80840FFF7CFBF00BF00009F
:10BF5000000004020020B8270300A3F5803A7047D0
:10BF600000BF174B002B08BF134B9D46FFF7F5FF93
:10BF700000218B460F461348144A121A22F081FD05
:10BF80000E4B002B00D098470D4B002B00D098474C
:10BF90000020002104000D000D48002802D00C48AC
:10BFA000AFF3008023F03FFC2000290000F091FB5C
:10BFB00022F0E7FB00BF00000800000000000000C6
:10BFC00000000000012000020020A04A0020000024
:10BFD00000000000000000F02EB8084600F02BB86A
:10BFE00000F0ABB800F0CFB8000010B5104B1A4607
:10BFF0001B688342FBD354681119884201BF416812
:10C00000104609195160446801198B420DD1084945
:10C0100009688B4204D05B68234443601368196845
:10C020000160904218BF106010BD1946F8E7300259
:10C0300000202C0200202DE9F04104461DF031FDC6
:10C040003549354D0B68F3B9354B354A3648D21A68
:10C050000260580718BF0733344A18BF23F007039C
:10C06000002013605060314A22F00702C2E900004C
:10C07000D01AC3E900202E4B0A6018602E4B1860BE
:10C080004FF000432B602F68274207D01DF09BFD27
:10C0900000F031FA00263046BDE8F081002CF5D0E2
:10C0A00004F1080362071CBF23F007030833002BC9
:10C0B000ECD0DFF88080D8F800509D42E6D31A4AD1
:10C0C00014686068984201D2206800BB0968A142E8
:10C0D000DCD02168166811606268D21A102A06F155
:10C0E000080604D9E01842606360FFF77EFF10493C
:10C0F00062680868AD1A17430023854267602360B1
:10C10000C8F8005038BF0D601DF05DFDC3E7224642
:10C110000446D6E700BF2C02002020020020B04ACF
:10C12000002000FC00201C02002030020020F8FB50
:10C130000020240200202802002010B50446E0B1AF
:10C140000F4A50F8043C1268134216D050F8081CED
:10C1500099B923EA020340F8043C1DF0A2FC084A06
:10C1600054F8043C1168A4F108000B441360FFF775
:10C170003CFFBDE810401DF026BD10BD00BF2002F1
:10C180000020280200202DE9F04105460C4601B3AD
:10C1900008461DB9BDE8F041FFF74DBF0E4B55F8FD
:10C1A000046CD3F8008016EA080FF3D0FFF743FFC2
:10C1B000074658B126EA0802083AA24228BF22469A
:10C1C000294623F0BCFB2846FFF7B7FF3846BDE8F9
:10C1D000F0810F46FAE720020020014B9878704763
:10C1E00000BF38020020014B5878704700BF38026A
:10C1F0000020034B1868B0F5803F34BF00200120B9
:10C200007047380200200A4B07B518600246FFF756
:10C21000E4FF0146FFF7E7FFD2B2CDE900020B468B
:10C22000054A05480C2122F0BEFA03B05DF804FB74
:10C2300000BF38020020BCDB020004000020009A8E
:10C2400041608260704713B50022044601210A2034
:10C250001CF0FBFF0023E0600949009309480194AA
:10C2600023464FF400721DF016FB012805D0042070
:10C2700002B0BDE810401EF0FFB802B010BDC8DB30
:10C280000200498700002DE9F0418CB000240546EA
:10C290000B460094104940F2A55205A806F021FE75
:10C2A00005F110064FF4F07801274FF4F072314693
:10C2B00005A806F020FECDE901680097A2B26868E3
:10C2C000F0230021013400F049FCF02CEDD10CB03A
:10C2D000BDE8F08100BF57E002004FF6FF71FFF7A5
:10C2E000D2BF2DE9F04300F1100707EE101A85B018
:10C2F000064600F5F8713B46994229D1DFED167AE2
:10C30000B8EE477ADC2527EE277ADFED137AB4EE14
:10C31000E77AF1EE10FAD8BFF0EE477AFCEEE77A52
:10C320004FF0010817EE903A9CB24FEA4409CDE96C
:10C330000179CDF800802A46013570682346002136
:10C34000ADB200F00BFCF02DF1D105B0BDE8F083EB
:10C3500003F8012BD0E79A991940000070431FB5EC
:10C360000446C822C0680DF10F011DF092F828B1F3
:10C370009DF80F30032B26D00B2B30D0A3689A7872
:10C38000FAB1D3ED026A93ED017ADB68022B29D072
:10C39000032B2BD0012B14D1B8EE477AF8EE666A46
:10C3A0004FF6FF72C6EE877A9FED127A67EE877AB4
:10C3B000FCEEE77ACDED017A9DF804102046FFF7F8
:10C3C00090FF04B010BDA06801F075FF20B1FF21FF
:10C3D0002046FFF758FFD1E74FF6FF71F8E74FF41B
:10C3E000FC61F5E74EF207026421E7E7FF22FBE775
:10C3F00000BF0000C84210B50446FFF76EFF20469C
:10C40000FFF7ADFFFBE71FB500238DF80710C068ED
:10C41000039303AA0DF107011CF0E2FF039B43B154
:10C42000064B4FF080525A6040BFBFF34F8FBFF3AF
:10C430006F8F05B05DF804FB00BF00ED00E07047B2
:10C440007047704770470148092106F092BB5802B7
:10C45000002007B5002300931A4603211DF0CFFEEC
:10C460000348122103B05DF804EB06F082BB5802CA
:10C4700000200246034652F8080B904203D0996808
:10C48000013121F07DBA704710B58368044613B1BD
:10C49000032201469847204610BD10B5044600F51A
:10C4A000F860FFF7E6FF04F5F560FFF7E2FF04F53B
:10C4B000F260FFF7DEFF04F5B860FFF7DAFF04F57E
:10C4C000B560FFF7D6FF04F5B260FFF7D2FF074B68
:10C4D000C4F87C3304F56770FFF7D6FF054BC4F84A
:10C4E000E43204F53E70FFF7CFFF204610BDD816AA
:10C4F0000300C4160300024A136801331360704737
:10C5000000BF50020020024A1368013313607047D5
:10C5100000BF4C02002030B51C2885B006D114485D
:10C52000082105B0BDE8304006F023BB00241328E5
:10C53000039419D1032915D10F4B1D681DF0BFFAC3
:10C5400003AB02460094062128461DF058FE039BCB
:10C5500043B1094B4FF080525A6040BFBFF34F8F39
:10C56000BFF36F8F05B030BD0D28FBD1044BE4E75E
:10C5700000BF580200203018002000ED00E0341801
:10C58000002010B5154CD4F80433580609D5D4F85A
:10C590001831012B05D100231148C4F8183100F0DF
:10C5A0002CFDD4F80433190309D5D4F84C31012BF0
:10C5B00005D100230A48C4F84C3100F006FD064BB3
:10C5C000D3F80423920706D5D3F80421012A04BF27
:10C5D0000022C3F8042110BD00BF00300040E8185D
:10C5E0000020014B1B68184700BF48020020014B88
:10C5F0001B68184700BF44020020014B1B68184706
:10C6000000BF40020020054B002282B0C3F8002189
:10C61000D3F800310193019B02B0704700BF0000C6
:10C6200001400B2808D00D2804D0012801D1034B6C
:10C6300019607047034BFBE7034BF9E700BF480263
:10C6400000204402002040020020EFF3108072B668
:10C6500000F00100704700B962B670470000004862
:10C6600070473C02002010B5044C4FF0FF312046CB
:10C6700007F073FA43689847F7E73C02002008B5D3
:10C68000FFF7F1FF000008B50022042120201CF074
:10C69000DCFD0C4B186019F088FB07F0E8FD11F089
:10C6A000EEF90021052019F004FA4FF4004018F0CB
:10C6B0004EFC11F0CEFD11F086FABDE808400248AC
:10C6C00007F01DBA00BF3C020020D189000011F024
:10C6D00028BD73B54FF080440123C4F878351BF0B2
:10C6E00028FF00201BF03DFF1BF0C1FFD4F81834D9
:10C6F000DB03FBD54FF0A04540F203632A4EC5F89B
:10C700001C378023C5F80835102446F00106D5F8FB
:10C710000435DA4302F0800203F08003C5F80825EF
:10C720004FF4A070C5F80C35013CB04714F0FF047D
:10C73000EDD10223C5F81C371C4B0093224623463B
:10C740000A211A481B4D1B4E1DF03FFD1B4B186064
:10C750001B4B009322462346C82119481DF035FD86
:10C76000194B1860194BD3F84005FFF74CFD2B68A7
:10C77000B34210D1164B1648D3E9002301F055FE01
:10C78000154805F0FAFEFFF77EFF1DF05CF90F205B
:10C790001DF072FEFBE71048114A2146121A22F0E2
:10C7A00070F92E60ECE700E6020099870000D3DB09
:10C7B0000200A84A00200000ADDE34180020A58742
:10C7C0000000E1DB02003018002000A00040A04A79
:10C7D00000201013002058020020A04A0020AC4A7C
:10C7E00000202DE9F04F674B684C18689B8895B086
:10C7F00012AA129000216548ADF84C3000F0F0FA12
:10C8000063496348192200F056FD1A2361496148C3
:10C81000122200F022F905225D495F4800F04BFD2D
:10C820005E495E4800F0B1F9072300934FF0C462FF
:10C8300006234FF040215A4806F0CAF95949594891
:10C84000152205F00CFC56495848182200F05BFEF2
:10C8500054495648442200F0ACFD554801F035FCDF
:10C86000554B524955484FF480721A800025534A5F
:10C870009D70C3E90155DD60DD6106F078FB474935
:10C88000504806F0DAFF4E494F4805F0A8FA4D49E6
:10C890004E4801F01CFE23464FF0050A03F8045BE6
:10C8A00018466522002122F0ECF8BAF1010A03468D
:10C8B000856680F86C5080F86D5003F17003EFD1FD
:10C8C000DFF80081414E414F424DDFF8289184F856
:10C8D0003CA20423424631463846C4E98D3A05F06D
:10C8E000DAFA3C49C5F80CA00123C5E901AA2B746A
:10C8F000C9F800A0A9F808A0CDE908713749079147
:10C900003749DFF898A0DFF8B4B006912E483449D3
:10C91000059028480090CDE90161CDE90B8ACDE969
:10C92000034B234B204A1B490A952E48FFF787FCEF
:10C9300022490D911D490991284908911C49294B0B
:10C9400021480A90CDE9064126491A48164A029024
:10C95000CDE90BB3174B0193CDE904710092104B55
:10C960000B49CDF83880524603961F48CDE90F5940
:10C9700005F0B5FD1E4A1E491C4815B0BDE8F04F34
:10C9800020F0F9BF00BF06E60200C8100020E8183A
:10C990000020E0180020CC180020C4180020BC188B
:10C9A0000020941800208C1800204018002038180F
:10C9B0000020201800200018002070140020F0171C
:10C9C0000020A41300206813002010130020301052
:10C9D00000201C10002010000020581000206013C0
:10C9E000002008130020200E002058020020000024
:10C9F0000020ED87000010100020012A02D1016004
:10CA000000207047022A05D0032AF9D0002AF7D166
:10CA10000260F5E70B780370F2E7012A02D10160AA
:10CA200000207047022A05D0032AF9D0002AF7D146
:10CA30000260F5E70B780370F2E702780123934078
:10CA40004FF0A042C2F80C357047027801239340A2
:10CA50004FF0A042C2F80835704710B5437100236B
:10CA600001600271837110BD006800F033BC1FB516
:10CA70000023CDE90033074B0393074B047902935E
:10CA80006B468DF80040FFF7EFFF6846FFF7FCFCB0
:10CA900004B010BD00BF9D8D00006D8D00001FB55E
:10CAA0000023CDE90033074B0393074B047902932E
:10CAB0006B468DF80040FFF7D7FF6846FFF7E4FCB0
:10CAC00004B010BD00BF8D8D00004D8D000007B576
:10CAD00001228DF807100DF10701FFF7E0FF03B009
:10CAE0005DF804FBF7B504461E460F462A2115469D
:10CAF0007FBAFFF7ECFF76BA042269462046ADF80C
:10CB00000070ADF80260FFF7B2FF20462B21FFF75F
:10CB1000DEFF6DBABDF82030ADF80450042204F1F8
:10CB20000C055BBA0DEB02012846ADF8063022F089
:10CB300006FF042229462046FFF799FF03B0F0BD07
:10CB400070B504460D4616462C21FFF7C0FF32464D
:10CB500029462046BDE87040FFF789BFF7B5BDF80C
:10CB60002040013C1444013B0B44A4B2DDE90967B9
:10CB700000949BB20546FFF7B5FF3A46314628467A
:10CB800003B0BDE8F040FFF7DBBF00220160027197
:10CB90004271827170477FB5B9238DF80730002349
:10CBA000CDE90233CDE90433006802AB01220DF177
:10CBB000070100F08FFB049B1BB102A9032208466A
:10CBC000984707B05DF804FB10B586B09F238DF839
:10CBD0000F3003230093002404AB01220DF10F0159
:10CBE0000068ADF810408DF8124000F07EFB049B09
:10CBF0002046DAB262F30700C3F3072262F30F2084
:10CC0000C3F3074363F3174006B010BD10B50446E5
:10CC1000FFF7DAFFC0F307232071C0F30740637109
:10CC2000A07110BD00001FB50D4B039300238DF8BC
:10CC30000B300123009304460DF10B03042203A9DA
:10CC4000006800F052FB2046FFF7BEFFC0F3072349
:10CC50002071C0F307406371A07104B010BDAB0137
:10CC600002031FB50122009205238DF80E300DF14D
:10CC70000E010DF10F03006800F037FB9DF80F0067
:10CC800005B05DF804FB08B5FFF7EBFF00F001000D
:10CC900008BD08B5FFF7E5FFC0F3400008BD1FB5AC
:10CCA000032400938DF80C400C0C49BAADF80E101B
:10CCB000134603A9042200688DF80D4000F015FB0F
:10CCC00004B010BD1FB506238DF80F30002300936C
:10CCD00001220DF10F01006800F007FB05B05DF8BF
:10CCE00004FB1FB520238DF80C300B0C49BA044609
:10CCF0008DF80D30ADF80E10FFF7E4FF2046FFF77A
:10CD0000C8FF60B1002300932068042203A900F04B
:10CD1000ECFA2046FFF7B7FF28B904B010BD012098
:10CD20001CF0BDFFEAE701201CF0B9FFF1E71FB5D9
:10CD3000012200922B238DF80E300DF10E010DF122
:10CD40000F03006800F0D1FA9DF80F0005B05DF800
:10CD500004FB08B5FFF7EBFFC0F3401008BD08B5B2
:10CD6000FFF7E5FFC0F3801008BD2DE9F04307464B
:10CD700085B00D4690461E464FF0020916B905B023
:10CD8000BDE8F08325F0FF04641B04F580742B0CD0
:10CD9000B4428DF80D3038466BBA28BF34468DF852
:10CDA0000C90ADF80E30FFF78DFF3846FFF771FF9E
:10CDB00070B1009438684346042203A900F0A1FA38
:10CDC0003846FFF760FF38B92544A044361BD5E745
:10CDD00001201CF064FFE8E701201CF060FFEFE792
:10CDE00041711168928842810022C260C0F8061029
:10CDF0000261426102767047000010B54169044645
:10CE000021B9032201201CF020FA6061617A4FF001
:10CE1000A043012202FA01F1C3F80815617A01F575
:10CE2000E071032043F82100A17A8A40C3F80C2561
:10CE3000A27A02F5E072002143F82200E27A02F5BC
:10CE4000E07243F8221063791BB1012B22D000203D
:10CE500010BD2A4B627A2360C3F808252368A27AA2
:10CE6000C3F80C252368E27AC3F81025237A002B37
:10CE7000EDD123684FF00042C3F82425A3790BB10C
:10CE8000012BE4D1E1791A460329E0D8DFE801F06B
:10CE9000070531344FF04023DCE743F002022368FA
:10CEA000C3F8542522680023C2F810312268C2F862
:10CEB00020312268C2F8183122684021C2F80413D8
:10CEC00022680220C2F8040322684FF40020C2F84E
:10CED000040322680720C2F80005094A82F80313F8
:10CEE0000821116060691A4619461CF0D2F9012028
:10CEF000AEE743F00402D2E743F00602CFE700308A
:10CF0000004000E100E037B50368D3F808551B4B3B
:10CF10001A88ADF80420027E9B788DF8063004460E
:10CF2000BAB901A928461BF098FC08B11DF0A4FA73
:10CF3000002128461BF007FD28461BF09EFD2368B4
:10CF40005A690F4BC3F81005C3F814250122C3F822
:10CF5000042523680022C3F8182123684022C3F85F
:10CF6000082323680222C3F8082323684FF4002211
:10CF7000C3F808230123237603B030BD00BF0CE6BD
:10CF8000020000F0014010B504460368D3F808051C
:10CF9000237E2BB11BF03BFD0B4B0122C3F8082570
:10CFA00022680023C2F8183122684021C2F8041315
:10CFB00022680221C2F8041322684FF40021C2F84B
:10CFC0000413237610BD00F0014070470368C3F8D6
:10CFD00044150368C3F8482502680023C2F8503599
:10CFE0000268C2F834350268C2F838350268C2F8FF
:10CFF00040350268C2F81831704737B5C3688BB145
:10D0000005698DB1FF2D28BFFF252A46C168FFF7AE
:10D01000DDFFC3682B44C36003695B1B03610368C6
:10D0200001221A6103B030BD017901238B404FF01A
:10D03000A041C1F80835C56001A9406901951CF0FF
:10D0400000FA019B002BEDD0054B4FF080525A6047
:10D0500040BFBFF34F8FBFF36F8FE3E700BF00ED1B
:10D0600000E010B504680023C4F844350468C4F82F
:10D0700048350468C4F850350468C4F834150168AC
:10D08000C1F838250268C2F840350268C2F8183184
:10D0900010BD2DE9F041069F044688461E46154600
:10D0A000002A4BD040694FF0FF311CF06CFA012E82
:10D0B00084F80480204626D1FFF725FFBB6813B112
:10D0C000FB6838469847237901274FF0A04207FABA
:10D0D00003F3C2F80C35E56026612569E168FF2D90
:10D0E00028BFFF252A462046FFF770FF23695B1BF8
:10D0F0002361E3682B44E3602368BE421F6105D0CF
:10D100000120BDE8F081FFF73EFFD7E72268D2F8A3
:10D110001831002BFBD02279012393404FF0A0421D
:10D120000025C2F808352046E560FFF72CFF60694E
:10D130002B462A4629461CF0ACF8E1E71046E0E70A
:10D14000F8B504460F4640694FF0FF3115461E46BC
:10D150001CF019FA27712046FFF715FF23684022BB
:10D16000C3F8082323680222C3F8082323684FF476
:10D170000022C3F80823237901274FF0A04207FAC1
:10D1800003F3C2F80C350023E360324623612946DD
:10D190002046FFF71BFF23681F612268D2F8183171
:10D1A000002BFBD0DDE906122046FFF75AFF23686B
:10D1B00001221A612268D2F81831002BFBD02379A2
:10D1C00001254FF0A04205FA03F3C2F80835002309
:10D1D00060691A4619461CF05CF82846F8BD002123
:10D1E0000368D3F8002592B9427A4FF0A04302F5C4
:10D1F000E072022143F82210827A02F5E07243F8CD
:10D200002210C27A02F5E07243F822107047C3F888
:10D210000015E5E7FFF7F1BDF8B504460F46406994
:10D220004FF0FF3115461E461CF0ADF92771204620
:10D23000FFF7A9FE23684022C3F8082323680222CF
:10D24000C3F8082323684FF40022C3F80823237986
:10D2500001274FF0A04207FA03F3C2F80C35002370
:10D26000E3603246236129462046FFF7AFFE23687C
:10D270001F612268D2F81831002BFBD0DDE90612BD
:10D280002046FFF7A3FE236801221A612268D2F824
:10D290001831002BFBD0237901254FF0A04205FA6D
:10D2A00003F3C2F80835002360691A4619461BF0DB
:10D2B000F0FF2846F8BD10B5016002F5E0734FF0AD
:10D2C000A0410324027141F8234001239340C1F897
:10D2D000083510BD07B5009313460A46017900686A
:10D2E000FFF7D7FE03B05DF804FB13B5049CCDE94E
:10D2F000003413460A4601790068FFF721FF02B0A7
:10D3000010BD13B5049CCDE9003413460A460179DB
:10D310000068FFF781FF02B010BD10B5C9031B4CB8
:10D320001A430139C4F80C25C4F80415D4F808359B
:10D330004FF0804243F00103C4F80835D2F80034BE
:10D340004FF0FF31C2F80014DA0712D49C0712D450
:10D35000590712D41A0712D4DC0312D4990312D439
:10D360005A0312D413F4002F14BF072308230360B9
:10D3700010BD0023FBE70123F9E70223F7E70323AE
:10D38000F5E70423F3E70523F1E70623EFE70000C1
:10D390000140014B01221A60704700000140024B1E
:10D3A000034AC3F80026704700BF0000014035461D
:10D3B000526E0160027170477FB5082200920179B8
:10D3C000006804AB05F023FD9DF817209DF81110AF
:10D3D0009DF810009DF8153002F00F0242EA01227C
:10D3E000C0009DF8121040EAC3209DF816300901D4
:10D3F000C9B203F0070303430A43002062F30F009E
:10D400009BB263F31F4007B05DF804FB1FB5012317
:10D4100000938DF80F200DF10F030A460179006883
:10D4200005F023FD05B05DF804FB1FB50123009353
:10D430000A460DF10F030179006805F0E8FC9DF83C
:10D440000F0005B05DF804FB10B501210446FFF79D
:10D45000ECFF60F07F02D2B220460121FFF7D6FF39
:10D4600020462F22BDE810400C21FFF7CFBF10B59A
:10D4700001210446FFF7D9FF012100F07F02204679
:10D48000FFF7C4FF20460022BDE810400C21FFF743
:10D49000BDBF38B54FF0A0430025C3F87857044608
:10D4A000FFF7E5FF64201CF0FAFB20465022012123
:10D4B000FFF7ACFF20462F220C21FFF7A7FF2046E5
:10D4C00077221621FFF7A2FF2A4620461721BDE842
:10D4D0003840FFF79BBF20B1034B800143F00103AD
:10D4E0001847704700BF20E6020038B5054D0446D6
:10D4F00045F001054FF47A40A847013CFAD138BD08
:10D5000000BF20E6020002710022C0E910228287DB
:10D5100080F83E2082640122016002740549427550
:10D52000054A816202630449C1621022C06082839D
:10D530007047A798000029980000D198000007B50F
:10D54000009313460A460179006805F060FC03B0B9
:10D550005DF804FB10B50446184613460A462146FA
:10D56000FFF7EDFF002010BD07B5009313460A46F4
:10D570000179006805F079FC03B05DF804FB10B593
:10D580000446184613460A462146FFF7EDFF0020E1
:10D5900010BD2DE9FF4191F83C3004460D464BB9D2
:10D5A0004A6C01324A64C4E90033A360204604B0E7
:10D5B000BDE8F08101F10808414602A800F01CFB1B
:10D5C00020B1AB6C0133AB640023ECE795F83B2052
:10D5D000BDF90860BDF90A70BDF90C500D4B019002
:10D5E000414601A833F91230B602BF0296FBF3F6AA
:10D5F00097FBF3F736B23FB2AD0295FBF3F500F0BF
:10D6000047FD2DB2019B2360A780E6802581CDE7F1
:10D6100000BF10E60200083000F011BD38B500234D
:10D6200000F10805044680F83D30284600F016FC5D
:10D6300030B9012084F83D00BDE83840FFF755BF00
:10D640000A20FFF752FF284600F008FC0028F0D01F
:10D6500038BD38B5002380F83C30036C01330364D7
:10D6600090F83D30044633B104F10805284600F037
:10D6700007FC38B138BDFFF7D1FF94F83D30002BDF
:10D68000F2D1F7E7237A112B04D0132B31D084F891
:10D690003E00EFE7012384F83E30284600F005FC09
:10D6A0000028E7D12946012000F0C0FB0028E1D185
:10D6B00001212A46084600F01CFC0028DAD1294640
:10D6C00000F08FFC0028D5D12946012000F089FB0D
:10D6D0000028CFD120464FF4027340F8383F294646
:10D6E00000F026FA0028C5D1012384F83C302064DC
:10D6F000C0E70223CFE790F83E00704748B1036AC5
:10D700003BB1436A2BB14068B0FA80F04009404217
:10D7100070474FF0FF30704770B5054618461C46FD
:10D72000FFF7ECFFB8B9B1B1237A0BB905F07F056B
:10D730002846666A6368B0470546607270B994F817
:10D740002E20A36A6168012A0CBF02204FF4E17009
:10D750009847284670BD4FF0FF35FAE76FF0010596
:10D76000F7E72DE9F84F834600AF1846884615467F
:10D770001C46FFF7C3FF40BB39B3E27A2A44D31DEE
:10D7800023F00703E946ADEB030D237AEA460BB914
:10D790004BF0800B266A636851465846B04760726A
:10D7A00088B16FF00100CD46BD46BDE8F88FE17A43
:10D7B0000AEB0306715C08F8031093B29D4202F174
:10D7C0000102F4D8EFE70246F7E74FF0FF30EBE74E
:10D7D00013B5002304468DF806308DF80730FFF7A7
:10D7E0008DFF48B9234601220DF106015B20FFF7AA
:10D7F000B8FF18B16FF0010002B010BD234601223E
:10D800000DF107015C20FFF7ACFF0028F2D19DF875
:10D8100006209DF8073002F00F0242EA0312A38AA5
:10D8200002EB530202F00F0312098DF806308DF857
:10D830000720234601220DF106015B20FFF76CFF54
:10D840000028D9D1234601220DF107015C20FFF702
:10D8500063FFD1E710B50446FFF750FF80B92346B8
:10D86000012204F117015B20FFF756FF40B9234660
:10D8700004F118010122BDE810405C20FFF74CBF05
:10D8800010BD13B50023044608468DF80730FFF796
:10D8900035FF78B974B10B4601220DF107017C20E8
:10D8A00000F00BF820B99DF8073003F00103237056
:10D8B00002B010BD4FF0FF30FAE72DE9F74F1D46DB
:10D8C0000746002328468DF80730FFF717FF0E465E
:10D8D00014468146002874D1002972D05E2F69D188
:10D8E00029460DF10700FFF7CCFF9DF80780B8F13E
:10D8F000010F074609D12946484600F068F8AB6A8F
:10D90000696807464FF4E170984714F001095BD14C
:10D91000AB7DA34258D3002F56D1AF8AA74242D243
:10D92000B4FBF7FA2846FFF795FF07FB1A47CB46EB
:10D9300004465FFA89F39A4520D847B1D4B92B46FB
:10D940003A4606EB0B015E20FFF70BFF04468CB94D
:10D950002846FFF77FFF044660B9B8F1010F09D1EF
:10D960002946404600F033F8AB6A696804464FF434
:10D97000E1709847204603B0BDE8F08FAA8A2B4695
:10D9800006EB0B015E20FFF7ECFE044640B928468B
:10D99000FFF71EFF044618B9AB8A5B441FFA83FBEE
:10D9A00009F10109C5E72B46224631465E20FFF703
:10D9B000D8FED0E72B46384603B0BDE8F04FFFF75E
:10D9C000D0BE4FF0FF34D5E76FF00904D2E737B58A
:10D9D0000023054608460C468DF80730FFF78EFEFB
:10D9E000C0B90B4601220DF107017C20FFF765FF4E
:10D9F00080B99DF8073005F0010523F0010343EAE3
:10DA000005008DF80700234601220DF107017C2057
:10DA100000F002F803B030BD2DE9F04F1C4685B090
:10DA20000746002320460E4615468DF80F30FFF7B7
:10DA300065FE002876D1002974D05E2F6BD1214677
:10DA40000DF10F00FFF71DFF9DF80FA0BAF1010FB8
:10DA5000074609D140B92146FFF7B9FFA36A6168BB
:10DA600007464FF4E170984715F001095DD1A37D99
:10DA7000AB425AD3002F58D1B4F814B0AB4543D2BF
:10DA80002046FFF7E7FE034628BBB5FBFBF7C84679
:10DA90005FFA89F2974222D80BFB17523AB1D3B9F9
:10DAA000234606EB08015E20FFF736FE034693B9D6
:10DAB0002046FFF7CFFE034668B9BAF1010F0AD13D
:10DAC00021465046FFF783FFA26A019061684FF438
:10DAD000E1709047019B184605B0BDE8F08F2346E2
:10DAE000A28A06EB08015E20FFF716FE034640B946
:10DAF0002046FFF76DFE034618B9A28A42441FFA7A
