:020000040000FA
:108000003DB8F39600000000200000001CAA02000A
:10801000000000000100000000000000000000005F
:1080200000000120094802003148020033480200E4
:1080300035480200374802003948020000000000BD
:1080400000000000000000000000000089E50000C2
:108050003D48020000000000A9E500004148020080
:108060005D4A02003589000043480200D5880000BF
:108070004348020043480200F54D0200854F0200CC
:108080004348020043480200434802004D89000073
:10809000434802004189000043480200434802006F
:1080A0005989000009E600004348020043480200E5
:1080B000434802004348020043480200434802008C
:1080C000434802004348020043480200434802007C
:1080D0004348020043480200000000000000000086
:1080E000434802004348020043480200434802005C
:1080F00043480200434802004348020000000000D9
:10810000000000000000000000000000000000006F
:10811000000000000000000000000000000000005F
:10812000000000000000000000000000000000004F
:10813000000000000000000000000000000000003F
:10814000000000000000000000000000000000002F
:10815000000000000000000000000000000000001F
:10816000000000000000000000000000000000000F
:1081700000000000000000000000000000000000FF
:1081800000000000000000000000000000000000EF
:1081900000000000000000000000000000000000DF
:1081A00000000000000000000000000000000000CF
:1081B00000000000000000000000000000000000BF
:1081C00000000000000000000000000000000000AF
:1081D000000000000000000000000000000000009F
:1081E000000000000000000000000000000000008F
:1081F000000000000000000000000000000000007F
:10820000000000000000000000000000000000006E
:10821000000000000000000000000000000000005E
:108220000348044B834202D0034B03B11847704705
:108230000002002000020020000000000548064B5C
:108240001B1AD90F01EBA301491002D0034B03B154
:1082500018477047000200200002002000000000C4
:1082600010B5064C237843B9FFF7DAFF044B13B17E
:108270000448AFF300800123237010BD00020020EA
:1082800000000000B827030008B5054B1BB10549E5
:108290000548AFF30080BDE80840FFF7CFBF00BF3F
:1082A0000000000004020020B8270300A3F5803A74
:1082B000704700BF174B002B08BF134B9D46FFF7BD
:1082C000F5FF00218B460F461348144A121A22F07C
:1082D00081FD0E4B002B00D098470D4B002B00D09A
:1082E00098470020002104000D000D48002802D00E
:1082F0000C48AFF3008023F03FFC2000290000F081
:1083000091FB22F0E7FB00BF000008000000000026
:10831000000000000000012000020020A04A002010
:10832000000000000000000000F02EB8084600F039
:108330002BB800F0ABB800F0CFB8000010B5104B70
:108340001A461B688342FBD354681119884201BF47
:108350004168104609195160446801198B420DD1DA
:10836000084909688B4204D05B6823444360136862
:1083700019680160904218BF106010BD1946F8E7F7
:10838000300200202C0200202DE9F04104461DF0AF
:1083900031FD3549354D0B68F3B9354B354A364813
:1083A000D21A0260580718BF0733344A18BF23F0A7
:1083B0000703002013605060314A22F00702C2E92F
:1083C0000000D01AC3E900202E4B0A6018602E4B23
:1083D00018604FF000432B602F68274207D01DF034
:1083E0009BFD00F031FA00263046BDE8F081002CFC
:1083F000F5D004F1080362071CBF23F0070308331C
:10840000002BECD0DFF88080D8F800509D42E6D3F6
:108410001A4A14686068984201D2206800BB096853
:10842000A142DCD02168166811606268D21A102A55
:1084300006F1080604D9E01842606360FFF77EFF8A
:10844000104962680868AD1A1743002385426760C7
:108450002360C8F8005038BF0D601DF05DFDC3E714
:1084600022460446D6E700BF2C020020200200204E
:10847000B04A002000FC00201C0200203002002036
:10848000F8FB0020240200202802002010B504463A
:10849000E0B10F4A50F8043C1268134216D050F86D
:1084A000081C99B923EA020340F8043C1DF0A2FC21
:1084B000084A54F8043C1168A4F108000B44136006
:1084C000FFF73CFFBDE810401DF026BD10BD00BF0A
:1084D00020020020280200202DE9F04105460C462C
:1084E00001B308461DB9BDE8F041FFF74DBF0E4B83
:1084F00055F8046CD3F8008016EA080FF3D0FFF7A4
:1085000043FF074658B126EA0802083AA24228BFAC
:108510002246294623F0BCFB2846FFF7B7FF384622
:10852000BDE8F0810F46FAE720020020014B987861
:10853000704700BF38020020014B5878704700BFD9
:1085400038020020034B1868B0F5803F34BF00208C
:1085500001207047380200200A4B07B51860024618
:10856000FFF7E4FF0146FFF7E7FFD2B2CDE90002D3
:108570000B46054A05480C2122F0BEFA03B05DF80F
:1085800004FB00BF38020020BCDB02000400002016
:10859000009A41608260704713B5002204460121B1
:1085A0000A201CF0FBFF0023E06009490093094802
:1085B000019423464FF400721DF016FB012805D0EC
:1085C000042002B0BDE810401EF0FFB802B010BD9C
:1085D000C8DB0200498700002DE9F0418CB000247F
:1085E00005460B460094104940F2A55205A806F036
:1085F00021FE05F110064FF4F07801274FF4F072D8
:10860000314605A806F020FECDE901680097A2B228
:108610006868F0230021013400F049FCF02CEDD112
:108620000CB0BDE8F08100BF57E002004FF6FF71CB
:10863000FFF7D2BF2DE9F04300F1100707EE101A43
:1086400085B0064600F5F8713B46994229D1DFED29
:10865000167AB8EE477ADC2527EE277ADFED137A13
:10866000B4EEE77AF1EE10FAD8BFF0EE477AFCEEFE
:10867000E77A4FF0010817EE903A9CB24FEA4409AE
:10868000CDE90179CDF800802A460135706823468E
:108690000021ADB200F00BFCF02DF1D105B0BDE82A
:1086A000F08303F8012BD0E79A991940000070433A
:1086B0001FB50446C822C0680DF10F011DF092F8E5
:1086C00028B19DF80F30032B26D00B2B30D0A36898
:1086D0009A78FAB1D3ED026A93ED017ADB68022B46
:1086E00029D0032B2BD0012B14D1B8EE477AF8EE0A
:1086F000666A4FF6FF72C6EE877A9FED127A67EED2
:10870000877AFCEEE77ACDED017A9DF804102046D9
:10871000FFF790FF04B010BDA06801F075FF20B115
:10872000FF212046FFF758FFD1E74FF6FF71F8E72A
:108730004FF4FC61F5E74EF207026421E7E7FF2200
:10874000FBE700BF0000C84210B50446FFF76EFF0C
:108750002046FFF7ADFFFBE71FB500238DF807109C
:10876000C068039303AA0DF107011CF0E2FF039B0D
:1087700043B1064B4FF080525A6040BFBFF34F8F5A
:10878000BFF36F8F05B05DF804FB00BF00ED00E0A4
:1087900070477047704770470148092106F092BB47
:1087A0005802002007B5002300931A4603211DF04C
:1087B000CFFE0348122103B05DF804EB06F082BB44
:1087C000580200200246034652F8080B904203D09C
:1087D0009968013121F07DBA704710B5836804466D
:1087E00013B1032201469847204610BD10B5044638
:1087F00000F5F860FFF7E6FF04F5F560FFF7E2FF2C
:1088000004F5F260FFF7DEFF04F5B860FFF7DAFF6A
:1088100004F5B560FFF7D6FF04F5B260FFF7D2FFAD
:10882000074BC4F87C3304F56770FFF7D6FF054BA0
:10883000C4F8E43204F53E70FFF7CFFF204610BDC8
:10884000D8160300C4160300024A136801331360EC
:10885000704700BF50020020024A136801331360C2
:10886000704700BF4C02002030B51C2885B006D1EF
:108870001448082105B0BDE8304006F023BB0024B1
:108880001328039419D1032915D10F4B1D681DF02E
:10889000BFFA03AB02460094062128461DF058FE9D
:1088A000039B43B1094B4FF080525A6040BFBFF366
:1088B0004F8FBFF36F8F05B030BD0D28FBD1044B38
:1088C000E4E700BF580200203018002000ED00E06F
:1088D0003418002010B5154CD4F80433580609D5C7
:1088E000D4F81831012B05D100231148C4F81831F0
:1088F00000F02CFDD4F80433190309D5D4F84C3119
:10890000012B05D100230A48C4F84C3100F006FDC4
:10891000064BD3F80423920706D5D3F80421012A85
:1089200004BF0022C3F8042110BD00BF0030004086
:10893000E8180020014B1B68184700BF48020020C0
:10894000014B1B68184700BF44020020014B1B6805
:10895000184700BF40020020054B002282B0C3F838
:108960000021D3F800310193019B02B0704700BF92
:10897000000001400B2808D00D2804D0012801D1A7
:10898000034B19607047034BFBE7034BF9E700BF4C
:10899000480200204402002040020020EFF3108033
:1089A00072B600F00100704700B962B6704700006F
:1089B000004870473C02002010B5044C4FF0FF31D6
:1089C000204607F073FA43689847F7E73C02002017
:1089D00008B5FFF7F1FF000008B5002204212020B0
:1089E0001CF0DCFD0C4B186019F088FB07F0E8FD6B
:1089F00011F0EEF90021052019F004FA4FF40040BF
:108A000018F04EFC11F0CEFD11F086FABDE80840DA
:108A1000024807F01DBA00BF3C020020D1890000C7
:108A200011F028BD73B54FF080440123C4F87835A8
:108A30001BF028FF00201BF03DFF1BF0C1FFD4F806
:108A40001834DB03FBD54FF0A04540F203632A4EF8
:108A5000C5F81C378023C5F80835102446F00106F8
:108A6000D5F80435DA4302F0800203F08003C5F83C
:108A700008254FF4A070C5F80C35013CB04714F040
:108A8000FF04EDD10223C5F81C371C4B009322468E
:108A900023460A211A481B4D1B4E1DF03FFD1B4B60
:108AA00018601B4B009322462346C82119481DF02D
:108AB00035FD194B1860194BD3F84005FFF74CFDF5
:108AC0002B68B34210D1164B1648D3E9002301F0AE
:108AD00055FE154805F0FAFEFFF77EFF1DF05CF924
:108AE0000F201DF072FEFBE71048114A2146121AB2
:108AF00022F070F92E60ECE700E602009987000092
:108B0000D3DB0200A84A00200000ADDE34180020AC
:108B1000A5870000E1DB02003018002000A0004023
:108B2000A04A00201013002058020020A04A002074
:108B3000AC4A00202DE9F04F674B684C18689B88C1
:108B400095B012AA129000216548ADF84C3000F0A3
:108B5000F0FA63496348192200F056FD1A2361496F
:108B60006148122200F022F905225D495F4800F0B9
:108B70004BFD5E495E4800F0B1F9072300934FF0CA
:108B8000C46206234FF040215A4806F0CAF95949F9
:108B90005948152205F00CFC56495848182200F097
:108BA0005BFE54495648442200F0ACFD554801F0A4
:108BB00035FC554B524955484FF480721A800025B8
:108BC000534A9D70C3E90155DD60DD6106F078FB15
:108BD0004749504806F0DAFF4E494F4805F0A8FAD9
:108BE0004D494E4801F01CFE23464FF0050A03F89C
:108BF000045B18466522002122F0ECF8BAF1010A64
:108C00000346856680F86C5080F86D5003F1700360
:108C1000EFD1DFF80081414E414F424DDFF82891FE
:108C200084F83CA20423424631463846C4E98D3AD2
:108C300005F0DAFA3C49C5F80CA00123C5E901AA00
:108C40002B74C9F800A0A9F808A0CDE9087137492C
:108C500007913749DFF898A0DFF8B4B006912E48A5
:108C60003449059028480090CDE90161CDE90B8A8F
:108C7000CDE9034B234B204A1B490A952E48FFF7A9
:108C800087FC22490D911D490991284908911C49E9
:108C9000294B21480A90CDE9064126491A48164A2F
:108CA0000290CDE90BB3174B0193CDE9047100920B
:108CB000104B0B49CDF83880524603961F48CDE93A
:108CC0000F5905F0B5FD1E4A1E491C4815B0BDE8F8
:108CD000F04F20F0F9BF00BF06E60200C8100020E8
:108CE000E8180020E0180020CC180020C41800204C
:108CF000BC180020941800208C1800204018002078
:108D000038180020201800200018002070140020BF
:108D1000F0170020A4130020681300201013002077
:108D2000301000201C1000201000002058100020DF
:108D30006013002008130020200E0020580200209D
:108D400000000020ED87000010100020012A02D151
:108D5000016000207047022A05D0032AF9D0002ABA
:108D6000F7D10260F5E70B780370F2E7012A02D130
:108D7000016000207047022A05D0032AF9D0002A9A
:108D8000F7D10260F5E70B780370F2E70278012370
:108D900093404FF0A042C2F80C357047027801238F
:108DA00093404FF0A042C2F80835704710B54371A8
:108DB000002301600271837110BD006800F033BCB4
:108DC0001FB50023CDE90033074B0393074B04790C
:108DD00002936B468DF80040FFF7EFFF6846FFF700
:108DE000FCFC04B010BD00BF9D8D00006D8D000027
:108DF0001FB50023CDE90033074B0393074B0479DC
:108E000002936B468DF80040FFF7D7FF6846FFF7E7
:108E1000E4FC04B010BD00BF8D8D00004D8D00003E
:108E200007B501228DF807100DF10701FFF7E0FFEC
:108E300003B05DF804FBF7B504461E460F462A2131
:108E400015467FBAFFF7ECFF76BA04226946204642
:108E5000ADF80070ADF80260FFF7B2FF20462B219D
:108E6000FFF7DEFF6DBABDF82030ADF804500422E4
:108E700004F10C055BBA0DEB02012846ADF8063093
:108E800022F006FF042229462046FFF799FF03B08F
:108E9000F0BD70B504460D4616462C21FFF7C0FF05
:108EA000324629462046BDE87040FFF789BFF7B536
:108EB000BDF82040013C1444013B0B44A4B2DDE961
:108EC000096700949BB20546FFF7B5FF3A46314665
:108ED000284603B0BDE8F040FFF7DBBF0022016089
:108EE00002714271827170477FB5B9238DF80730E6
:108EF0000023CDE90233CDE90433006802AB01223F
:108F00000DF1070100F08FFB049B1BB102A90322A6
:108F10000846984707B05DF804FB10B586B09F235C
:108F20008DF80F3003230093002404AB01220DF1D0
:108F30000F010068ADF810408DF8124000F07EFB84
:108F4000049B2046DAB262F30700C3F3072262F300
:108F50000F20C3F3074363F3174006B010BD10B5ED
:108F60000446FFF7DAFFC0F307232071C0F3074080
:108F70006371A07110BD00001FB50D4B039300235A
:108F80008DF80B300123009304460DF10B030422EE
:108F900003A9006800F052FB2046FFF7BEFFC0F3B4
:108FA00007232071C0F307406371A07104B010BDA6
:108FB000AB0102031FB50122009205238DF80E308C
:108FC0000DF10E010DF10F03006800F037FB9DF865
:108FD0000F0005B05DF804FB08B5FFF7EBFF00F0EC
:108FE000010008BD08B5FFF7E5FFC0F3400008BD6C
:108FF0001FB5032400938DF80C400C0C49BAADF852
:109000000E10134603A9042200688DF80D4000F0ED
:1090100015FB04B010BD1FB506238DF80F300023DB
:10902000009301220DF10F01006800F007FB05B06D
:109030005DF804FB1FB520238DF80C300B0C49BAEA
:1090400004468DF80D30ADF80E10FFF7E4FF204612
:10905000FFF7C8FF60B1002300932068042203A932
:1090600000F0ECFA2046FFF7B7FF28B904B010BDB6
:1090700001201CF0BDFFEAE701201CF0B9FFF1E779
:109080001FB5012200922B238DF80E300DF10E0139
:109090000DF10F03006800F0D1FA9DF80F0005B044
:1090A0005DF804FB08B5FFF7EBFFC0F3401008BD07
:1090B00008B5FFF7E5FFC0F3801008BD2DE9F043C8
:1090C000074685B00D4690461E464FF0020916B978
:1090D00005B0BDE8F08325F0FF04641B04F580743F
:1090E0002B0CB4428DF80D3038466BBA28BF34468D
:1090F0008DF80C90ADF80E30FFF78DFF3846FFF776
:1091000071FF70B1009438684346042203A900F04F
:10911000A1FA3846FFF760FF38B92544A044361B52
:10912000D5E701201CF064FFE8E701201CF060FF98
:10913000EFE741711168928842810022C260C0F855
:1091400006100261426102767047000010B5416965
:10915000044621B9032201201CF020FA6061617AE3
:109160004FF0A043012202FA01F1C3F80815617A19
:1091700001F5E071032043F82100A17A8A40C3F889
:109180000C25A27A02F5E072002143F82200E27A6F
:1091900002F5E07243F8221063791BB1012B22D053
:1091A000002010BD2A4B627A2360C3F8082523688B
:1091B000A27AC3F80C252368E27AC3F81025237A33
:1091C000002BEDD123684FF00042C3F82425A3798A
:1091D0000BB1012BE4D1E1791A460329E0D8DFE88D
:1091E00001F0070531344FF04023DCE743F0020281
:1091F0002368C3F8542522680023C2F8103122687E
:10920000C2F820312268C2F8183122684021C2F821
:10921000041322680220C2F8040322684FF40020DD
:10922000C2F8040322680720C2F80005094A82F840
:1092300003130821116060691A4619461CF0D2F91F
:109240000120AEE743F00402D2E743F00602CFE785
:109250000030004000E100E037B50368D3F808555E
:109260001B4B1A88ADF80420027E9B788DF80630DF
:109270000446BAB901A928461BF098FC08B11DF0B4
:10928000A4FA002128461BF007FD28461BF09EFD8E
:1092900023685A690F4BC3F81005C3F8142501223F
:1092A000C3F8042523680022C3F81821236840224C
:1092B000C3F8082323680222C3F8082323684FF465
:1092C0000022C3F808230123237603B030BD00BF7A
:1092D0000CE6020000F0014010B504460368D3F824
:1092E0000805237E2BB11BF03BFD0B4B0122C3F87D
:1092F000082522680023C2F8183122684021C2F8EC
:10930000041322680221C2F8041322684FF40021DA
:10931000C2F80413237610BD00F0014070470368C3
:10932000C3F844150368C3F8482502680023C2F84F
:1093300050350268C2F834350268C2F83835026820
:10934000C2F840350268C2F81831704737B5C368B3
:109350008BB105698DB1FF2D28BFFF252A46C16855
:10936000FFF7DDFFC3682B44C36003695B1B036128
:10937000036801221A6103B030BD017901238B40DB
:109380004FF0A041C1F80835C56001A940690195B9
:109390001CF000FA019B002BEDD0054B4FF08052E2
:1093A0005A6040BFBFF34F8FBFF36F8FE3E700BF3B
:1093B00000ED00E010B504680023C4F844350468EB
:1093C000C4F848350468C4F850350468C4F8341546
:1093D0000168C1F838250268C2F840350268C2F851
:1093E000183110BD2DE9F041069F044688461E46FF
:1093F0001546002A4BD040694FF0FF311CF06CFA43
:10940000012E84F80480204626D1FFF725FFBB6893
:1094100013B1FB6838469847237901274FF0A042E3
:1094200007FA03F3C2F80C35E56026612569E168A7
:10943000FF2D28BFFF252A462046FFF770FF23692E
:109440005B1B2361E3682B44E3602368BE421F611A
:1094500005D00120BDE8F081FFF73EFFD7E7226885
:10946000D2F81831002BFBD02279012393404FF022
:10947000A0420025C2F808352046E560FFF72CFF22
:1094800060692B462A4629461CF0ACF8E1E71046F5
:10949000E0E7F8B504460F4640694FF0FF31154646
:1094A0001E461CF019FA27712046FFF715FF2368A6
:1094B0004022C3F8082323680222C3F80823236844
:1094C0004FF40022C3F80823237901274FF0A0426C
:1094D00007FA03F3C2F80C350023E3603246236138
:1094E00029462046FFF71BFF23681F612268D2F838
:1094F0001831002BFBD0DDE906122046FFF75AFF9A
:10950000236801221A612268D2F81831002BFBD09F
:10951000237901254FF0A04205FA03F3C2F808357C
:10952000002360691A4619461CF05CF82846F8BD0D
:1095300000210368D3F8002592B9427A4FF0A04386
:1095400002F5E072022143F82210827A02F5E072FD
:1095500043F82210C27A02F5E07243F822107047F5
:10956000C3F80015E5E7FFF7F1BDF8B504460F466F
:1095700040694FF0FF3115461E461CF0ADF92771CA
:109580002046FFF7A9FE23684022C3F8082323687A
:109590000222C3F8082323684FF40022C3F80823EB
:1095A000237901274FF0A04207FA03F3C2F80C35E4
:1095B0000023E3603246236129462046FFF7AFFED1
:1095C00023681F612268D2F81831002BFBD0DDE937
:1095D00006122046FFF7A3FE236801221A612268C3
:1095E000D2F81831002BFBD0237901254FF0A0428F
:1095F00005FA03F3C2F80835002360691A461946D4
:109600001BF0F0FF2846F8BD10B5016002F5E073CD
:109610004FF0A0410324027141F8234001239340FD
:10962000C1F8083510BD07B5009313460A46017905
:109630000068FFF7D7FE03B05DF804FB13B5049C88
:10964000CDE9003413460A4601790068FFF721FF8F
:1096500002B010BD13B5049CCDE9003413460A4690
:1096600001790068FFF781FF02B010BD10B5C90392
:109670001B4C1A430139C4F80C25C4F80415D4F85E
:1096800008354FF0804243F00103C4F80835D2F8A2
:1096900000344FF0FF31C2F80014DA0712D49C07EF
:1096A00012D4590712D41A0712D4DC0312D4990326
:1096B00012D45A0312D413F4002F14BF0723082323
:1096C000036010BD0023FBE70123F9E70223F7E75E
:1096D0000323F5E70423F3E70523F1E70623EFE788
:1096E00000000140014B01221A6070470000014058
:1096F000024B034AC3F80026704700BF0000014038
:109700003546526E0160027170477FB508220092A3
:109710000179006804AB05F023FD9DF817209DF842
:1097200011109DF810009DF8153002F00F0242EA6A
:109730000122C0009DF8121040EAC3209DF81630A7
:109740000901C9B203F0070303430A43002062F38F
:109750000F009BB263F31F4007B05DF804FB1FB519
:10976000012300938DF80F200DF10F030A460179B4
:10977000006805F023FD05B05DF804FB1FB501236B
:1097800000930A460DF10F030179006805F0E8FC2B
:109790009DF80F0005B05DF804FB10B501210446EB
:1097A000FFF7ECFF60F07F02D2B220460121FFF705
:1097B000D6FF20462F22BDE810400C21FFF7CFBF77
:1097C00010B501210446FFF7D9FF012100F07F0207
:1097D0002046FFF7C4FF20460022BDE810400C21C0
:1097E000FFF7BDBF38B54FF0A0430025C3F8785749
:1097F0000446FFF7E5FF64201CF0FAFB20465022E8
:109800000121FFF7ACFF20462F220C21FFF7A7FF15
:10981000204677221621FFF7A2FF2A46204617216D
:10982000BDE83840FFF79BBF20B1034B800143F0F8
:1098300001031847704700BF20E6020038B5054D08
:10984000044645F001054FF47A40A847013CFAD19F
:1098500038BD00BF20E6020002710022C0E91022DC
:10986000828780F83E2082640122016002740549EB
:109870004275054A816202630449C1621022C060D8
:1098800082837047A798000029980000D1980000B3
:1098900007B5009313460A460179006805F060FC9D
:1098A00003B05DF804FB10B50446184613460A469B
:1098B0002146FFF7EDFF002010BD07B500931346CA
:1098C0000A460179006805F079FC03B05DF804FBF5
:1098D00010B50446184613460A462146FFF7EDFF29
:1098E000002010BD2DE9FF4191F83C3004460D46A3
:1098F0004BB94A6C01324A64C4E90033A360204684
:1099000004B0BDE8F08101F10808414602A800F06A
:109910001CFB20B1AB6C0133AB640023ECE795F882
:109920003B20BDF90860BDF90A70BDF90C500D4B24
:109930000190414601A833F91230B602BF0296FBEE
:10994000F3F697FBF3F736B23FB2AD0295FBF3F5B2
:1099500000F047FD2DB2019B2360A780E6802581A2
:10996000CDE700BF10E60200083000F011BD38B5A9
:10997000002300F10805044680F83D30284600F039
:1099800016FC30B9012084F83D00BDE83840FFF7EF
:1099900055BF0A20FFF752FF284600F008FC0028B8
:1099A000F0D038BD38B5002380F83C30036C01336B
:1099B000036490F83D30044633B104F108052846AD
:1099C00000F007FC38B138BDFFF7D1FF94F83D3007
:1099D000002BF2D1F7E7237A112B04D0132B31D0CF
:1099E00084F83E00EFE7012384F83E30284600F07B
:1099F00005FC0028E7D12946012000F0C0FB002823
:109A0000E1D101212A46084600F01CFC0028DAD1E9
:109A1000294600F08FFC0028D5D12946012000F00E
:109A200089FB0028CFD120464FF4027340F8383F1D
:109A3000294600F026FA0028C5D1012384F83C30DD
:109A40002064C0E70223CFE790F83E00704748B19A
:109A5000036A3BB1436A2BB14068B0FA80F0400919
:109A6000404270474FF0FF30704770B505461846CA
:109A70001C46FFF7ECFFB8B9B1B1237A0BB905F07A
:109A80007F052846666A6368B0470546607270B90C
:109A900094F82E20A36A6168012A0CBF02204FF4BB
:109AA000E1709847284670BD4FF0FF35FAE76FF038
:109AB0000105F7E72DE9F84F834600AF18468846C1
:109AC00015461C46FFF7C3FF40BB39B3E27A2A4470
:109AD000D31D23F00703E946ADEB030D237AEA46D5
:109AE0000BB94BF0800B266A636851465846B04765
:109AF000607288B16FF00100CD46BD46BDE8F88FB9
:109B0000E17A0AEB0306715C08F8031093B29D42F8
:109B100002F10102F4D8EFE70246F7E74FF0FF3019
:109B2000EBE713B5002304468DF806308DF80730B7
:109B3000FFF78DFF48B9234601220DF106015B2096
:109B4000FFF7B8FF18B16FF0010002B010BD234657
:109B500001220DF107015C20FFF7ACFF0028F2D1D4
:109B60009DF806209DF8073002F00F0242EA03122A
:109B7000A38A02EB530202F00F0312098DF806309C
:109B80008DF80720234601220DF106015B20FFF727
:109B90006CFF0028D9D1234601220DF107015C207A
:109BA000FFF763FFD1E710B50446FFF750FF80B918
:109BB0002346012204F117015B20FFF756FF40B94D
:109BC000234604F118010122BDE810405C20FFF794
:109BD0004CBF10BD13B50023044608468DF807306E
:109BE000FFF735FF78B974B10B4601220DF107017B
:109BF0007C2000F00BF820B99DF8073003F001033A
:109C0000237002B010BD4FF0FF30FAE72DE9F74F97
:109C10001D460746002328468DF80730FFF717FF3B
:109C20000E4614468146002874D1002972D05E2F5A
:109C300069D129460DF10700FFF7CCFF9DF8078099
:109C4000B8F1010F074609D12946484600F068F8E7
:109C5000AB6A696807464FF4E170984714F0010950
:109C60005BD1AB7DA34258D3002F56D1AF8AA74218
:109C700042D2B4FBF7FA2846FFF795FF07FB1A47D5
:109C8000CB4604465FFA89F39A4520D847B1D4B948
:109C90002B463A4606EB0B015E20FFF70BFF04460E
:109CA0008CB92846FFF77FFF044660B9B8F1010F71
:109CB00009D12946404600F033F8AB6A696804468A
:109CC0004FF4E1709847204603B0BDE8F08FAA8AB0
:109CD0002B4606EB0B015E20FFF7ECFE044640B975
:109CE0002846FFF71EFF044618B9AB8A5B441FFAEB
:109CF00083FB09F10109C5E72B46224631465E2068
:109D0000FFF7D8FED0E72B46384603B0BDE8F04F4A
:109D1000FFF7D0BE4FF0FF34D5E76FF00904D2E76C
:109D200037B50023054608460C468DF80730FFF787
:109D30008EFEC0B90B4601220DF107017C20FFF712
:109D400065FF80B99DF8073005F0010523F0010398
:109D500043EA05008DF80700234601220DF10701B3
:109D60007C2000F002F803B030BD2DE9F04F1C4616
:109D700085B00746002320460E4615468DF80F3065
:109D8000FFF765FE002876D1002974D05E2F6BD1D5
:109D900021460DF10F00FFF71DFF9DF80FA0BAF14E
:109DA000010F074609D140B92146FFF7B9FFA36A61
:109DB000616807464FF4E170984715F001095DD1DD
:109DC000A37DAB425AD3002F58D1B4F814B0AB45A1
:109DD00043D22046FFF7E7FE034628BBB5FBFBF75F
:109DE000C8465FFA89F2974222D80BFB17523AB164
:109DF000D3B9234606EB08015E20FFF736FE034683
:109E000093B92046FFF7CFFE034668B9BAF1010FB8
:109E10000AD121465046FFF783FFA26A019061688C
:109E20004FF4E1709047019B184605B0BDE8F08FF4
:109E30002346A28A06EB08015E20FFF716FE0346C2
:109E400040B92046FFF76DFE034618B9A28A424486
:109E50001FFA82F809F10109C3E723462A46314671
:109E60005E20FFF702FECFE72346384605B0BDE887
:109E7000F04FFFF7FABD4FF0FF33D5E76FF009035E
:109E8000D2E773B50023044608460E46ADF8043009
:109E9000FFF7DDFD60BB5CB3A5786378012D24D1AD
:109EA000022B28D82278511E0B2924D8ED0145EA2F
:109EB00003152A43E378D2B203F003038DF804209C
:109EC000D2098DF8053086F82E203346012201A9EB
:109ED0004020FFF74AFF30B9334601220DF105015A
:109EE0004120FFF742FF02B070BD25B9072BD8E72C
:109EF0004FF0FF30F7E76FF00700F4E713B50023EA
:109F000004468DF806308DF80730FFF7A0FD0246B5
:109F1000B0B9237ABBB90122E27223460DF10701E1
:109F2000FFF774FE024658B9012223460DF10601DF
:109F30000020FFF76BFE024610B99DF80630237033
:109F4000104602B010BDE072EEE7F7B500230646FA
:109F500008460F460093ADF80430FFF778FD00285F
:109F60003AD1002E38D00B46062269461220FFF760
:109F70004DFEE0B9BDF90050BDF90240BDF9042025
:109F800035807480B2803B7B0C2B12D1002DB8BF82
:109F90000F35002CB8BF0F34002A4FEA25154FEAC1
:109FA0002414B8BF0F32358074801211B28003B010
:109FB000F0BD0E2BFBD1002DB8BF0335002CB8BF70
:109FC0000334002A4FEAA5054FEAA404B8BF0332C0
:109FD000358074809210E9E74FF0FF30E7E700002A
:109FE000F7B50546294600208DF804008DF80500D8
:109FF000FFF796FEAB6A696804464FF4E170984734
:10A000004CB92B46012201A95920FFF7AEFE0446A8
:10A01000002800F08780204603B0F0BD73092F6947
:10A020008DF806302846C6F3430337448DF80730D1
:10A03000FFF70DFD002872D1002F70D02B460122B2
:10A040000DF107015B20FFF790FE044678B92B461F
:10A0500001220DF106015C20FFF787FE044630B9AE
:10A06000AA8A2B4639465E20FFF7FFFC0446AB8ADE
:10A0700033449EB2AB8DB342D0D8002CCBD1012655
:10A080002B46324601A959208DF80460FFF76DFE7A
:10A0900004460028BFD1AB6A696825489847324614
:10A0A0002B460DF105012A20FFF7B0FD9DF8056054
:10A0B00006F00F068DF8056004460028ABD1012E8E
:10A0C00032D129463046FFF72BFE04460028A2D1A4
:10A0D0008DF806008DF807002846FFF7B8FC044607
:10A0E000002898D12B4632460DF106015B20FFF780
:10A0F000E1FC044600288ED12B4632460DF10701C3
:10A100005C20FFF7D7FC0446002884D19DF8063078
:10A1100003F00F03EB759DF807302B767BE74FF0CC
:10A12000FF34A4E70646A5E76FF0040473E700BF19
:10A13000F049020037B50023044608460D468DF865
:10A140000730FFF784FCC0B90B4601220DF107016F
:10A150007D20FFF75BFD80B99DF80730A40023F058
:10A16000040304F004041C4301222B460DF10701F3
:10A170007D208DF80740FFF7F8FD03B030BD07B52F
:10A180008DF807000846FFF762FC50B99DF80730CC
:10A19000012B09D80B4601220DF107015520FFF7CD
:10A1A000E4FD03B05DF804FB6FF00700F9E707B5C5
:10A1B000B62302468DF80730FFF749FC30B9134645
:10A1C0000DF1070101227E20FFF7CFFD03B05DF8FE
:10A1D00004FB10B50446FFF791FE70B9237803F035
:10A1E000FD03112B01BF0C2323734623A37506BF68
:10A1F0004FF4C053A3856FF0030010BDA8B10278DF
:10A2000002F0FD03112B13D1838A991E442912D821
:10A21000D90744BF03F1FF3383820849084B112A51
:10A2200008BF0B460361FFF7DBBE4FF0FF307047FE
:10A230006FF0030070476FF00900704726E60200D8
:10A2400026FE020070B592B0154604460E46462220
:10A250000021684620F0BEFD002D65D02B7803F06C
:10A26000FD03112B63D12B46462269465E20FFF782
:10A27000CDFCA0BB012E04F0010304F0020004F0A9
:10A28000040104F0080204F010042AD12BB19DF857
:10A290003B3043F010038DF83B3028B19DF83B3044
:10A2A00043F020038DF83B3029B19DF8403043F056
:10A2B00001038DF840302AB19DF83C3043F0010392
:10A2C0008DF83C302CB19DF83E3043F001038DF801
:10A2D0003E302B46462269465E20FFF746FD12B00F
:10A2E00070BD2BB19DF83B3023F010038DF83B304F
:10A2F00028B19DF83B3023F020038DF83B3029B185
:10A300009DF8403023F001038DF840302AB19DF8CC
:10A310003C3023F001038DF83C30002CD9D09DF85F
:10A320003E3023F00103D2E74FF0FF30D7E76FF064
:10A330000300D4E730B593B00D4604464622002111
:10A34000684620F047FDEDB12B7803F0FD03112B9B
:10A350001BD12B46462269465E20FFF757FC78B991
:10A360009DF83B20E40022F0080204F00804224398
:10A370008DF83B202B46462269465E20FFF7F5FC10
:10A3800013B030BD4FF0FF30FAE76FF00300F7E78E
:10A3900010B592B0044646220021684620F01AFD0E
:10A3A000CCB1237803F0FD03112B17D123464622AD
:10A3B00069465E20FFF72AFC58B99DF83B3043F010
:10A3C00004038DF83B304622234669465E20FFF7A2
:10A3D000CCFC12B010BD4FF0FF30FAE76FF0030075
:10A3E000F7E713B50023019304460B4679B10A78C9
:10A3F00002F0FD02112A0DD104220DEB02011E20F4
:10A40000FFF704FC08B9019B236002B010BD4FF0B8
:10A41000FF30FAE76FF00300F7E700000121018148
:10A420004FF0A0430449002242804260C2600860AD
:10A43000C3F83027704700BF201900204FF0A0411B
:10A44000D1F810256FEA123303F001038371D1F8BC
:10A4500010156FEAD14303F001030903C37104D45B
:10A46000D30401D50123437170470023FBE70000AB
:10A4700030B5114D114985B00446286800906846F2
:10A480001AF02EFE08B11CF0A0F90D4A6868516858
:10A49000127A01AB03C301A900201A701AF068FEFA
:10A4A00008B11CF092F9012120461AF0BFFE08B154
:10A4B0001CF08BF905B030BD26160300F5A5000091
:10A4C0002A16030010B5FFF7B9FF437A3BB9012301
:10A4D0004372FFF7CDFFBDE810401AF0F7BE10BD84
:10A4E000F0B5044640480368BFF35B8FDB0787B0D5
:10A4F0000D461DD41FF0EFFBD0B13C4B6E4603F16F
:10A50000180C324618685968374603C70833634544
:10A510003E46F7D1364E06AF134603CBBB42306002
:10A5200071601A4606F10806F6D12F481FF0DFFBCE
:10A530002B7873BB012120461AF078FE08B11CF07D
:10A5400044F96B681B884FF4965213FB02F3002BFF
:10A55000B8BF03F2FF3362799912C3F38F2363808C
:10A56000002A35D1224802889A4214D38278A379EE
:10A57000C3F16403DBB2934228BF1346E179227929
:10A5800041B3934228D8227A32BB1AF019FF002334
:10A59000637207B0F0BD012230F82250AB4200EBED
:10A5A000820610D2013A00EB820330F822009B7839
:10A5B000B27889B2D21A091A51432D1A91FBF5F1DA
:10A5C0005A18D2B2D3E70132062AE5D1827DCEE70E
:10A5D0006423D3E79342D6D20022E068227223712B
:10A5E000162104F06FFCD0E7041900203416030094
:10A5F00008190020024B01461868FFF771BF00BF21
:10A6000020190020C1607047007870470123037053
:10A6100070470023037070474078704701234370F0
:10A6200070470023437070470123837070470023F5
:10A6300083707047416070478160704710B5037840
:10A640005A1C027081F86C30012381F86D30BFF321
:10A650005B8F80F83C320446BFF35B8FD0F8340246
:10A6600088B101387023C4F8340203FB00406E2225
:10A67000043021F00DFBD4F83832042B9CBF013399
:10A68000C4F8383210BD0420ECE780F8241080F8BC
:10A690002520704700000000F7B5C36A8B420446CE
:10A6A00086BF01F18070C31ACB1AB3F5806F4FEAF1
:10A6B000932501D2002A4DD0C3F30903994238BF34
:10A6C00001F18071CB1AD4E90C01E3622A4BE5FB5E
:10A6D0000301D4E90E325B1942F10002C4E90E32E3
:10A6E000C4E90C0122A3D3E9002323F03DF8CDE90E
:10A6F0000001684620F076FB05460FCD26460FC6C2
:10A700000FCD0FC62B6833602379257A00271BBB3A
:10A7100094F841303BB9606C012384F8413010B1AA
:10A72000102104F0CFFB94F842303BB9606C012358
:10A7300084F8423010B1112104F0C4FB9DB994F8A3
:10A7400040303BB9606C012384F8403010B10F21D8
:10A7500004F0B8FB03B0F0BD1E2B84F84170E2D0CA
:10A7600084F84270EAE7002384F84030F2E700BF43
:10A7700000CA9A3B0000000000CA9A3B70B504462C
:10A780001D4616464FF0FF31806A1BF0A5F8E16ABE
:10A790002046C4E90C650122FFF77EFF0023A06A72
:10A7A0001A46BDE8704019461AF01CBF30B58BB090
:10A7B00004469DF8400001909DF83C0002909DF8F1
:10A7C0003800A1F26C71CDE903030025013A06912E
:10A7D000A06A05924FF0FF310991CDE907551BF0B2
:10A7E0007BF801A820F0E0FC0C4AA0FB020302FB6E
:10A7F0000133C4E90C03E16A01222046FFF74CFF54
:10A80000A06A2B462A4629461AF0ECFE606C10B16D
:10A81000022104F057FB0BB030BD00BF00CA9A3BC9
:10A820007FB50022002300250126C0E90C23C0E9E2
:10A830000E234FF480730446C0E91151C0E90A5554
:10A840008584A0F8403080F8426030461AF04AFF14
:10A850002B462A462946A0621AF0C4FE2046CDE9BE
:10A86000015500953346324640F2E971FFF79EFFED
:10A87000204604B070BD000038B50C4605464FF0C8
:10A88000FF31A06A1BF028F8094B2046D3F80415C5
:10A890000022FFF701FF00231946A06A1A461AF0AA
:10A8A000A1FED4E90C23C5E90023284638BD00BF2A
:10A8B00000100140416470472DE9F84347F6FF79E5
:10A8C00005465001DFF870804845A8BF484640451E
:10A8D000B8BF404600B20F461E4605F0B7FA044620
:10A8E00068014845A8BF48464045B8BF404600B249
:10A8F00005F0ACFA002FA2B280B205DA002E0FDA12
:10A90000801A00B2BDE8F883002E12DA104480B23B
:10A91000002DBABFC0F57F404C30C0F1B400F0E765
:10A92000024492B2002DB4BF02F1B400A2F1B4000F
:10A93000E7E7101AE5E700BF0180FFFF2DE9F74FB9
:10A940008C6BCE6C0F6EA31D04F1080901930023DC
:10A9500004F1010B361BCA469E4698461A461D4610
:10A960009C463C1B0AF0070701EB47073F8D6744F5
:10A970000FFA87FC06EB0A0707F0070701EB47070A
:10A98000BF8F2F443DB204EB0A0707F0070701EB26
:10A9900047070AF1FF3AB7F8507017443AB20BF084
:10A9A000070701EB47073F8D47440FFA87F806EB8F
:10A9B0000B0707F0070701EB4707BF8F77440FFA34
:10A9C00087FE04EB0B0707F0070701EB47070BF1C6
:10A9D000010BB7F850701F443BB2019F5745C1D1DE
:10A9E00003EBD3735B100CEBDC7C05EBD57502EB52
:10A9F000D27208EBD8780EEBDE7E4FEA6E0E4CF387
:10AA00004F0C45F34F0542F34F0A4FEA6808438164
:10AA10000023A0F808E0A0F800C04580A0F804A03A
:10AA2000A0F806801F469E4609F0070801EB48087B
:10AA3000019AB8F92880A8EB0C0808FB08EE06EB91
:10AA4000090808F0070801EB4808B8F93C80A8EBB2
:10AA5000050808FB087704EB090808F0070801EB74
:10AA6000480809F1FF39B8F950804A45A8EB0A08AF
:10AA700008FB0833D8D14FEA5E027F085B08C2604A
:10AA80000761436103B0BDE8F08F10B50446B0F92B
:10AA9000100020F01AF8B0F5C07F0CDC236AB3F583
:10AAA000446F08D8B4F9120010F5357F05DA636AEF
:10AAB000B3F5446F04D900200FE010F13F0FFADA2C
:10AAC000B4F91A30B4F91820B4F91410FFF7F4FEF1
:10AAD00010F12D0FACBF0020012010BD10B50446B1
:10AAE000B0F91000B0F55E7F2DDAB4F9100010F562
:10AAF0005E7F09DCB4F91A30B4F91620B4F91410E9
:10AB0000FFF7DAFE1E3028DBB4F91200B0F5357F0E
:10AB100025DBB4F91A30B4F91820B4F91410FFF792
:10AB2000CBFE1D281BDDE26CD31C083203F00701AD
:10AB300004EB4101B1F93C10B1F5847F0FDD013325
:10AB40009A42F3D109E0B4F91A30B4F91620B4F9F5
:10AB50001410FFF7B1FE1E28C7DD012000E0002021
:10AB600010BD012903D08B1E59425941490081660D
:10AB700070472DE9F041069F0C4615461E464FB121
:10AB800000F0D4FC069733462A462146BDE8F04142
:10AB900000F0D0BCBDE8F0812DE9F04788B01F4639
:10ABA000DDF840A00368534504468846914604D02A
:10ABB000C06E10B1514603F04AFAE06EF8B1A36BD3
:10ABC00003F0070304EB4303B3F92830434511D1E5
:10ABD000E36C03F0070304EB4303B3F93C304B454C
:10ABE00008D1236E03F0070304EB4303B3F950309D
:10ABF000BB4204D03B464A46414603F048FAE3686C
:10AC0000A3601BF0FFF8A56BE060013505F00705B8
:10AC100004EB4503A563A3F82880E06C013000F045
:10AC2000070004EB4002E064A2F83C90266E013677
:10AC300006F007060730266604EB460100F0070021
:10AC4000073604EB400006F00706A1F8507004EB4D
:10AC50004606B0F93C10B2F93C20B6F95000B3F901
:10AC60002830073505F00705521A04EB450502EBBD
:10AC7000D272381A00EB6200B5F928209B1A48BF3F
:10AC8000033300EBA3001FF020FFD4E90235626E0E
:10AC9000ED1A6423052143439200B3FBF5F392FBC5
:10ACA000F1F293FBF1F3134402A863662146FFF728
:10ACB00045FE8446BCE80F0004F110060FC69CE870
:10ACC00003004A4686E803003B460095414620467D
:10ACD000FFF74FFF2368C4F800A0AAEB0303002B83
:10ACE000C2BF6268D218626008B0BDE8F087000099
:10ACF00010B5DFED217A20EE270A2DED028BC0EE94
:10AD0000208A002343618361C36103620446B0EE7D
:10AD1000680A1FF0B9F8B0EE408AB0EE680A1FF07A
:10AD20007BF8F7EE007AB6EE006AB0EE677AA8EE2E
:10AD3000067A2046F0EE676A37EE075A77EEC07A59
:10AD400070EE005AE8EE466A87EE856A87EE875A0B
:10AD5000C5EE877A84ED006AC4ED037AF1EE667A77
:10AD6000C7EE876A84ED015A84ED026AC4ED046A75
:10AD7000BDEC028B10BD00BFDB0FC940B0EE407AC6
:10AD80009FED1D6A90ED070AF0EEC77AF4EE467A61
:10AD9000F1EE10FA2ED8D0ED056AD0ED017AD0EDA3
:10ADA000005A90ED025A80ED057A66EEA77AE7EE3A
:10ADB000257AD0ED065AC0ED066AE5EE257AD0ED8B
:10ADC000035A90ED045AE5EEC07AD0ED085A80EDB2
:10ADD000080AE5EE657AF0EEE75AF4EEC65A9FED02
:10ADE000076AF1EE10FA88BFF0EE467AC0ED077AF6
:10ADF000B0EE670A704700BFFFFF7F7F00000000D2
:10AE000010B5F2EE040AB0EE000A0446FFF770FF38
:10AE100000200021C4E90A01002384F824302363C0
:10AE2000204610BD38B5044615460AB9A06A38BD9B
:10AE300091ED010AD1ED007A20EE000AA7EEA70AF3
:10AE4000D1ED027AA7EEA70A1EF0C4FFF7EE007A52
:10AE500030EE670A2046B0EEC00AFFF78FFF94F885
:10AE60002430DFED157ACBB1D4E90A32B4EEE70A2B
:10AE70005B1942F10002F1EE10FAC4E90A324FF018
:10AE8000000108D5236B1D44C82D2563CED984F855
:10AE900024102163CAE700232363C7E7B4EEE70A5F
:10AEA000F1EE10FAF7DD226B1544C82D2563BDD9EC
:10AEB000012284F82420EFE70AD7A33D30B5002310
:10AEC00080F824300024002503630023C0E90A45EC
:10AED0000362C3618361436130BD38B5002300253F
:10AEE00004460360436083600573F2EE040AB0EE2B
:10AEF000000A1030FFF7FCFEF2EE040AB0EE000A82
:10AF000004F13400FFF7F4FEF2EE040AB0EE000A9A
:10AF100004F15800FFF7ECFE00220023C4E92023CF
:10AF200084F87C50C4F88850204638BD7FB503466D
:10AF30001AB9D3F8800004B070BD007B28B907C9E6
:10AF400083E8070001221A73F3E71C4603F110009F
:10AF500001AD03F17C06B1EC010AD4ED007AA4EC5A
:10AF6000010A30EE670AB0EEC00AFFF707FF24308F
:10AF7000B042A5EC010AEED193F87C409DED017A38
:10AF8000DFED257AD3E9201064B35118B4EEE77AE7
:10AF900040F10000F1EE10FAC3E920104FF0000478
:10AFA00036D59DED027AB4EEE77AF1EE10FA2FD5A0
:10AFB0009DED037AB4EEE77AF1EE10FA28D5D3F8D6
:10AFC00088100A4442F63C018A4294BFC3F88820A4
:10AFD000C3F88810B2F5967F84BF83F87C40C3F82D
:10AFE0008840A6E7B4EEE77AF1EE10FA0DDC9DEDAD
:10AFF000027AB4EEE77AF1EE10FA06DC9DED037A00
:10B00000B4EEE77AF1EE10FA02DD012283F87C203B
:10B010000022C3F888208CE78FC2F53C30B50023AE
:10B0200000220024002580F87C30C0F888300373AB
:10B03000C0E9204502604260826000F110037C306C
:10B04000834200D130BD1A62DA619A615A612433B9
:10B05000F6E7000038B5002300250446036043608E
:10B0600083600573F2EE040AB0EE000A1030FFF7B9
:10B070003FFEF2EE040AB0EE000A04F13400FFF7DE
:10B0800037FEF2EE040AB0EE000A04F15800FFF7B2
:10B090002FFE064B84F87F501A889B78A4F87C20FA
:10B0A00084F87E30C4F88050204638BD4C1603002A
:10B0B000F0B5034685B032B1007B38B907C983E8E3
:10B0C000070001221A73002005B0F0BD01AC03F1A6
:10B0D000100003F17C0726461D46B1EC010AD5EDB0
:10B0E000007AA5EC010A30EE670AB0EEC00AFFF75D
:10B0F00045FE2430B842A6EC010AEED100209FEDB7
:10B100001E7ADFED1E6A03F17B0103F17E06012743
:10B11000844611F8015FF4EC017AFDB1F4EEE67AB1
:10B12000F1EE10FA02DD81F800C02846B142F0D1FC
:10B1300093F87F10C9B1D3F880100A4442F2A67187
:10B140008A4294BFC3F88020C3F88010962ABAD9E7
:10B15000002283F87F20C3F88020B4E7F4EEC77A9A
:10B16000F1EE10FA48BF0F70E0E70028ABD00122E3
:10B1700083F87F20A8E700BF0AD7233CCDCC4C3D05
:10B180000D4B00F17C0219889B78A0F87C1093701D
:10B19000002380F87F30C0F8803003730023036001
:10B1A000436083601030904200D170470362C361F6
:10B1B000836143612430F6E74C16030010B5044662
:10B1C000FFF71EFE04F13800FFF787FE04F1C80008
:10B1D000FFF740FF204610BDF8B50D461646044661
:10B1E0001A46314628461F46FFF71CFE3A462060A5
:10B1F000314605F13800FFF799FE3A466060314666
:10B2000005F1C800FFF754FF95F8243020720BB900
:10B2100095F8B43063722046F8BD08B5FFF74EFECE
:10B2200001463830FFF7FAFEBDE8084001F1C800DA
:10B23000FFF7A6BF0A68027010B5140A4470140C18
:10B24000120EC2704A688470140A02714471140CA0
:10B25000120EC2718A688471140A02724472140C4C
:10B26000120EC2720A7B8472003A18BF0122027366
:10B270004A7B003A18BF01224273B1F90E20827353
:10B28000C2F30722C273B1F910200274C2F307227D
:10B290004274B1F912208274C2F30722C27410BD45
:10B2A00038B50546044645F8041B302200212846DF
:10B2B0001FF090FD104B6360104BC4E90234122361
:10B2C000A38204F15403A3612022002104F134007D
:10B2D0001FF080FD0123002184F83430084BA36364
:10B2E0002564A4F8541084F85610142204F1580070
:10B2F0001FF070FD204638BD4F1603004FB300000D
:10B300006016030010B500F13404204609F0BAFFBE
:10B3100020B92046BDE8104009F090BF10BD10B51F
:10B32000B0F854308B4286B014460ED100F158016B
:10B330006846FFF77FFF60681622694616F079F8C5
:10B34000002818BF112006B010BD0020FBE71846EA
:10B35000FFF7E5BFF0B50D46064600F158040F466D
:10B360000FCD0FC42B682360BFF35B8F96F8563068
:10B37000BFF35B8F87B013B9002007B0F0BD306812
:10B3800000F001FA431E9BB24FF6FD729342044651
:10B39000F2D839466846FFF74DFF1621684605F09A
:10B3A00027FF02460028E7D0B6F8541020460AF0DE
:10B3B0004DFF18B1C31F58425841DEE70120DCE7BA
:10B3C000B0F854308B4206D1BFF35B8F012380F875
:10B3D0005630BFF35B8F7047B0F854308B4206D1C4
:10B3E000BFF35B8F002380F85630BFF35B8F70474D
:10B3F000F8B5124E3368F3B9114F124C3D68BFF3E4
:10B400005B8F15F0010515D138461EF064FC88B13C
:10B410002046FFF7D3FE1C22294604F5AA70C4F883
:10B4200050511FF0D7FC002200233846C4E95C23AA
:10B430001EF05DFC34603068F8BD00BFA01A00202B
:10B440002419002028190020C0F85011FFF7E5BE8C
:10B4500070B513460D46D0E95C21D21888B041F191
:10B4600000010446C0E95C2101462A466846FFF710
:10B47000B3FEDDE9006307EE903AF8EE676ADFEDB0
:10B48000297A9DF808109DF8092084F85C1186EE51
:10B49000A77AC4E9556384F85D212868C4F864017B
:10B4A0006868C4F86801A868C4F86C01D4F8500151
:10B4B000DFED1D7A27EE277AB4EE677AF1EE10FA07
:10B4C000C8BFB0EE677A84ED587A48B395ED007A3C
:10B4D000059327EE277AD4F870418DF81810BDEE49
:10B4E000C77A03A917EE103A95ED017AADF81A3034
:10B4F00027EE277ACDE90346BDEEC77A8DF81920ED
:10B5000017EE103A95ED027AADF81C3067EE277A07
:10B51000FDEEE77A17EE903AADF81E30FFF71AFF0E
:10B5200008B070BD00BA5B4A0000C84200487047CE
:10B53000A41A002006EE901A07EE102A07EE903AA1
:10B540001FB59FED0F6A069CF8EEE66AB8EEC77A63
:10B55000F8EEE77A66EE866A27EE067A67EE867A76
:10B56000CDED016A8DED027ACDED037A2CB1FFF7B6
:10B570003FFF224601A9FFF76BFF04B010BD00BFDB
:10B580000000803A0048704718000020704770475C
:10B590002DE9F3471E460C9BDDF83CA0C0F810A037
:10B5A0000446C0E90263C0E9001214300D460A9F48
:10B5B00004F5237900F090FE04F5E27000F0AEFB94
:10B5C0003146484600F034FC04F549783A462946AD
:10B5D00004F52C7001F0B6FA3A462946404600F0D0
:10B5E0001BFD314604F5567001F076FA214604F54C
:10B5F000717001F065FB314604F5B56001F0BAFDEC
:10B6000004F5D46002F004FB0B9904F2847001F09D
:10B61000C7FE3A46294604F2F47002F025FA0D9A64
:10B62000214604F6680002F001FC0E9A214604F659
:10B63000C40002F08FFC214604F63C10FFF730FEF8
:10B640005246294604F6A81001F00AFF694604F69E
:10B650002830CDE9009802F086FA4FF6FF730021FA
:10B66000A4F8363B84F8381B102204F639301FF05A
:10B67000B1FB204602B0BDE8F087000010B5B6B0BF
:10B6800004460A22002103A81FF0A4FB6022002127
:10B6900006A81FF09FFB602200211EA81FF09AFB46
:10B6A00040F20223ADF80C3094F8383B0E2B40D812
:10B6B0002022ADF80E2001332F22ADF8102084F89F
:10B6C000383B06238DF818301E4B1F490793BDF8F1
:10B6D00020301E4825900B4040F201121343ADF874
:10B6E00020301B4B0B93BDF830300B401A438023A6
:10B6F000ADF830208DF83A3020F0E8FA9DF8993016
:10B700008DF8980043F0010306A88DF8993008F0F1
:10B7100011FA1EA808F01FFA0E4B0093019494F83A
:10B72000340B03AB4FF4FA62002108F005F936B090
:10B7300010BD40F26463ADF80E3040F27363ADF8B3
:10B740001030BEE77216030000FEFFFFF5DB0200BB
:10B7500076160300E5BA000008B5002017F008FCD3
:10B76000024B1868BDE80840FFF788BFA81A002000
:10B77000B0F8361B4FF6FF73994203D000F628301D
:10B7800002F014BA7047B0F8360B70470A46B0F8AA
:10B79000361B4FF6FF73994203D000F2847001F01C
:10B7A0004DBE704710B504464068FEF737FF60682D
:10B7B000FEF72FFF002384F8383B2046BDE81040F9
:10B7C000FFF75CBF10B504464068FEF72AFF6068CB
:10B7D000FEF71AFF48B1B4F8360B132108F002FA4D
:10B7E0006068BDE81040FEF714BFBDE8104008F0E7
:10B7F00099B800002DE9F041ADF5687D0E4604468C
:10B800004FF42072002148A81FF0E4FA2022002102
:10B8100002A81FF0DFFA502200210AA81FF0DAFA6E
:10B82000D6F80B00B6F80F20737C02900AA902A884
:10B83000ADF80C208DF80E300CF0EEFA04F6393825
:10B840000546102241460AA81FF09AFA002866D041
:10B8500010220AA9404620F01BFA2022002102A84B
:10B860001FF0B8FA502200211EA81FF0B3FAD6F834
:10B870000B00B6F80F20737C02901EA902A8ADF849
:10B880000C208DF80E300CF0D0FA2D1847D1202264
:10B89000294602A81FF09EFAD6F80B00B6F80F2032
:10B8A000737C029001A90320ADF80C208DF80E30B6
:10B8B00001950CF0D3FB48AE3746019BAB4232DC1E
:10B8C00020680E2103F0FEFA236893F8B43B002BA6
:10B8D00032D01F4A20694FF4817333A904F099F9DB
:10B8E0000546C0B950230AAA33A9206904F09AF981
:10B8F00050231EAA33A9206904F094F9206901237A
:10B9000001AA33A904F08EF9019B2069AB4217DC30
:10B9100033A904F081F920680D2103F0D3FA0DF565
:10B92000687DBDE8F081394602A88DF812300135F6
:10B930000CF0A7FA5037C0E705201AF059FBC3E70F
:10B940003246102333A904F06DF901355036DBE798
:10B9500000DC020070B50B788CB004460D46112B4C
:10B9600015D8DFE803F0173714141414141414094D
:10B970004F5FB5147F1414AB4068FEF74DFE30B135
:10B980006068FEF741FE10B92046FFF777FE002001
:10B990000CB070BD4B6893B100F5237000F057FAFE
:10B9A00004F5497000F084FB4FF6FF73A4F8363BB2
:10B9B0006068FEF72EFE002384F8383BE4E70B892D
:10B9C000A0F8363B4068FEF721FE2068052103F011
:10B9D00079FADCE70B7A5A0702D50831FFF70AFF3C
:10B9E00004F5237000F033FA04F5497000F060FBB1
:10B9F0004FF6FF736068A4F8363BFEF705FE00289B
:10BA0000C5D0D5E74B68002BC1D1288901A907F023
:10BA1000A1FD9DF804305B07B9D501A92046FFF7C9
:10BA2000E9FEB4E70E79032EB1D11422002101A85A
:10BA30001FF0D0F98DF80460284E0EF0B3FEB0422E
:10BA4000FBD8274BB0FBF3F203FB120063680290B4
:10BA5000D8612068132103F035FAA88901A906F0FE
:10BA6000A5FE94E70B7A022B0FD1E98804F6680053
:10BA700002F064FAE98804F6C40002F042FBE988A7
:10BA800004F63C10FFF7A8FC81E74B7A03F00303B0
:10BA9000022B0FD1C98800F6680002F043FAE9884A
:10BAA00004F6C40002F017FBE98804F63C10FFF727
:10BAB00087FC6CE7012B7FF46AAFD6E701A9A88861
:10BAC00007F048FD0DF10F000CF09BFA01205FE735
:10BAD00000F5497000F0B4FA59E700BF7F3DF1FF6F
:10BAE00040420F000B4601461846FFF733BF0000E7
:10BAF00030B5C1B000238DF80730224A0446012337
:10BB000000692BA904F085F8054670BB0146502258
:10BB100002A81FF05FF9502302AA2BA9206904F0A4
:10BB20007EF802A80CF07DF95022294602A81FF0E9
:10BB300051F9502302AA2BA9206904F070F802A839
:10BB40000CF078F9206901230DF107022BA904F00C
:10BB500066F89DF807302069AB4208DC2BA904F099
:10BB60005BF80849206904F064F841B030BD102347
:10BB700016AA2BA904F053F816A80CF087F9013582
:10BB8000E7E700BF00DC020037B5044604F09EFC86
:10BB900000286CD0434B444A1C60444BDA60444A52
:10BBA0001A61444A1A6217F09FF917F0C1F904F5B7
:10BBB000E27000F083F804F5237000F047F904F513
:10BBC000567000F0E9FE04F5717001F059F804F5C3
:10BBD000B56001F019FB04F5D46002F08BF804F5B0
:10BBE0002C7000F0A3FF04F1140000F048FB04F2F5
:10BBF000847001F0FDFB04F2F47001F05FFF04F6C5
:10BC0000680002F045F904F63C1504F6C40002F0A1
:10BC1000DBF92846FFF776FB04F6A81001F056FC86
:10BC2000FFF7E6FB2946FFF70FFC002017F0A0F90D
:10BC300004F6343100200CF0FBFE1F4817F03AF9EF
:10BC40006D46C22017F04AF9294694F8340B0022B9
:10BC50000CF0C9FE95E8030063681861998294F8B6
:10BC6000343B032B0AD8DFE803F0061316190A2029
:10BC70001AF0BEF98AE7636800229A6109F068F851
:10BC80002046FFF735FF2046FFF7F8FC03B030BD34
:10BC900063680122F1E763680222EEE7636803222A
:10BCA000EBE700BFA81A00208FB500003400002089
:10BCB00059B700006D800100F5DB020010B500F1FE
:10BCC000A804204609F0DEFA2046BDE8104009F03D
:10BCD000B5BA000038B58B6818680C460CF076FDD4
:10BCE000A0F52850243880B205280FD8084B646886
:10BCF00053F8205028461FF0E9FF294682B220461B
:10BD000015F097FB002818BF112038BD0E20FCE766
:10BD10008816030011461846FFF7DCBF10B5A822AD
:10BD2000002104461FF056F81A4A1B491B4B23609A
:10BD3000C4E906121A492462C4E90C121949A46321
:10BD4000C4E9121218492465C4E918121749A466F7
:10BD50000223C4E91E12C4E9012423822385A4F826
:10BD60004030A4F85830A4F87030A4F88830C4F8F3
:10BD700080402022002104F1A8001FF02BF80123AD
:10BD800084F8A8300A4BC4F8AC30C4F8B44020465C
:10BD900010BD00BF15BD0000B0160300B4160300AF
:10BDA000AC160300A8160300A4160300A016030097
:10BDB000B8160300F0B587B0002302AD02930593D7
:10BDC000C5E90133936804460F4616463BB102228B
:10BDD000314628469847F3680593B368049395E87D
:10BDE00003006A4604F1140382E8030093E80300A9
:10BDF00085E8030092E8030083E80300049AE369FE
:10BE0000216AE261059A0493059122621BB1032223
:10BE1000294628469847044A04492346384607B02D
:10BE2000BDE8F0400AF04AB9C9BE0000CC160300D4
:10BE3000054AC0E900210022C0E90522C0E9072225
:10BE400002728273704700BFC4160300704700235C
:10BE500003728373704707B58268ADF806100AB99C
:10BE60001DF05FFFC3680DF10601984703B05DF850
:10BE700004FB000037B504461D46084693B91388F5
:10BE80000E2B1AD1237A43B100940D4BA2896189FC
:10BE90000AF03FF9012003B030BD04F11400FFF7B0
:10BEA000DAFFF7E70748191D0CF033FC28B9012326
:10BEB00023722B8863816B88A3810020EBE700BF8E
:10BEC00029BF0000CC16030010B5044618461346DF
:10BED0000A462146FFF7CEFF10BD000038B50446E4
:10BEE0001D46084683B913880E2B06D1A37B33B1B8
:10BEF0000B4A218A23460AF04FF9002038BD04F18D
:10BF00001400FFF7A8FFF8E7064803F108010CF05A
:10BF100000FC0028F1D10123A3736B882382ECE796
:10BF200089BF0000C816030010B404461846134623
:10BF30000A4621465DF8044BFFF7D0BF30B50D46E9
:10BF40001188044689B01846B1B905AB0A22406889
:10BF500015F0F3FA9DF81A3002939DF81930019309
:10BF60009DF8183000939DF816209DF81730BDF805
:10BF700014106068FEF71AFC04F114002946FFF75C
:10BF80006AFF002009B030BD10B4044618461346BD
:10BF90000A4621465DF8044BFFF7D0BFF0B587B0E5
:10BFA000002302AD02930593C5E90133936804466B
:10BFB0000F4616463BB10222314628469847F368A1
:10BFC0000593B368049395E803006A4604F12003DF
:10BFD00082E8030093E8030085E8030092E8030089
:10BFE00083E80300049AA36AE16AA262059A0493B3
:10BFF0000591E2621BB10322294628469847044A6C
:10C0000004492346384607B0BDE8F0400AF056B868
:10C0100019C10000F016030010B5084C046000249C
:10C02000C0E90144C0E90344C0E90612C0E908447C
:10C03000C0E90A4484828475048610BDD8160300C2
:10C040002DE9F0410A8983899A429CB005462CD19A
:10C05000D1F80480B8F81040032C26D90134672C9D
:10C0600028BF6724261F6522002168461EF0B2FE05
:10C07000002732466B46032140461A97ADF86C7094
:10C0800015F05BFA04F16C030DEB0306E86906F8A2
:10C09000707C01236946033C8DF865401A93FEF7D6
:10C0A000CDFAA869032102F00DFF1CB0BDE8F081B4
:10C0B0000023C0E90133C0E903338382837503861B
:10C0C0007047000037B504461D46084693B91388EB
:10C0D0000E2B1AD1A37D43B100940D4BE288A188A9
:10C0E0000AF017F8012003B030BD04F12000FFF77B
:10C0F000B2FEF7E70748191D0CF00BFB28B92B8897
:10C10000A3806B88E3800123A3750020EBE700BFC9
:10C11000E9C10000F016030010B5044618461346A6
:10C120000A462146FFF7CEFF10BD000073B51D463D
:10C1300013880446084633B30E2B18D0014604F189
:10C140002000FFF788FE002002B070BD6B882381BD
:10C15000F9E76B886381F6E76B88A3812B882382DC
:10C16000012384F83030EEE76B886382EBE765B932
:10C1700094F83030002BE1D00094154BE288A1896F
:10C1800009F0E7FFDFE7002DDDD005F108061148D3
:10C1900031460CF0BEFA0028D8D00F4831460CF0DA
:10C1A000B8FA0028D5D00D4831460CF0B2FA002874
:10C1B000D2D00B4831460CF0ACFA0028D4D0094854
:10C1C00031460CF0A6FA0028BDD16B88A382BAE7ED
:10C1D00069C20000EC160300E8160300E416030031
:10C1E000E0160300DC16030010B40446184613469C
:10C1F0000A4621465DF8044BFFF798BF08B5014693
:10C2000003F12000FFF727FE002008BD7FB512884C
:10C21000089E04460D46DAB982899A4215D1104823
:10C22000311D0CF076FA80B1E38973B901233188AE
:10C23000ADF80C3084F831300A4BE18103AA009349
:10C2400001940223284609F0EAFF002004B070BDE3
:10C2500090F83130002BF8D12030FFF7FCFDF4E7E7
:10C26000E4160300FDC1000010B4044601980193D8
:10C2700013460A4621465DF8044BFFF7C7BF10B5C9
:10C2800000F5B674204608F0FDFF2046BDE81040DA
:10C2900008F0D4BF08B50B46022200F58471184699
:10C2A00015F0C7F8002818BF112008BD13B50022EB
:10C2B000074BC0E90122044600934FF47A7103460C
:10C2C00004481AF02BF92060204602B010BD00BFD0
:10C2D00035C4000027DC020073B5002583604FF4ED
:10C2E000E8230446C0E90012C0E90635C0E9045558
:10C2F00005730562A0F8EC50F030FFF7D7FF04F5A6
:10C3000086760823A4F808312946602230461EF0BC
:10C3100061FD214BC4F80C310422204BA4F81C21F0
:10C320001F4AC4F82C41C4E949231822A4F8342137
:10C330001C4AC4F84441C4E94F23C4E944340223ED
:10C34000A4F84C3104F58473C4F8503129462022F6
:10C3500004F5B6701EF03EFD012384F86C31124BDB
:10C36000C4F87031114BC4F87861C4E96555C4E96B
:10C370006755A4F89251C4F8A451A4F8A8512A46CC
:10C38000009342F21071234609481AF0C7F8C4F826
:10C39000AC01204602B070BD1617030085C900002D
:10C3A00005170300F41603007616030099C4000075
:10C3B00027DC020073B505460E46AC6810461946E8
:10C3C000069AACB90A2A15D8AA60E880AE8005F1B1
:10C3D0000C001FF05DFC2D6819F014FD009402465E
:10C3E0002346012128461AF0B3F8012002B070BD9F
:10C3F0000020FBE72046F9E738B518460C46BDF8A3
:10C400001010154604F0F4FE294602462046BDE809
:10C41000384009F01BBF836813B5044643B100934D
:10C42000C288818800F10C03FFF7E6FF0023A360B8
:10C4300002B010BD08B51AF0BFF9BDE80840FFF71B
:10C44000EABF07B50023C0E9013300931A46032170
:10C4500000681AF07DF803B05DF804FB10B5002306
:10C460000446A0F89231C0F8A431A0F8A831C0E980
:10C470006533C0E96733F030FFF7E3FF6068FEF72C
:10C48000D6F820680721BDE8104002F01BBD4368C4
:10C490000322DA60FFF7E2BF08B51AF08DF9BDE8B4
:10C4A0000840FFF7F4BF000030B5094B05460FCB3D
:10C4B00085B06C4684E80F002969286801F57F3152
:10C4C0001023224601F57C71FCF7F8FD05B030BD64
:10C4D0002817030070B50379044615468BB300F1A5
:10C4E0001C06406930441FF0D3FB63692B44C82B02
:10C4F00063610CD1A1692068324601F58021FCF707
:10C50000DDFDD4E905231344A3610023636163695E
:10C51000BBB1A169E2685818904212D13246206836
:10C5200001F58021FCF7CAFDD4E905231344A3617A
:10C53000D4E903239A4204D22046BDE87040FFF7B5
:10C54000B3BF70BD38B5054600242B69A34200D89F
:10C5500038BD04F580212868FCF76CFD04F5805493
:10C56000F3E723B118880A44914203D170474FF68C
:10C57000FF70F8E711F8013B40BA80B24340C3F3C3
:10C580000310584000B280EA003000B2430103F4C7
:10C59000FF53584080B2E7E72DE9F34105460020FC
:10C5A0004FF00108064605F11C07EC68ADF80600DF
:10C5B000B44207D8B5F8E4301B1A5842584102B0CB
:10C5C000BDE8F081A41BC82C28BFC82428682346D6
:10C5D0003A4606F58021FCF70BFDB8F1000F09D0B3
:10C5E0000023224639462846FFF7BBFF26444FF07A
:10C5F0000008DAE70DF10603F3E700007FB51368E2
:10C600001A78013A04460D46072A21D8DFE802F0DD
:10C6100004233E538720203A90F89251C5B95B78A5
:10C62000042B15D1022380F892314068FDF7FCFFFE
:10C6300063680122DA6060684FF0FF31FDF7FAFFAE
:10C6400060682946FDF7F8FF2068062102F03AFCF1
:10C65000002004B070BD90F89221012AF8D15B78D7
:10C66000002BF5D04FF40473ADF80C300323009386
:10C670008DF80E2003ABB0F88E212946F030FFF77D
:10C6800099FEE5E75B7880F89331E1E790F8923125
:10C69000012BDDD1D0F8A411B0F8A8212373002319
:10C6A000C4E9073314200323C4E90401A4F8EC20EF
:10C6B00084F89231CCE790F89231042BC8D108303D
:10C6C000FFF76AFF034604F1F0009BB1052384F8ED
:10C6D000923163680222DA60154B1A889B788DF8D4
:10C6E0000E3003230093ADF80C2003ABB4F88E2179
:10C6F0002946C4E70F4B03261A8800969B78ADF8AD
:10C700000C208DF80E30B4F88E2103AB2946FFF7CC
:10C7100051FE6368DE602046FFF7A0FE98E790F8C0
:10C720009231052B94D143680222DA60F3E700BF0F
:10C7300039DC02003DDC02000246007920B1D068FD
:10C7400093691B1A58425841704700002DE9F04187
:10C7500084B090F89231022B02AF04460E46154683
:10C7600008D0032B5CD0012B32D000200837BD4607
:10C77000BDE8F08113681B68C0F89C3113685B68E2
:10C78000C0F8A03113689968C0F8A4114068FDF79B
:10C7900051FF236893F8B43BB3B104F10800FFF7ED
:10C7A000D1FE464B1A889B78BB7003233A803146F2
:10C7B000B4F88E21009304F1F0003B46FFF71CFE15
:10C7C000012384F89231D0E7052019F011FCE0E74D
:10C7D00011680B895A0007326E46D208A6EBC202D6
:10C7E00095460DF1080C01F10A000022934200F178
:10C7F00002000BDC053301EB430211F813305278D1
:10C8000003EB0223A4F8A831B546AEE710F801EC1B
:10C8100010F8025C05EB0E252CF812500132E5E70A
:10C82000D0F894310133C0F8943100F10808D2886F
:10C8300029684046FFF74EFED4F89831E9886068D1
:10C840001944C4F89811FDF7F7FE94F89321D4F831
:10C850009431B3FBF2F102FB1133C3B9D4F8983130
:10C86000D4F8A421934212D011223A701A0A7B7094
:10C87000BA701A0C1B0E3B710523FA703146B4F8DE
:10C880008E21009304F1F0003B46FFF7B5FD4046D2
:10C89000FFF752FF00283FF468AF094B1A889B78D6
:10C8A000BB7003233A803146B4F88E21009304F123
:10C8B000F0003B46FFF7A0FD042382E741DC0200C5
:10C8C00045DC02002DE9F3411D4643689B78044690
:10C8D0000F46164653B1D0F8AC8119F093FA0023F5
:10C8E000024600930121404619F032FE21492248B8
:10C8F00004F5C673002208F08DFC20491E4804F59B
:10C90000C773002208F086FC04F5C8731C491A4856
:10C91000002208F07FFCB4F88C31B3420AD12B78A6
:10C92000012B23D16A683946204602B0BDE8F041A8
:10C93000FFF70CBFB4F88E31B3420AD12B78012B2C
:10C9400014D16A683946204602B0BDE8F041FFF7CD
:10C9500055BEB4F89031B34208D12B7833B9696829
:10C96000204602B0BDE8F041FFF794BC002002B0C1
:10C97000BDE8F081161703007616030005170300C3
:10C98000F416030010B40446184613460A4621461E
:10C990005DF8044BFFF796BF10B500F14804204640
:10C9A00008F070FC2046BDE8104008F047BC30B5E8
:10C9B0000A78012A89B005460C461ED1606805AB8D
:10C9C0000A22002114F0B9FD002802DA0D2009B076
:10C9D00030BD9DF81A3002939DF8193001939DF8EF
:10C9E000183000939DF816209DF81730BDF81410EC
:10C9F000A86EFDF7DBFE0020E9E7002AFBD1836E7D
:10CA00006068596901F26C71ADF81410196901314F
:10CA10008DF81610D9688DF8171099688DF81810D0
:10CA200059688DF819101B688DF81C2005A90A2279
:10CA30008DF81A3014F0FDFC002818BF1120C6E74D
:10CA400037B50B78012B05460C4613D1606801AB56
:10CA50000222002114F071FD002802DA0D2003B03B
:10CA600030BD9DF905209DF90410A86EFDF70DFE5F
:10CA70000020F4E7002BFBD1836E60689B8CADF83F
:10CA80000430022201A914F0D4FC002818BF1120A0
:10CA9000E5E738B58B68054618680C460BF096FE3E
:10CAA00042F60F23984209D042F62B2398420BD12D
:10CAB00021462846BDE83840FFF779BF2146284681
:10CAC000BDE83840FFF7BCBF4FF0FF3038BD11461E
:10CAD0001846FFF7DEBF000038B5482204460D4671
:10CAE00000211EF077F90D4A0D4B0E4923600A23F1
:10CAF000C4E90612C4E9012423822385246220228A
:10CB0000002104F148001EF065F9012384F8483043
:10CB1000054BE3646465A566204638BDCFCA0000B6
:10CB2000381703003C1703004017030010B500F14D
:10CB30004804204608F0A6FB2046BDE8104008F057
:10CB40007DBB000070B504460E4615460021482204
:10CB50001EF040F90F4B236008220F4B22820F4A30
:10CB60002462C4E90623C4E901341023238504F1B7
:10CB70007003E3622022002104F148001EF02AF92C
:10CB80000123C4E91A6584F84830054BE364646501
:10CB9000204670BD5617030037CC00004417030031
:10CBA0005A1703002DE9F04791F80090B9F1010FF1
:10CBB0009EB006460D463AD1D1F804A0BAF810400E
:10CBC000032C34D90134672C28BF6724271F652222
:10CBD000002102A81EF0FEF84FF000083A4602AB12
:10CBE00003215046CDF87080ADF8748014F0A5FC98
:10CBF0000DF107034A464146686814F09EFC04F1B3
:10CC000074030DEB03079DF80730F06E07F8708C86
:10CC1000032B14BF0123042302A9033C8DF86D40AC
:10CC20001C93FDF70BFDB06E032102F04BF90020C1
:10CC30001EB0BDE8F08711461846FFF7B3BF0000ED
:10CC400008B50368002B02DA0C481DF067F88B4228
:10CC50000AD9B3EB410F4FEA410205D2002AB6BF11
:10CC60006FF00043026003600068013001D51DF0E1
:10CC700052F8BDE808401DF03DB800BF49DC020095
:10CC800010B500F5A874204608F0FCFA2046BDE86F
:10CC9000104008F0D3BA034653F8082B9A4214BF49
:10CCA00080680F207047012A30B403D10B780370DD
:10CCB00030BC7047002AFBD030BC1EF0E9BF00003A
:10CCC0002DE9F04700F5BE7300250446C0E95D3547
:10CCD00000F5CA73C0E96335A0F8705180F87C5143
:10CCE00080F8945100F5D6700E46C4F8A40170493E
:10CCF000704FDFF8F4A10B22FFF7D5FF0B23C4F828
:10CD0000A831C4F8DC614FF07E531826C4F8D43142
:10CD100032462946C4E97055C4E9725584F8B751C2
:10CD200084F8BC51C4F8D051A4F8D85120461EF064
:10CD300051F8614B23604FF0100904F5B87363613B
:10CD400032462946C4E90174A4F81090A0191EF0D7
:10CD500041F85A4B24624FF00A08C4E906373246BC
:10CD60002946A4F8288004F130001EF033F8544B13
:10CD7000A463C4E90C3732462946A4F8408004F184
:10CD800048001EF027F84F4B2465C4E9123732469D
:10CD90002946A4F8588004F160001EF01BF84A4BA5
:10CDA000A466C4E9183732462946A4F8708004F115
:10CDB00078001EF00FF8454BC4F88040C4E91E37D8
:10CDC00032462946A4F8888004F190001EF002F84B
:10CDD00032462946C4E924A7C4F89840A4F8A080A4
:10CDE00004F1A8001DF0F6FF32462946C4E92AA73F
:10CDF000C4F8B040A4F8B88004F1C0001DF0EAFF08
:10CE0000334BC4F8C840C4E9303732462946A4F849
:10CE1000D08004F1D8001DF0DDFF2E4BC4F8E040B7
:10CE2000C4E9363732462946A4F8E88004F1F00018
:10CE30001DF0D0FF284BC4F8F840C4E93C37324617
:10CE40002946A4F8008104F584701DF0C3FF234B2C
:10CE5000C4F81041C4E9423732462946A4F8188183
:10CE600004F590701DF0B6FF1D4BC4F82841C4E9CD
:10CE7000483732462946A4F8308104F59C701DF0ED
:10CE8000A9FF4A46294604F5A8701DF0A3FF012317
:10CE900084F85031134BC4F85431C4F85C414A460D
:10CEA000294604F5B0701DF095FF2046BDE8F087D7
:10CEB00061DC020049D100001918030008180300C2
:10CEC000E6170300F7170300D5170300C417030084
:10CED000A217030091170300801703006F170300C8
:10CEE0005E1703002A180300B3170300F0B50446C9
:10CEF00085B0476808460E461EF0E8FE0546204607
:10CF0000FFF7C9FE854201461BD82068B04211D800
:10CF1000C3199E420ED80023CDE900530146334683
:10CF20003A4620461CF00CFF2368656000225A55E3
:10CF300005B0F0BD002DF7D02A463146FFF7B3FE0D
:10CF4000F2E703A80395FFF77BFE2A463146074622
:10CF5000FFF7A9FE234653F8080B984203D0A168B7
:10CF600001311CF0B6FE039B2760A360DCE70000E4
:10CF70002DE9F0470B78012B00AF04460D462ED16A
:10CF80004868B0F810A0BAF1280FD14628BF4FF07A
:10CF9000280909F10803E846DB08A8EBC3039D460E
:10CFA0004A46002114F0C9FACA456E4608D90DEB6D
:10CFB00009032E2203F8012C03F8022C03F8032C9A
:10CFC000002306F80930AB68534918680BF0A1FB41
:10CFD00048B9314604F5D270FFF788FFC5460020F6
:10CFE000BD46BDE8F087AB684C4918680BF091FB73
:10CFF00018B9314604F5BA70EEE7AB6848491868CD
:10D000000BF087FB18B9314604F5C670E4E7AB684E
:10D01000444918680BF07DFB18BB3378002B14BF14
:10D020000123002384F8BC3104D018F0EBFEC4F8CF
:10D03000D001D3E718F0E6FED4F8D03194ED757A3C
:10D04000C31A07EE903AFBEECB7AD4F8C03167EE04
:10D05000877AFDEEE77A17EE902A1344C4F8C031C0
:10D06000BCE7AB68304918680BF053FB30B9337834
:10D07000003B18BF012384F8D831AFE7AB682B49D8
:10D0800018680BF046FB30B93378003B18BF01231A
:10D0900084F8D931A2E7AB68254918680BF039FB51
:10D0A00020B933681BBAC4F8C031BEE7AB68214968
:10D0B00018680BF02EFB20B933681BBAC4F8C431D2
:10D0C0008CE7AB681C4918680BF023FB20B9336868
:10D0D0001BBAC4F8C83181E7AB68184918680BF06F
:10D0E00018FB20B933681BBAC4F8CC3176E7AB68BB
:10D0F000134918680BF00DFB00287FF46FAF3368FD
:10D10000DFED106A1BBA07EE903AF8EEE77A87EE89
:10D11000A67A84ED757A61E7F7170300E617030036
:10D12000D5170300081803006F1703005E170300EC
:10D13000C4170300B3170300A217030091170300DD
:10D14000801703000000C84211461846FFF710BFC1
:10D1500010B503680279417902EBE372002402EB17
:10D16000012281791B1942EB0142C179181942EB66
:10D17000016110BDF8B5214B04460E46024603F18D
:10D18000100718685968154603C50833BB422A467C
:10D19000F7D11B782B701A4B04F1110203F1100127
:10D1A000174653F8040B42F8040B8B42F9D11B7855
:10D1B000137004F124053022002128461DF00AFED8
:10D1C000104B6762C4E90A340823A38604F1740390
:10D1D000A3632022002104F154001DF0FBFD012374
:10D1E00084F854300023A4652566A4F87430A6673B
:10D1F00084F8B03084F8F0302046F8BD3B180300C6
:10D200004C18030097D3000010B500F154042046D9
:10D2100008F038F82046BDE8104008F00FB82DE9B6
:10D22000F0474B681C6894F8009098B00646B9F136
:10D23000000F06D0B9F1010F50D0002018B0BDE8A2
:10D24000F0876578002DF8D1202204F1100168469E
:10D250001EF01EFDA01C8DF82050FFF779FFB4F9D9
:10D260000A90B4F90C80B4F90EE094F830C0074687
:10D270000D466B460DF137020DF1200A1C4603CC1A
:10D28000544510605160234602F10802F6D123781C
:10D29000137096F8B030ADF83090CDE90A7506F10C
:10D2A0008004ADF83280ADF834E08DF836C00AADB8
:10D2B00043B10FCD0FC40FCD0FC495E80F0084E824
:10D2C0000F00BAE70FCD0FC40FCD0FC495E80F00C4
:10D2D00084E80F00012386F8B030AEE76578002DB2
:10D2E000ABD1A01CFFF734FF282280460F466846CA
:10D2F00029461DF06FFDA27A052A28BF05226B463C
:10D300000B34954224DB6B460DF1320C0AAD1C4602
:10D3100003CCAC42CCF80000CCF8041023460CF14E
:10D32000080CF4D196F8F0308DF83020CDE90A875A
:10D3300006F1B8040BB316AA2B4603CB9342206028
:10D3400061601D4604F10804F6D11B88238074E750
:10D3500093F806E0B4F900C0B4F902002179A3F80B
:10D3600000C058801971BEF1000F03D00135083399
:10D370000534C6E783F80690F8E70FCD0FC40FCD4C
:10D380000FC40FCD0FC495E80300012384E8030008
:10D3900086F8F03051E711461846FFF740BF00000D
:10D3A00038B50546044645F8041B482200212846A6
:10D3B0001DF010FD0B4B63600B4BC4E902341223CC
:10D3C000A38204F16C03A3612022002104F14C002C
:10D3D0001DF000FD012384F84C30044B2365A56546
:10D3E000204638BD5E18030037D4000062180300E1
:10D3F00010B500F14C04204607F044FF2046BDE87C
:10D40000104007F01BBF07B51346B0F86C208A42E6
:10D410000FD10268586812798DF807200DF10701C5
:10D42000012214F006F8002818BF112003B05DF89F
:10D4300004FB0020FAE71846FFF7E5BF37B50546BD
:10D440000C460DF1070001218DF8072003F0D0FEF6
:10D45000B5F86C100246204608F0F8FE03B030BD67
:10D4600038B5042300F10C050446C0E9001203811D
:10D470004822002128461DF0ADFC0222A2830F4B5A
:10D48000E36004F174020E4B22620E4AE462C4E9C6
:10D490000923C4E904341A23A38604F17603A363A1
:10D4A0002022002104F154001DF094FC012384F893
:10D4B0005430054BA3652566204638BD7718030018
:10D4C00055DA0000661803008818030010B500F153
:10D4D0005404204607F0D6FE2046BDE8104007F071
:10D4E000ADBE2DE9F04FEDB0136800AF04460D4618
:10D4F000006893F800801721164601F0E3FC0A202B
:10D5000018F076FD2368D3F8B89BB9F1010F29D143
:10D510003422002107F120001DF05CFC4FF48472DE
:10D52000002107F1A8001DF055FC54220021B81875
:10D530001DF050FCB8F1300F00F0A4814AD8B8F1CA
:10D54000200F00F059810FD8B8F1100F00F0818042
:10D55000B8F1120F00F0F0802068182101F0B2FC41
:10D56000002051E16420CBE7B8F1220FF4D1D6F8C6
:10D570000080606821233B71D8F80430BB6004F15F
:10D58000790240F2031307F1540102F042FB064610
:10D59000B8B9D8F80420606807F1540102F045FBDF
:10D5A000061E09DBD8F80830606808F10C0207F1A4
:10D5B000540102F037FB0646606807F1540102F09F
:10D5C0002BFB002E6068B8BF7E7102F04AFBD8F8D2
:10D5D000042047E1B8F1500F00F07F81B8F1600FEF
:10D5E00000F0F581B8F1400FB6D131684E8806F1F0
:10D5F0000803E846DB08A8EBC3039D460022E94682
:10D600008DF800200DEB0600834240F06381324626
:10D61000103148461EF03CFB002109F806100F228D
:10D62000781D1DF0D7FB4123494660683B7102F02D
:10D630000FFB002808BF012078711021381D03F06E
:10D64000D7FDB4F876100246284608F0FFFDC5461F
:10D6500082E73668B6F80290B9F5807F00F2D28092
:10D6600004F1790A4A4606F10C015046A1441EF025
:10D670000FFB4FF0000B40F2111389F879B0BB801B
:10D6800073686068BB6007F1A802514602F0E6FAD1
:10D69000821C12D197F8A830022B0ED07871414627
:10D6A000381DC7E903BB03F0A3FD06463246B4F8B4
:10D6B0007610284608F0CAFD4EE7D7F8AC30B268BD
:10D6C0009A4294BF3A613B61FB605246012307F1E5
:10D6D0005401606802F09DFA7268606807F15401B5
:10D6E00002F0A3FA3B69DA1D22F00702E846ADEB2F
:10D6F000020D6A46002002F8010BE946991E002936
:10D7000016DA4A4607F15401606802F088FA1021DF
:10D710003861381D03F06CFD3A8A4946064613F01D
:10D7200088FE606807F1540102F076FAC546BDE74D
:10D7300002F8010B0139E2E73668606840F2111324
:10D74000BB8004F179087368BB6007F1A802414609
:10D7500002F084FA831C2FD197F8A830022B2BD02B
:10D760000023C7E9033378713B69002B3ED0DA1DF3
:10D7700022F00702E946ADEB020D6A46002002F8EE
:10D78000010BE846991E00292CDA424607F15401A4
:10D79000606802F044FA10213861381D03F028FD5A
:10D7A0003A8A4146064613F044FECD46606807F1CA
:10D7B000540102F031FA79E7D7F8AC30B2689A42F6
:10D7C00094BF3A613B61FB60424607F154016068D7
:10D7D000012302F01EFA7268606807F1540102F03A
:10D7E00024FAC1E702F8010B0139CCE71021381DFA
:10D7F00003F0FEFC0646D9E73668B6F80280B8F5B5
:10D80000807F06D94FF0FF3007F5DA77BD46BDE8D7
:10D81000F08F04F1790A424606F114015046A04403
:10D820001EF036FA002388F879303269C4F87C217A
:10D8300021223A71726860683B61C7E9022307F1EF
:10D84000540140F20313524602F0E3F930B9606824
:10D8500007F1540102F0E0F987F80590606802F0E2
:10D8600000FA7268D4F87C3100039B1AC0F553109B
:10D87000834294BF7B6178611421381D03F0B8FCAA
:10D88000024614E731684E8806F10803E846DB08D3
:10D89000A8EBC3039D460022E9468DF800200DEB5E
:10D8A0000600834213D13246043148461EF0F0F997
:10D8B000002309F80630606831234946BB8002F036
:10D8C000B8F9002808BF012078710221B6E603F8F4
:10D8D000012FE6E703F8012F96E631684A8802F146
:10D8E0000803E846DB08A8EBC3039D4600236E4609
:10D8F0008DF8003068460DEB020C604517D1B3542B
:10D90000043130461EF0C4F91A220021B81D1DF062
:10D9100061FA51233B716068012307F1200231460F
:10D920007B7102F089F940B178711C2186E600F81C
:10D93000013FE2E7FB680133FB60606807F1A80282
:10D9400007F1200102F07EF906460028F2D1606856
:10D9500007F1200102F079F94FF00109606807F141
:10D96000A80207F1200102F06DF900282ADD97F8DE
:10D97000A830012B1DD0022B20D007F1B0001EF0E3
:10D98000A5F91C21F880381D03F032FCFA88824684
:10D9900007F1B00113F04DFDB4F876105246284659
:10D9A00008F054FC642018F023FBBB680133BB6013
:10D9B000D4E7D7F8AC303E61FB61DEE7C7F81090E2
:10D9C000FE61DAE70023FB61FB803B61ADE736686F
:10D9D0007188731800209871B38803F10802E84633
:10D9E000D208A8EBC2029546E9468DF800006B44C8
:10D9F0009A4213D10731B288314448461EF048F9A3
:10DA0000B3886068002209F80320B11D61234A46EB
:10DA1000BB8002F020F943B2002B53E702F8010F5C
:10DA2000E6E738B5B0F87450954208D100F1080126
:10DA30000222586813F0FDFC50B9002038BDB0F840
:10DA400076409442F9D15A68BDE83840FFF749BDA5
:10DA50001120F3E710B40446184613460A4621463F
:10DA60005DF8044BFFF7DDBF38B500F1080504464B
:10DA7000C0E900124822002128461DF0ABF90C4BEA
:10DA8000A3600C4BC4E903340423238304F1700323
:10DA9000E3612022002104F150001DF09BF90123D5
:10DAA00084F85030044B6365E565204638BD00BFFF
:10DAB0009818030041DB00009C18030010B500F12A
:10DAC0005004204607F0DEFB2046BDE8104007F07A
:10DAD000B5BB000030B5B0F870308B429DB0044645
