:100000000000012089F70200B1F70200B3F70200F7
:10001000B5F70200B7F70200B9F7020000000000D0
:100020000000000000000000000000003188010016
:10003000BDF702000000000051880100C1F7020076
:10004000DDF902007D180100C3F702001D18010050
:10005000C3F70200C3F70200FDFE02008D0003009B
:10006000C3F70200C3F70200C3F7020095180100AE
:10007000C3F7020089180100C3F70200C3F70200AA
:10008000A1180100B1880100C3F70200C3F7020004
:10009000C3F70200C3F70200C3F70200C3F7020070
:1000A000C3F70200C3F70200C3F70200C3F7020060
:1000B000C3F70200C3F702000000000000000000C8
:1000C000C3F70200C3F70200C3F70200C3F7020040
:1000D000C3F70200C3F70200C3F7020000000000EC
:1000E0000000000000000000000000000000000010
:1000F0000000000000000000000000000000000000
:1001000000000000000000000000000000000000EF
:1001100000000000000000000000000000000000DF
:1001200000000000000000000000000000000000CF
:1001300000000000000000000000000000000000BF
:1001400000000000000000000000000000000000AF
:10015000000000000000000000000000000000009F
:10016000000000000000000000000000000000008F
:10017000000000000000000000000000000000007F
:10018000000000000000000000000000000000006F
:10019000000000000000000000000000000000005F
:1001A000000000000000000000000000000000004F
:1001B000000000000000000000000000000000003F
:1001C000000000000000000000000000000000002F
:1001D000000000000000000000000000000000001F
:1001E000000000000000000000000000000000000F
:1001F00000000000000000000000000000000000FF
:100200000348044B834202D0034B03B118477047A5
:10021000B0030020B0030020000000000548064B9A
:100220001B1AD90F01EBA301491002D0034B03B1F4
:1002300018477047B0030020B00300200000000002
:1002400010B5064C237843B9FFF7DAFF044B13B11E
:100250000448AFF300800123237010BDB0030020D9
:1002600000000000ECE5050008B5054B1BB1054991
:100270000548AFF30080BDE80840FFF7CFBF00BFDF
:1002800000000000B4030020ECE50500A3F5803A6F
:10029000704700BF174B002B08BF134B9D46FFF75D
:1002A000F5FF00218B460F461348144A121A4CF0F2
:1002B00021FE0E4B002B00D098470D4B002B00D099
:1002C00098470020002104000D000D48002802D0AE
:1002D0000C48AFF300804EF001FA2000290011F025
:1002E00045FB4CF0C3FB00BF00000800000000000D
:1002F0000000000000000120B0030020345F002057
:10030000000000000000000000F02EB8084600F0D9
:100310002BB800F0ABB800F0E1B8000010B5104BFE
:100320001A461B688342FBD354681119884201BFE7
:100330004168104609195160446801198B420DD17A
:10034000084909688B4204D05B6823444360136802
:1003500019680160904218BF106010BD1946F8E797
:10036000E0030020DC0300202DE9F041044630F0DA
:10037000F9FD3549354D0B68F3B9354B354A3648EB
:10038000D21A0260580718BF0733344A18BF23F047
:100390000703002013605060314A22F00702C2E9CF
:1003A0000000D01AC3E900202E4B0A6018602E4BC3
:1003B00018604FF000432B602F68274207D030F0C1
:1003C00063FE11F0E5F900263046BDE8F081002C0F
:1003D000F5D004F1080362071CBF23F007030833BC
:1003E000002BECD0DFF88080D8F800509D42E6D397
:1003F0001A4A14686068984201D2206800BB0968F4
:10040000A142DCD02168166811606268D21A102AF5
:1004100006F1080604D9E01842606360FFF77EFF2A
:10042000104962680868AD1A174300238542676067
:100430002360C8F8005038BF0D6030F025FEC3E7D8
:1004400022460446D6E700BFDC030020D00300208C
:10045000485F002000FC0020CC030020E0030020C7
:10046000F8FB0020D4030020D803002010B5044678
:10047000E0B10F4A50F8043C1268134216D050F80D
:10048000081C99B923EA020340F8043C30F06AFDE5
:10049000084A54F8043C1168A4F108000B441360A6
:1004A000FFF73CFFBDE8104030F0EEBD10BD00BFCF
:1004B000D0030020D8030020014B1868704700BF0C
:1004C000D8030020014B1868704700BFD4030020F8
:1004D000014B1868704700BFCC0300202DE9F041A4
:1004E00005460C4601B308461DB9BDE8F041FFF7CB
:1004F0003BBF0E4B55F8046CD3F8008016EA080F8A
:10050000F3D0FFF731FF074658B126EA0802083A50
:10051000A24228BF224629464EF06AF92846FFF734
:10052000A5FF3846BDE8F0810F46FAE7D00300206A
:10053000014B9878704700BFE8030020014B5878C2
:10054000704700BFE8030020004870470400002007
:10055000034B1868B0F5803F34BF0020012070477E
:10056000E80300200A4B07B518600246FFF7E0FFDA
:100570000146FFF7E3FFD2B2CDE900020B46054A80
:1005800005480C214CF084FA03B05DF804FB00BF71
:10059000E80300202C06050004000020012070471D
:1005A00001207047012070470120704701207047EB
:1005B00001207047012070470120704701207047DB
:1005C00001207047012070470120704701207047CB
:1005D00001207047012070470120704701207047BB
:1005E000012070470120704737B5044688204BF042
:1005F00043FB63680093E3692268A168054611F034
:1006000047F8284603B030BD30B5044685B0A02079
:100610004BF032FBE369029363690193E368009353
:10062000D4E90023A168054610F086FA284605B0F3
:1006300030BD0FF043BE30B5044687B04FF48C7028
:100640004BF01AFBE36A0493E36903932369029373
:1006500063690193E3680093D4E90023A168054628
:100660000FF08AFA284607B030BD0CF0FDBF30B558
:10067000044685B0E8204BF0FFFAE36A0393E36990
:10068000029363690193E3680093D4E90023A168AE
:1006900005460CF0ADFC284605B030BD30B504462B
:1006A00085B090204BF0E8FAE36903932369029345
:1006B00063690193E3680093D4E90023A1680546C8
:1006C0000DF07CF9284605B030BD30B5044685B044
:1006D0004FF4A0704BF0D0FAA36A0393E36902933E
:1006E00063690193E3680093D4E90023A168054698
:1006F0000DF014FD284605B030BD37B50446D020B6
:100700004BF0BAFA63690193E3680093D4E90023DC
:10071000A16805460BF0AEFB284603B030BD30B5EE
:10072000044687B0F0204BF0A7FAA36A0593E3696B
:1007300004932369039363690293E3680193236A33
:100740000093D4E90023A16805460BF0ABFF2846CF
:1007500007B030BD38B50446B8204BF08DFAA26A18
:100760006169054603F07EFF284638BD10B5382084
:100770004BF082FA044604F03BF9204610BD03F02A
:1007800037B938B505466C204BF076FA696C0446EB
:1007900003F064F9204638BD38B5044644204BF0D8
:1007A0006BFA626BA169054603F0A4FB284638BDCD
:1007B00038B5044640F67C204BF05EFAD4E90532A9
:1007C0000546E16907F090FD284638BD10B5A82020
:1007D0004BF052FA044605F087FD204610BD38B5AF
:1007E00005462C204BF048FAE96B044601F0C4F8AA
:1007F000204638BD38B50446DC204BF03DFAA269EE
:10080000E16B054600F0CAFF284638BD38B50546FD
:100810009C204BF031FA296C044602F07FFD204603
:1008200038BD38B504462C204BF026FA626B21699E
:10083000054605F06BFF284638BD38B50446302024
:100840004BF01AFA6269E169054606F0E7FD2846B1
:1008500038BD38B50546C0204BF00EFA296B04466A
:1008600006F0DAFF204638BD37B50446C0204BF00D
:1008700003FA63695A7CA3690093636B216A054696
:1008800008F0F0F8284603B030BD38B505469C2086
:100890004BF0F2F9696B044601F070FA204638BD5E
:1008A0002DE9F84FDDE90ABA1E46C0E9023B0C9B70
:1008B00043610D9BC3610E9B03620F9B4362109BC0
:1008C0008362119BC362129B0363139B159F436357
:1008D000149BC0F810A004460025C0E90E3700F1B3
:1008E0004808169B0364C0E9001285613A4604F685
:1008F000B879404618F023F91F4A2146484617F0B8
:1009000053FC0D9BC4F8C83F0E9BC4F8CC3F0F9B13
:10091000C4F8D03F109BC4F8D43F119BC4F8D83F13
:10092000129BC4F8DC3F139BC4F8E03F04F58053EE
:100930000122C4F8BC6FC4F8C0BFC4F8C4AFC4F887
:10094000E45FC4F8E87FC4F8EC9FC4F8F05FC4F833
:10095000F44FC4F8F88FC4F8FC5FC3E906551D6076
:100960009A601D619D8283F820509D635D6683F8C7
:1009700068502046BDE8F88F750A000037B5044678
:100980000D46002201210A202FF08CFE04F5805331
:10099000043398605D62019300230093084909487D
:1009A00023464FF4487230F0A3F9012805D0042003
:1009B00003B0BDE8304031F080B803B030BD00BFB7
:1009C00038060500AD1300002DE9F041054605F598
:1009D000805530F0CFFAEB6E2E6F4FF47A445C43C3
:1009E0007D223E34B4FBF2F4084A93420746A0EB62
:1009F000060804D10023EB6630F0BCFA2867A04556
:100A00003ABF3619F01B0020BDE8F0812406010032
:100A100000F5805080F82010426270471FB5144CDA
:100A20008DF80710636800F58050C3F30803C068B1
:100A300093B1002303AA0DF1070103932FF0FDFEEC
:100A4000039B3BB14FF08053636040BFBFF34F8FB8
:100A5000BFF36F8F04B010BD9DF80720093A18BF8F
:100A60004FF0FF320DF107012FF040FEF2E700BF1B
:100A700000ED00E008B531F017F8BDE808400A21A4
:100A8000FFF7CCBF0139052912D8DFE801F00703D1
:100A9000090B0D0F0221483018F0D5B80121FAE7F3
:100AA0000321F8E70421F6E70521F4E70621F2E740
:100AB0007047806908B119F029BA70478161C0F8A0
:100AC000F01F7047C0F8E41F7047C0F8FC1F704764
:100AD00000F5805001607047436A406BD96A8B1EF5
:100AE000032B28BF042113F03FBB10B50446006858
:100AF00011F0D2FAA06A17F05DFA606B13F046FBB2
:100B00002046FFF7E9FF04F14800443418F088F864
:100B1000204617F01EFA20B92046BDE8104017F015
:100B200021BA10BD10B50446006810B103689B6877
:100B30009847204610BD03460068196010B103684D
:100B40009B681847704700002DE9F04F0446A7B096
:100B5000483017460E4604F5805518F099F90020E4
:100B600031F0BEF91035A06A17F08BFA0021284643
:100B7000FFF7E1FF39462046FFF784FF731E272B5E
:100B800000F2FE81DFE813F046008500CD01D000C1
:100B9000C7000301E500FC01FC01EF01C301FC01FA
:100BA000FC01FC01FC01FC01A800FC01FC01FC01B2
:100BB000FC01FC01FC01FC01FC01DA001901360119
:100BC000280053015D01710167017B0185019301DB
:100BD0009D01AD01B801BD000AAFDFF8D0834FF031
:100BE000090AB946BAF1010A08F1100807F1080725
:100BF00040F00B818C20D4F82480D4F83CA04BF03A
:100C00003BF8CDF800A043464A462146074609F086
:100C1000C7F974E00AAFDFF89C834FF00F0AB946BA
:100C2000BAF1010A08F1100807F108071FD1D4E949
:100C300002AB2269E16BD4F82480276B0892E02094
:100C400007914BF019F8089A07990391CDE90172C1
:100C5000CDF81090CDF800B053464246214606909C
:100C600004F098FC06992846FFF765FF2BE058F83A
:100C70000C2C58F8043CD4F8E80F18F810BC069275
:100C80009847069A47F8082C07F804BC07F8030CA5
:100C9000C6E7C64B0922013A06D0616A1878097D79
:100CA000884201D01033F6E7C14A934204F6BC7083
:100CB0000FD09B68984701462846FFF73CFF636AC0
:100CC000002283F8352004F58054267527B0BDE84E
:100CD000F08FFFF724FDEEE78820D4F81080D4F8D9
:100CE0000890D4F82CA0D4F80CB04AF0C5FFCDF889
:100CF00000B053464A464146074610F0C9FC394603
:100D0000B1E70C204AF0B8FF04F580530746996A12
:100D100007F0AAFCF3E724204AF0AEFF04F14401F7
:100D2000074604F089FAEAE72420D4F80C804AF058
:100D3000A3FF4146074602F06DF9E0E7E3680C20A7
:100D4000D3F81C804AF098FF4146074607F034FC70
:100D5000D5E7D4E9069A4420D4F828B04AF08CFFAD
:100D60004FF00008CDE90198CDF800B009F54273C5
:100D700052462146074605F033F8CDF8288028462C
:100D80003946FFF7D8FE0AA8FFF7CCFE9BE7D4E967
:100D900006894420D4F828A04AF06EFF0123CDE94B
:100DA0000183CDF800A008F542734A462146074664
:100DB00005F016F800230A93E1E7D4E9097BE2681D
:100DC000216BD4F80880D4F81090D4F834A008929D
:100DD000742007914AF050FF089A07990491CDE9D1
:100DE0000272CDE900AB4B4642462146069008F020
:100DF00001FC37E76C20D4F824804AF03DFF4246DE
:100E00002146074608F076FE79E758F80C2C58F88A
:100E1000043CD4F8E80F18F810BC06929847069ADC
:100E200047F8082C07F804BC07F8030CDAE6702032
:100E3000D4F824804AF020FF4146074609F0BCF967
:100E40005DE77020D4F824804AF016FF414607463B
:100E500009F046FA53E72020D4F824804AF00CFF2A
:100E60004146074609F0DEFA49E72820D4F82480F5
:100E70004AF002FF4146074609F002FC3FE718200E
:100E8000D4F824804AF0F8FE4146074609F044FDB4
:100E900035E74C20D4F81080D4F824904AF0ECFECA
:100EA0004B4642462146074609F02AFF27E77020B5
:100EB000D4F824804AF0E0FE414607460AF04AFA98
:100EC0001DE73420D4F82480D4F82C90D4F818A04E
:100ED0004AF0D2FE53464A46414607460AF08AFB8C
:100EE0000DE77820D4F824804AF0C6FE4246214619
:100EF00007460AF0DDFC02E77820D4F824804AF0A7
:100F0000BBFE4246214607460AF088FDF7E624204C
:100F1000D4F808804AF0B0FE4146074606F056F97C
:100F2000EDE622696368216CD4F80880D4F8349027
:100F3000D4F80CA0D4F814B0E76A0992942008936E
:100F400007914AF099FE089B07990591CDE9037333
:100F5000CDE901AB099ACDF80090434621460690B1
:100F600001F0C8FB7EE63420D4F81880D4F8349021
:100F70004AF082FE4A464146074605F025FDBEE698
:100F80000C4B0F22013A04D01978B14201D0103332
:100F9000F8E7094A934204F6BC7003D09B6898476F
:100FA000014660E6FFF7BBFBFAE700BF48230500F8
:100FB000C8230500C8230500A8240500036803F51D
:100FC00080535A6E0AB1013A5A665A6E006803EBB2
:100FD0008203DB6B013B052B9CBF084AD25600F510
:100FE000805388BF0022996B09B101399963996BCD
:100FF0000B4493F82C10FFF7A7BD00BF3C2305005E
:1010000070B400F580531D7D8D420FD09C6B092C70
:101010009FBF1E19013486F82C509C635C6E092C0E
:101020009FBF03EB84050134EA635C6670BCFFF785
:101030008BBD0000F7B500F580550446AB68019004
:10104000012B38D0022B7BD12B691B7913B901A856
:10105000FFF7B4FF2046FFF7B7FC064660B93BF048
:10106000A1F9064640B1EB6E0133EB662046FFF76F
:10107000ABFC06460028F6D0E86832460DF10301C5
:101080002FF034FC012866D19DF80330102B62D874
:10109000DFE813F059005900BE006100040152015D
:1010A0005E0174017701D600DC007F01BA00010106
:1010B000F700840182012B691B7913B901A8FFF79E
:1010C0007DFF3BF06FF9A369064693F8B40B60BB54
:1010D00030F0EAFE636ADB68A3F5FA639B024FF423
:1010E0007A72B3FBF2F398421FD395F8683033B9A4
:1010F000012385F86830606B022113F035F8002079
:1011000030F0D2FE636ADB684FF47A729B02B3FB65
:10111000F2F39842B0D3E8682FF039FD0146002879
:10112000AAD12046FFF7C5FCA6E795F86830002B4A
:10113000A2D0002385F868302046FFF7CDFC9BE75E
:101140004FF0FF3698E7AB68012B04D1A369D3F8C1
:10115000B83B012B1CD1AB68012B08D1A36B1A7BC8
:101160002AB128691979026856691A7AB04795F840
:10117000201031B16A6A2046FFF742FF002385F84C
:10118000203003B0F0BD13F02BF864202FF0E8FFFF
:10119000606B13F034F80228606BF4D19DF80310F3
:1011A000012918BF002112F0DFFF2A7D1C2A0CD86C
:1011B0007C4BD340DB0708D5002202212046FFF7F5
:1011C000C3FC3BF0EFF80028FBD004F1480017F017
:1011D0006DFE9DF803302068012B0DD110F0A8FFA3
:1011E0000023EB662FF0C6FE0C2128672046FFF790
:1011F00060FC0223AB60AEE710F0ACFF0B21204691
:10120000FFF757FC0023F5E7002030F069FEA2E766
:10121000AB68012B9FD0A269D2F8B82B012A9AD1D2
:10122000022B206809D110F08CFF002030F058FE0E
:101230002046FFF751FC0123DCE710F098FFF4E7AC
:10124000022206212046FFF7DBFE84E7AB68012B74
:1012500003D001212046FFF72CFC2B7D082B0AD15F
:10126000002030F03DFE286906F028FCA06A23210A
:1012700016F0C8FE6FE7012208212046FFF7C0FEE6
:10128000F4E72B7D092B03D1286907F0CDFA62E73B
:1012900000220921D6E701221A21EEE7AB68012BD3
:1012A0007FF459AFA16B04F148070B7B0A7A0979E7
:1012B000384617F0CDFDA06B19F00CFD064600284E
:1012C0003FF449AF2869036831461B69984778BBEA
:1012D0002B7D022B1BD1033E042E3FF63CAF01A316
:1012E00053F826F0FF120000F91200008D130000E1
:1012F000571100000513000001221146A2E7062243
:101300001B219FE700212046FFF7D3FB23E76B6EED
:1013100005EB83039B6B023B042B9ABF224AD356F7
:1013200005239E427FF417AF01A8FFF747FE12E79F
:10133000384617F0ADFD0EE728690368DB6898476B
:10134000014600287FF407AF2B7D022BECD1DAE7B2
:101350002B7D022B3FF4FFAE072B08D10122022187
:101360002046FFF74DFE00236B66AB63F3E61B2BB5
:1013700001D10522F3E702221146F1E70122032100
:1013800060E72B7D063B012B7FF6E5AE02220721AD
:1013900058E70222042155E71921B4E7002202216F
:1013A0006BE700BF820000184223050010B5044619
:1013B000FFF79BFB04F5805300229B6A012B0CBFB7
:1013C000282102212046FFF71BFE2046FFF732FEB0
:1013D000FBE7C06803681B68184770470020704728
:1013E000002070470020704708B539F065FEBDE861
:1013F000084030F03DBD000010B5064B03600446C8
:1014000000693AF08FFFFFF7EFFF31F0D3FC204681
:1014100010BD00BFB024050010B50446FFF7ECFF77
:10142000204694214AF017FC204610BD30B587B005
:101430004569C1680446684612F086FD2846009951
:1014400041F094FF009802AB984203D00299013119
:101450004AF001FC04F1380007B0BDE8304008F064
:1014600025B800002DE9F74304460127077104F170
:101470001C087648A3600E9B206004F13809E360E5
:1014800040460D460F9E07F0E3FEDDE90C230B9965
:10149000484607F0ABFF0A9B484683F8355007F0F3
:1014A000B9FFD4F86890FFF79FFF00256FF007039E
:1014B000032201460095484630F0F6FFFFF794FFFF
:1014C000294642F05DF83946606141F05BFA0095CB
:1014D0002B463A462946606930F0E6FF404607F061
:1014E000BBFEDFF88081DFF880E104F18B02294642
:1014F0002B4606F1040C032901BF581C04EB83039F
:10150000C3F86CE0C3B21CF83100002800F09C80E6
:1015100056F8315004EB8307013101330629FD668B
:10152000DBB202F8010FE6D104EB8303484ADA6626
:10153000FFF75AFF00213DF0FBFB04F16C01A061B5
:101540003DF046FAA76939F0B7FD39F0BBFD054615
:1015500039F0B2FD39F0C6FDA5F11001A0F13C0251
:1015600012B2384609B20A2731F04FF9002300972A
:101570001A461946A06930F097FF01221146A0696A
:10158000142332F06EF9334BA0691B882922012104
:1015900032F080F9A0697F2342F22C02012132F05F
:1015A00092F92D4BA0691B8842F22902012132F0E9
:1015B00071F9A569002319462846102232F051F925
:1015C000002319462846112232F04BF90023194610
:1015D0002846122232F045F90023194628461322E4
:1015E00032F03FF9A0693B461422002132F039F96C
:1015F00035460026B7B2A0694FF4807239463DF0F7
:101600002AFC2B790BB16B7923B9A06920223946CA
:101610003DF021FC0136062E05F10805EAD1A3694B
:101620000E495C64A06930F06DFD2346032241F24F
:1016300088310B483AF030FE20612046FFF7F6FE75
:10164000204603B0BDE8F083454663E7B0240500BB
:10165000B01C0500CA240500C8240500911600002E
:101660006D160000C3100500F0060500C068FFF706
:10167000DDBE10B583698B42044608D183188068AB
:1016800093F88C100122FFF7C3F90023237110BDDA
:10169000102938B5044609D1456C30F089FD214642
:1016A00002682846BDE83840FFF7E3BF38BD0000B8
:1016B00010B5054B0360044639F0FEFC30F0D8FB52
:1016C00031F078FB204610BDD424050010B5044647
:1016D000FFF7EEFF2046DC214AF0BDFA204610BDA0
:1016E00073B5064680680D46144617F0D4FAA0B9C3
:1016F0006B1FB068ADF800300435631F06F11002AF
:1017000004346946ADF80230ADF80450ADF8064037
:1017100017F0C7FA012002B070BD0020FBE70000FF
:10172000062908B51DD190F8DA30013303F007031C
:1017300080F8DA30013B062B05D8DFE803F01417F8
:101740001A1C1F22250041F6F873A0F8D83000F1CA
:10175000D80200F110039A4218D1C068232116F074
:1017600051FC012008BD48F20503EEE70A4B1B8837
:10177000EBE7F823E9E7084B5B88E6E7064B9B8835
:10178000E3E74FF4F853E0E70023DEE7B0F8D810C2
:1017900023F8021BDFE700BFEC24050001230371DF
:1017A0000B4B03600B4B1B88A0F8D8300223C0E919
:1017B000021280F8DA3000F1D80200F110039A42E8
:1017C00000D17047B0F8D81023F8021BF7E700BF2C
:1017D000D4240500EC240500012070471E2A70B5B2
:1017E0000446154603D80122E069002110E039F0D3
:1017F00063FC39F077FC1E38A8420EDCE66939F04C
:101800005BFC39F06FFCA0F13D0212B200213046C2
:1018100030F006FEE581012070BDA5F11E0212B276
:10182000E2E708B539F048FCBDE8084030F020BBDD
:1018300010B5064B03600446806A3AF073FDFFF76B
:10184000F0FF31F0B7FA204610BD00BFFC240500C0
:1018500010B50446FFF7ECFF20462C214AF0FBF9B7
:10186000204610BD70B5038A90F9141090F9152028
:101870001944438A1A44044609B212B201824282D0
:10188000006A30F0CDFDB4F91250012D4BDC637DC0
:101890005B426375B4F9105039F00EFC39F012FC5C
:1018A000237BC01A0138854214DB237D5B422375FC
:1018B0004BF042F9032390FBF3F303EB4303627D08
:1018C000C31A013B13445BB25A1D36DB052BA8BF7C
:1018D0000523637594F9141000291DDAB4F910304A
:1018E000042B19DC227B90104042834227DBE389E2
:1018F000B4F9125003F11E00A0EB920085424FEAAA
:10190000920609DC1E3B9B1A33449D4204DBE38AAA
:10191000494221750133E382E28AA0691549BDE895
:10192000704041F095BD39F0C7FB39F0DBFB237BFC
:10193000C01A02388542AADAACE7FB23C9E76FF088
:1019400001014A439342E7DC39F0B6FB39F0BAFBB8
:10195000237BC01A00EBD0704010208239F0ACFB22
:1019600039F0C0FB237BC01A00EBD07040106082BE
:101970000023D0E7691A0500564B2DE9F3410360B7
:101980001023012603731E238160C3810671044660
:1019900039F092FB39F096FB237BC01A00EBD07034
:1019A0003041208239F088FB39F09CFB237BC01A40
:1019B00000EBD07040F20233304163616082FFF788
:1019C00030FF002130F07CFF6062074639F074FB85
:1019D00039F078FB054639F06FFB39F083FBA91924
:1019E000024609B2384630F010FF606A00224FF01C
:1019F000FF3130F015FD00230025606A324619469C
:101A000031F02FFF606A2B462946292231F042FF30
:101A1000314B606A1F8829463B46392231F03AFF34
:101A2000334630222946606A31F01BFFFFF7F9FE8A
:101A3000294641F0A5FD294BA06148F28E022946B6
:101A400031F05AFF2649A06941F029FDD4F81880E9
:101A5000FFF7E7FE0A2301460222009340462B4689
:101A600030F022FDFFF7DDFE294630F029FF3B462E
:101A7000E0612946292231F00DFF2B46E06932460C
:101A8000294631F0EEFE3C22E069042130F0BDFE33
:101A9000FFF7C7FE294630F013FF3B462062294678
:101AA000292231F0F7FE206A47F6FF7332462946B5
:101AB00031F0D7FE227B206A114630F0A6FE234685
:101AC0000322142107483AF0E7FBA062204602B047
:101AD000BDE8F081FC2405001425050074010020F8
:101AE000C6060500D313000008B539F0E5FABDE8D5
:101AF000084030F0BDB9000010B5084B0360044643
:101B0000D0F898003AF00EFCFFF7EEFF31F052F9F2
:101B100004F1080018F043FA204610BD2025050006
:101B200010B50446FFF7E8FF20469C214AF093F8E1
:101B3000204610BDF7B50669012E044644D18569DB
:101B40002FF018FA6369E91A636F083301446425BA
:101B500044F8231069433C20890AB1FBF5F3B3FB39
:101B6000F0F205FB131500FB123341F27072B1FB6A
:101B7000F2F2B2FBF0F700FB17222448B1FBF0F1C0
:101B800059B92349A06F41F063FC2249E06F2A460E
:101B900003B0BDE8F04041F05BBC0093A06F13467A
:101BA0000A461D4941F054FC94F894100029ECD1E8
:101BB0001A4BA06F48F28E0231F09EFEA06F30F0FB
:101BC00010FE84F89460E0E7022E1DD12FF0D2F9C8
:101BD000E369834218D200F58060E0610021A06FC4
:101BE00031F07EF950B92021A06F32F013FB202193
:101BF000E06F03B0BDE8F04032F00CBB0021A06FF5
:101C000032F008FB0021F3E703B0F0BD407E050091
:101C1000D30A05001B1805001519050074010020E2
:101C200010B54FF0F80304462922D0F884000021B3
:101C300031F030FE094BD4F880001B8829220021A6
:101C400031F028FED4F88800054941F028FCD4F88A
:101C50008C000449BDE8104041F021BC3C25050042
:101C6000CB060500CF06050038B504460021806F7D
:101C700032F0D0FAE06F002132F0CCFA124BD4F8F7
:101C800080001D8829222B46002131F003FE2B46BF
:101C90002922D4F88400002131F0FCFDD4F888001A
:101CA0000A4941F0FCFBD4F88C00094941F0F7FBEC
:101CB000D4F88400002132F0ADFAD4F88C00002171
:101CC000BDE8384032F0A6BA38250500D306050035
:101CD000D706050010B504462021806F32F09AFA2D
:101CE000E06F202132F096FA1D4BD4F880001B885B
:101CF0002922002131F0CEFD1A49A06F41F0CFFB1F
:101D00001949E06F41F0CBFB94F8943063B1174B65
:101D1000A06F48F28E02002131F0EEFDA06F30F08E
:101D200060FD002384F89430D4F89000104941F00D
:101D3000B6FBD4F888000F4941F0B1FBD4F88C0011
:101D40000D4941F0ACFBD4F88400202132F062FA56
:101D5000D4F88C002021BDE8104032F05BBA00BFFF
:101D60003C250500991A0500C8060500A8010020B9
:101D7000B01C0500CB060500D7060500F7B56B4B78
:101D8000044601270025077140F8083B18F0EDF8DC
:101D9000C4E906552561656784F89450FFF7A4FEF1
:101DA00029463CF041FCC4F880004464D4F880002B
:101DB0005F4930F0A7F9D4F880005022732130F049
:101DC00024FDD4F88060FFF78FFE2B4606220146E3
:101DD0000095304630F068FB2946D4F8800041F089
:101DE000CFFBC4F88800FFF77FFE29463CF01CFCBF
:101DF000C4F884004464D4F884004E4930F082F979
:101E0000D4F884005022732130F0FFFCD4F88460B1
:101E1000FFF76AFE2B46042201460095304630F05B
:101E200043FB2946D4F8840041F0AAFB2021C4F8E2
:101E30008C00D4F8840032F0EDF9D4F88C00202125
:101E400032F0E8F9FFF750FE294641F099FB3A4B92
:101E5000C4F890001E8848F289023346294631F0C2
:101E600019FDD4F89000354941F019FBD4F89000E1
:101E7000394641F02FFBD4F89000394640F082FDFE
:101E8000D4F89000F02130F009FDD4F89070FFF7FD
:101E90002BFE6FF04F0305220146009338462B4678
:101EA00030F002FBFFF720FE294641F069FB244990
:101EB000E06741F0F4FAE06F334629464AF28902BE
:101EC00031F0E8FC00952B46D4F89010E06F0A2220
:101ED00030F0EAFAFFF708FE294641F051FB194BB2
:101EE000A06748F28E02294631F006FDA06F164920
:101EF00041F0D5FAA06F334629464AF2890231F003
:101F0000C9FC0095D4E91E012B460A2230F0CCFA18
:101F10002046FFF7DFFE2346032214210B483AF048
:101F2000BBF9C4F89800204603B0F0BD2025050099
:101F3000DB1F0000C12000003A250500F006050067
:101F4000C8060500A8010020991A0500D313000057
:101F500010B50446FFF7BEFE00232361A36163674B
:101F600010BD10B50446FFF77FFE2FF003F80123E4
:101F70006061236104F10800BDE8104017F0F9BF6B
:101F800010B50446FFF74CFE00236361636F08330E
:101F900054F82330A3612EF0EDFF022300F580609A
:101FA000E061236104F10800BDE8104017F0ECBFC8
:101FB00010B50469012C03D1FFF7E2FF204610BDE4
:101FC0000020FCE7036933F0020201D1FFF7C9BF2B
:101FD000012B01D1FFF7D4BF7047062902D1406C15
:101FE000FFF7F0BF704700002DE9F0410369012BB6
:101FF0008AB0044653D12D49D0F890002C4E2D4F75
:10200000DFF8B88041F0B2F9636F0133142BA8BF39
:1020100014236367023B626F934202DB0AB0BDE8A0
:10202000F081002B03F1010508DA234AD4F890006F
:102030004FF6FF7141F0D8F92B46ECE704F11C0391
:10204000642153F825304B439B0A3C20B3FBF1F24B
:1020500001FB123CB2FBF0F100FB112141F2707266
:10206000B3FBF2F2B3FBF6F3B2FBF0FE00FB1E2271
:1020700053B9CDE9011C00922B464246112105A817
:102080004AF006FD05AAD1E7CDE90032CDE9021CF0
:102090002B463A46112105A84AF0FAFCF2E7022B3A
:1020A000BCD10AB0BDE8F041FFF752BFB01C05003B
:1020B000407E0500F2060500F0060500DB0605007F
:1020C000062902D1406CFFF78FBF7047017270473D
:1020D00037B504460846002140F0D0F900252060BD
:1020E000114940F011F92B4648F2A902206829460F
:1020F00031F0D0FB2946206830F0E2FB0821606017
:1021000030F0CCFB6FF00103009360682946062293
:1021100030F0CAF960682B460122294603B0BDE8B9
:10212000304031F09EBB00BF40250500006870477D
:1021300070B504460D460B46006848F2A90200211E
:1021400031F0A8FB2068FF2348F2AD02002131F0F6
:10215000BAFB60682B462922BDE87040002131F0AF
:1021600099BB000038B504460D46C1EBC10164239C
:1021700040684900B1FBF3F109B230F096FB6068AA
:1021800030F02FFB237A73B10F2D06D9064B198837
:102190002046BDE83840FFF7CBBF052D8ABF024B74
:1021A000FA215988F4E738BD7C250500034A044B21
:1021B00000280CBF10461846704700BFB01C050031
:1021C0000B070500034A044B002814BF10461846AD
:1021D000704700BF0F070500B01C0500034A044B01
:1021E00000280CBF10461846704700BFB01C050001
:1021F0001307050080688B6898422CBF00200120DF
:10220000704708B538F058FFBDE808402FF030BEE1
:102210000346084611461847012A02D101600020F2
:102220007047022A05D0032AF9D0002AF7D10260AC
:10223000F5E70B680360F2E7012A02D10160002094
:102240007047022A05D0032AF9D0002AF7D102608C
:10225000F5E70B680360F2E7012A02D10160002074
:102260007047022A05D0032AF9D0002AF7D102606C
:10227000F5E70B680360F2E7012A02D10160002054
:102280007047022A05D0032AF9D0002AF7D102604C
:10229000F5E70B680360F2E7012A02D10160002034
:1022A0007047022A05D0032AF9D0002AF7D102602C
:1022B000F5E70B680360F2E738B5054600F1500416
:1022C000AC4209D054F8083C103C002BF8D0032253
:1022D000214620469847F3E7204638BD10B504460E
:1022E000006810B103689B689847204610BD000045
:1022F00038B50546084B45F8683B0446FFF781FFB3
:1023000030F058FD2846FFF7E9FF04F11000FFF711
:10231000D3FF204638BD00BFAC25050010B50446EC
:10232000FFF7E6FF20466C2149F095FC204610BDE2
:1023300038B50546064B45F8283B0446FFF761FFD4
:1023400030F038FD2846FFF7D3FF204638BD00BFE8
:10235000CC25050010B50446FFF7EAFF204694217E
:1023600049F079FC204610BD0022C0E900228260BD
:1023700070472DE9F041044628200E46174698463E
:1023800049F07AFCD8F800303A783178054600F008
:1023900009FE25602046BDE8F081000070B58AB0D6
:1023A0000646FFF72EFF002141F0EAF8012104461E
:1023B000069041F0D1F8FEF7C7F8154B0393154B83
:1023C00002930025144B049001220193204614230C
:1023D0001249009541F03CF80121204640F0D2FA24
:1023E000FFF70FFF2B4601462A462046009530F0A6
:1023F0005BF80523089309A806AB08AA07A9079567
:10240000FFF7B7FF099B336030460AB070BD00BFCD
:10241000910705009A070500A607050017070500A4
:1024200010B504460968FFF7B9FF204610BD00004B
:102430002DE9F04FCB689FB01B7916938B691B6811
:10244000082B0C4696BF4249DFF820A151F823A083
:10245000A36840499B6BB3FBF1F701FB17334FF4C3
:102460006161B3FBF1F801FB18333C21B3FBF1F9D7
:1024700001FB193315930646FFF7C3FE002141F017
:102480007FF8012105461A9041F066F8A36820699B
:10249000596993F800B001F26C718AB21969199206
:1024A0000131CAB212921A7B17921A7A14921A79CF
:1024B000E36818925B88139311F0C4FEE369199ADC
:1024C000D3F868C0BCF1010F40D02349234BBCF1C5
:1024D000020F08BF0B46246A21491091E1790F9140
:1024E000A1790E9164791F49CDF80CB0CDE90C3477
:1024F000139B0993169B0893159BCDE90693189B94
:102500000293149B0193179B0093CDE90A0A129B37
:102510002846CDE9047840F09BFFFFF772FE0023C8
:10252000014600931A4628462FF0BEFF01220523DC
:10253000CDE91B231DA81AAB1CAA1BA9FFF719FF85
:102540001D9B336030461FB0BDE8F08F064BC2E7DD
:102550008025050080510100B6070500BD07050074
:10256000AD080500C1070500AF070500BF0705005E
:1025700010B504460968FFF75BFF204610BD000058
:102580002DE9F04F9FB0064617A80F4639F08CFD95
:10259000FFF737FE002140F0F3FF012105461390BD
:1025A00040F0DAFF7C69786A0FF021FF237D1093F9
:1025B000A37C0D93637C627D0E93C0F30727237C7D
:1025C0001192C0F307480F9394F813B08DF8497037
:1025D0008DF84A80C4B28DF84800FDF76DFF814642
:1025E000FDF776FF8246FDF76DFF1A490B681A4921
:1025F0000B930B6819490494CDE909030F9B0393CE
:102600000E9B02930D9BFFB25FFA88F8CDE900B3F1
:102610002846DDE91032CDE9079ACDE9057840F08A
:1026200017FFFFF7EEFD0023014600931A462846E8
:102630002FF03AFF02220523CDE9142316A813AB8D
:1026400015AA14A9FFF795FE169B336030461FB0FC
:10265000BDE8F08F5004002054040020B6080500A7
:1026600010B504460968FFF78BFF204610BD000037
:1026700030B587B00546FFF7C4FD002140F080FF6C
:1026800001210446029040F067FF20460F4940F0C8
:1026900006FF0121204640F075F9FFF7B2FD002347
:1026A000014600931A4620462FF0FEFE0422052321
:1026B000CDE9032305A802AB04AA03A9FFF759FE3D
:1026C000059B2B60284607B030BD00BF7809050088
:1026D00010B504460968FFF7CBFF204610BD8A6895
:1026E00010B504460AB949F0E5FACB689847204688
:1026F00010BD00002DE9F04794B0C0E902231C9BF7
:1027000003611D9B43611E9B83611F9BC361209BD3
:1027100003620E46219B3A490160012704460025C9
:102720000771436200F128096846CDE9005502951A
:10273000FFF71AFE334B039304A8334B0293CDE902
:10274000045500940695FFF70FFE304B079308A839
:102750002F4B0693CDE9085504940A95FFF704FE24
:102760002C4B0B930CA82C4B0A93CDE90C550894D9
:102770000E95FFF7F9FD294B0F9310A8284B0E93E8
:10278000CDE910550C941295FFF7EEFD254B1393F0
:10279000254B129304F13808244B84F82C702663DF
:1027A0001094A36284F834506F46464604F1880AB8
:1027B000C6E90055B5603046FFF7D6FDBB68F56049
:1027C0003BB10222394630469847FB68F360BB684C
:1027D000B3601036B24507F11007E9D10023C4F801
:1027E000883084F88C30414609F16800FFF777FFA4
:1027F0006846FFF761FD204614B0BDE8F08700BFD2
:10280000CC2505002124000099220000712500003C
:10281000792200006126000059220000652F000087
:1028200039220000D126000019220000AC25050045
:1028300073B5056E0446002D3AD1042926D005292A
:1028400040F0858090F86400F0B104F168062946F4
:102850003046FEF770F90221A068FEF713F994F8EC
:1028600064100139C9B284F86410013104EB01111C
:1028700001A8FFF734FF019901953046FEF75BF997
:1028800001A8FFF72BFD012002B070BD90F8643065
:10289000032BF8D800F1680629463046FEF74BF9BD
:1028A0000121A068FEF7EEF894F864100131D9E731
:1028B000012D34D1022920D0032948D190F8640099
:1028C0000028E1D004F1680500212846FEF733F91D
:1028D0000021A068FEF7D6F894F864100139C9B257
:1028E00084F86410013104EB011101A8FFF7F7FE31
:1028F0000023019901932846C0E790F86430032B28
:10290000C1D800F1680500212846FEF714F900211E
:10291000A068FEF7B7F894F864100131DFE70629E4
:1029200015D190F86430032B9ABF0133DBB200233A
:1029300000F1680580F8643000212846FEF7FBF8B6
:102940000021A068FEF79EF894F86410CAE7002002
:102950009AE708B52830FFF76BFF08BDF0B50646CB
:1029600005460F460FCE8BB001AC0FC40FCE0FC47F
:1029700033682360243D294601A8B847A5F1240601
:1029800005F1240440B901AD0FCD0FC40FCD0FC424
:102990002B6823600BB0F0BD0FCD0FC40FCD0FC45B
:1029A0002B6823603546E6E72DE9F04388428BB07B
:1029B00006460F46904603D000F12404BC4202D1E3
:1029C0000BB0BDE8F083324621464046FFF720FCBD
:1029D00004F1240930B3A446BCE80F0001AD0FC5D3
:1029E000BCE80F000FC5A21BDCF800302B60242AC6
:1029F0000FDDC2F12400314620444AF061FA01ADF6
:102A00000FCD34460FC40FCD0FC42B6823604C4646
:102A1000D4E7F4D135460FCD0FC40FCD0FC42B68CA
:102A20002360ECE741462046FFF798FFEFE782B0CE
:102A30002DE9F04F8BB002F1FF3A0AEBDA7ADDF8BC
:102A4000789015930646884614464FEA6A0A0D4662
:102A50004FF0240BAA453BDCE30715D4023C04EB02
:102A6000D474B5EB640F0FD16F1C7F00242404FBDA
:102A7000076304FB0564A3F124050FCD0FC40FCD3C
:102A80000FC42B6823607D1E15AF0FCF01AC0FC4A0
:102A90000FCF0FC43B6823606F1E07EBD7777F1003
:102AA0004FF0240AA8450AFB05642DDA0AFB0765E6
:102AB00001A92846C84738B30FCD0FC40FCD0FC4A6
:102AC0002B6823607B1E03EBD3733D465F10E9E761
:102AD0006F1C7F000BFB07F1A1F12402324431444B
:102AE0004846FFF795FB00B1013F0BFB076CBCE8C4
:102AF0000F000BFB05650FC5BCE80F000FC5DCF828
:102B000000302B603D46A5E701AD0FCD0FC40FCDC2
:102B10000FC42B6823600BB0BDE8F04F02B07047C4
:102B2000F0B5164607469E468C4614460FCE95B025
:102B30000BAD0FC50FCE0FC533682B603D460FCDD3
:102B40000FC40FCD0FC42B682360DEF8003008934C
:102B50000CAD0FCD6C460FC495E80F0084E80F0054
:102B6000ACEB070C054A0B9B4FEAAC0C02FB0CF2DA
:102B700000213846FFF75BFF15B0F0BD398EE33812
:102B80002DE9F04FA1EB000997B0B9F1240FCDE981
:102B90000B3380460E46924625DD244B4FEAA909A9
:102BA00003FB09F9A9F1020707EBD7777F104FF074
:102BB000240B0BFB07850FCD0DAC0FC40FCD0FC43D
:102BC0002B6823600C9B08930EAD0FCD6C460FC491
:102BD00095E80F0084E80F004A460D9B39464046B1
:102BE000FFF725FF4FB93446A24508D8A6EB0803E6
:102BF000242B12DC17B0BDE8F08F013FD9E70C9809
:102C000042462146FFF704FB28B10CAB2246314671
:102C10004046FFF785FF2434E6E7243E0BAB3246FF
:102C200031464046FFF77CFFE0E700BF398EE338CE
:102C3000F0B507460C4605460FCF8BB001AE0FC668
:102C40000FCF0FC63F68376026460FCE0FC50FCE99
:102C50000FC533682B6001AD0FCD0FC40FCD0FC46E
:102C600027600BB0F0BD2DE9F041069F05463846C0
:102C700016461C468846FFF7CBFA2246A0B13146DD
:102C80003846FFF7C5FA28B131462846FFF7D0FF8E
:102C9000BDE8F081224641463846FFF7B9FA08B14F
:102CA0002146F2E74146F0E741463846FFF7B0FAE1
:102CB0000028F7D1224631463846FFF7A9FA002806
:102CC000EED1E1E72DE9F74FDFF8909005460E468B
:102CD00090461F464FF0240A711BB1F5107F08DDA6
:102CE000B8F1000F08D13B46324631462846FFF77F
:102CF00047FF03B0BDE8F08F8A1009FB02F205F12F
:102D0000240452100097A6F124030AFB0252214624
:102D10002846FFF7A8FFB3462A4621463846FFF764
:102D200077FAC0B9ABF1240B5A4629463846FFF76B
:102D30006FFA0028F6D15C4509D308F1FF38314617
:102D40003B4642462046FFF7BDFF2646C4E75946AC
:102D50002046FFF76DFF2434DEE700BF398EE338ED
:102D60002DE9F04FD9B08146FFF74BFA002143F02F
:102D7000DDFA04210446019043F093FA0A2120462B
:102D800043F088F9002310220121204630F069FD2C
:102D9000002311220121204630F063FD002312227E
:102DA0000121204630F05DFD002313220121204641
:102DB00030F057FD614B39221B880121204630F04D
:102DC00069FD00225E4B1146204643F0B1F91E22F8
:102DD0000021204643F01AFB5A4B012200212046D5
:102DE00043F0A6F91E220121204643F00FFB564B6B
:102DF00002220021204643F09BF950220221204666
:102E000043F004FB514B03220021204643F090F98C
:102E10005A220321204643F0F9FA0022092107A88B
:102E20002EF050FB2425454306461BD007AB5F1907
:102E3000474BAA105A43B2FA82F2C2F11F02520063
:102E4000444B394607A8FFF73DFFB5F5107F414ACF
:102E500028DD97A907A8FFF7A7FDDFF8F88097AD51
:102E6000AF4219D1DFF8F8B007AD01360127B742FC
:102E700001D00A2F1BD103220523CDE9022304A888
:102E800001AB03AA02A9FFF774FA049BC9F800304A
:102E9000484659B0BDE8F08F28464146FFF75EFD31
:102EA0002435DDE7394607A8FFF77EFDDAE74FF066
:102EB0000008AB68284A0B2104A81FFA87FACDE95D
:102EC0000488CDF8178049F0E3FD04AB4246514633
:102ED000204643F02DF92B7B042B2BD8DFE803F0A1
:102EE0002C2C0326280042238DF81030012204AB3D
:102EF000514620468DF8118043F01AF902226B6882
:102F00005146204643F014F92B8C132B8CBF134AE7
:102F10005A460B2104A849F0BBFD04AB03225146DD
:102F2000204643F005F901372435A0E75323DBE7BA
:102F30004423D9E74923D7E75223D5E7E425050001
:102F4000930A05000B2205001D0A0500220A050050
:102F5000398EE338F5210000270A0500330A050001
:102F60002B0A050010B504460968FFF7F9FE204654
:102F700010BD000010B5054B0360044638F09CF806
:102F80002EF076FF2FF016FF204610BDF02505002D
:102F900010B50446FFF7EEFF2046282148F05BFEFF
:102FA000204610BD38B504460120207104F10C05FF
:102FB00005482060A360284606F04AF9284606F036
:102FC0004BF9204638BD00BFF025050001207047B1
:102FD00008B538F071F8BDE808402EF049BF000090
:102FE00010B5064B03600446C06939F09BF9FFF742
:102FF000EFFF2FF0DFFE204610BD00BF10260500BA
:1030000010B50446FFF7ECFF2046242148F023FECC
:10301000204610BD73B5374B0360002501260671AD
:10302000816085610446FFF7D3FF294640F0A8FA86
:103030003149606140F033FA3223009302222B467B
:10304000294660692FF030FAFFF7C2FF29463BF0AE
:1030500001FA2A4BE06029461B88292230F01AFC2D
:10306000E0682946FF232C2230F02DFCE06847F66B
:10307000FF733246294630F0F4FBE0681E22C82177
:103080002FF0C3FB00952B46E0682A4629462FF017
:103090000BFAE06829464FF47A723BF07FFA2A4631
:1030A0002946E0683BF0B2F9FFF792FF294640F06D
:1030B00067FA1349206140F0F2F92069314640F087
:1030C0004BFA206931462EF0CBFF3C230093D4E924
:1030D00003102B460A222FF0E7F92346032214217E
:1030E000084839F0D9F8E0612DF044FF206220460D
:1030F00002B070BD10260500670A050028260500ED
:10310000770A0500D313000038B582680546536876
:10311000946800694FF47A710A22B3FBF1F307490E
:10312000B4FBF3F424B294FBF2F240F091F9E868B6
:1031300021460022BDE838403BF068B97B18050005
:103140000149006940F0ABB9820A050010B5044995
:103150000446006940F0A3F92DF00CFF206210BD79
:10316000950A050038B58368DD688369022D044639
:1031700019D0032D1DD0012D0ED0032B1ED02DF004
:10318000F9FE236AC01AB0F5704F04D92046FFF744
:10319000DDFF0323A36138BD012B18BF8561BDE8A6
:1031A0003840FFF7B1BF022BF5D0FFF7C9FFA5618B
:1031B000F1E7032B02D0FFF7C9FFA5612DF0DAFE7E
:1031C000236AC01AB0F5A05FE5D900232371E2E7B6
:1031D00008B537F071FFBDE808402EF049BE02394E
:1031E00010B50446032903D8DFE801F02A2F04169E
:1031F000002010BD406900212FF08DF9A069002149
:103200002FF089F9206901212FF085F9A0680121AB
:103210002FF081F90120ECE700692FF035FE00283E
:10322000E6D0206900212FF076F9A06800212FF068
:1032300072F9606901212FF06EF9A0690121E7E7B9
:103240000321E06B13F0D6FAE4E70421F9E770B547
:103250000B460C4653F8081B9942054607D1844299
:1032600062680AD1226800236360137070BD50F851
:10327000082B824210D100220FE022B1012A0068FF
:1032800007D1237A037063682A686B600021D154E8
:10329000E8E74BF0ADFAF6E7AE682960616869606F
:1032A000A168A96012B12260A660DBE72360D9E7BC
:1032B0000246034652F8080B904203D09968013148
:1032C00048F0C9BC7047000010B50E4B03600446BF
:1032D000D0F8980039F026F804F1340032F08FFC71
:1032E000FFF776FF2FF066FD04F17000FFF7E0FFB7
:1032F00004F15800FFF7DCFF04F14000FFF7D8FFAE
:10330000204610BD3426050010B50446FFF7DCFF4B
:1033100020469C2148F09FFC204610BDC94B2DE95A
:10332000F341036000F148030025036400F16003EA
:1033300000F134060127C0E9163500F17803044690
:10334000C0E91C350771C163456480F8485080F8B6
:10335000605080F87850C0F88850C0F890503046DF
:1033600032F0B4FB39463046142232F0A5FCB64B9D
:10337000DFF804831A882921304632F0E1FCFFF798
:1033800027FF29463BF050F960614464606941467B
:103390002EF0B8FE4C22606911462FF036FA0095E7
:1033A0002B466069294604222FF07EF83246606978
:1033B000294630F031FA2946606940F0E1F8A34926
:1033C00040F06DF8394660692FF0A5F8FFF700FF6F
:1033D00029463BF029F9A0614464A06941462EF0DA
:1033E00091FE4C22A06911462FF00FFA00952B4652
:1033F000A069294606222FF057F83246A0692946CF
:1034000030F00AFA2946A06940F0BAF8904940F035
:1034100046F83946A0692FF07EF8FFF7D9FE294615
:103420003BF002F9A0604464A06841462EF06AFEB9
:103430004C22A06811462FF0E8F900952B46A068B1
:10344000294604222FF030F83246A068294630F091
:10345000E3F92946A06840F093F87E4940F01FF850
:10346000FFF7B6FE29463BF0DFF82061446420698F
:1034700041462EF047FE4C22206911462FF0C5F937
:1034800000952B462069294606222FF00DF832467A
:103490002069294630F0C0F92946206940F070F8CB
:1034A0006D493FF0FCFFFFF793FE29463BF0BCF867
:1034B000E0604464E06841462EF024FE4C22E0685F
:1034C00011462FF0A2F900952B46E0682946052207
:1034D0002EF0EAFF3246E068294630F09DF9294691
:1034E000E06840F04DF85D4960623FF0D8FFFFF7BB
:1034F0006FFE294640F044F81426206303213FF074
:10350000E9FF00963A460C23206B29462EF0CCFFAB
:10351000206B53493FF0C3FF0721206B3FF032FA85
:10352000276B37F0C9FD37F0CDFD014638462FF047
:10353000B5F9FFF74DFE294640F022F80421E0617D
:103540003FF0C8FF0E23009307220C23E0692946B1
:103550002EF0AAFF0721E0693FF014FAE76937F07F
:10356000ABFD37F0AFFDA0F10C0138463D4F09B27D
:103570002FF094F9E06939463FF091FF3A4BE0694A
:103580001B8848F28902294630F084F9FFF720FEB3
:1035900029463FF0F5FF042120623FF09BFF6FF0CA
:1035A0000C03009307220C23206A29462EF07CFF8F
:1035B0000721206A3FF0E6F9D4F8208037F07CFD3F
:1035C00037F080FDA0F10C0109B240462FF066F9FA
:1035D0003946206A3FF063FFFFF7FAFD29463EF0C7
:1035E0004DFF0F27A06221493EF08EFE00976FF03D
:1035F0000E0303222946A06A2EF056FFFFF7E8FDCE
:1036000029463EF03BFF1A49E0623EF07DFE0097FE
:10361000E06A6FF02E03032229462EF045FFE06B8F
:1036200084F83850E02113F0E5F8234603223146B0
:10363000104838F031FEC4F89800204602B0BDE8CA
:10364000F08100BF342605004C260500A50A0500C0
:10365000A90A0500AD0A0500B10A0500CB06050060
:10366000B50A0500B01C05004E26050078270500A8
:10367000E4260500D31300006F370000F7B5214A98
:10368000D0F8881091420346006B05DD1E4903B057
:10369000BDE8F0403FF003BF41F234729142D3F8ED
:1036A0008C301ADD4FF461643C2693FBF4F591FBFA
:1036B000F4F704FB153304FB1714B4FBF6F4CDE95F
:1036C000007493FBF6F3642295FBF2FC02FB1C52A0
:1036D0000E493FF0BDFE03B0F0BD3C26642591FBD2
:1036E000F6F406FB1411019194FBF5F105FB11446E
:1036F00093FBF6F2009406FB123392FBF5F705FB01
:103700001722E5E730700500C10A0500C90A050067
:10371000062A10B50B46044611461ED142699A424C
:1037200004D1E06BBDE8104013F064B882699A429E
:1037300001D10521F5E78268934201D10421F0E728
:10374000C26893420ED194F89410C06B31B101213C
:1037500013F050F8002384F8943010BD13F04AF8A9
:103760000123F8E702699342F7D10321D9E70A461A
:103770000146406CFFF7CCBF08B542684B689A42DF
:1037800008D14AB10968006849F08AFBB0FA80F0B4
:10379000400908BD0020FCE70120FAE770B586B0BB
:1037A000C16B00F140060446684613F083F9694690
:1037B0003046FFF7E1FF05466846FFF779FD75B92A
:1037C000E16B684613F076F969463046FFF73FFD36
:1037D0006846FFF76DFD216CE0693FF0C7FDE16BC6
:1037E000684604F1700613F06DF969463046FFF73C
:1037F000C3FF05466846FFF75BFD75B9E16B684698
:1038000013F060F969463046FFF721FD6846FFF77F
:103810004FFD216F206A3FF0A9FDE16B684604F17E
:10382000580613F03FF969463046FFF7A5FF0546F5
:103830006846FFF73DFD55B9E16B684613F032F974
:1038400030466946FFF703FD6846FFF731FDE06B40
:1038500094F8945012F0ADFF854204D0E06B12F062
:10386000A8FF84F89400E06BD4F88C5012F0A4FF09
:10387000854207D0E06B12F09FFFC4F88C00204611
:10388000FFF7FCFEE06BD4F8885012F0B0FF8542E1
:1038900007D0E06B12F0ABFFC4F888002046FFF7BA
:1038A000EDFE94F89430606A33B316493FF0F7FDAB
:1038B0002DF060FBD4F89030A0F58060984217D3CB
:1038C00094F83830E06AABB10F493EF01DFD94F832
:1038D000383083F0010384F83830D4E922329A4238
:1038E000A4BF002384F894302DF044FBC4F890006A
:1038F00006B070BD0549E8E7054906B0BDE870406F
:103900003FF0CDBDD3060500E42605005026050096
:10391000CB06050008B537F0CFFBBDE808402EF018
:10392000A7BA00002DE9F8431A4D04460E46572762
:10393000013F02D1184A194B1DE0D5F80090D6F886
:10394000048048464AF072FF804508D1B8F1000F64
:1039500007D030684246494649F0A2FA08B1083516
:10396000E6E72B79182B0BD8C3EB8322C3EB82033A
:103970001B01094A1BB22260A3802046BDE8F883E0
:10398000193BC3EB8322C3EB82031B01044A1BB226
:10399000F1E700BFAC290500F70A050060FAFFFF58
:1039A000DD0A050010B50C4B03600446806E38F04C
:1039B000B9FCFFF7AFFF2FF0FDF904F14C00FFF762
:1039C00077FC04F13400FFF773FC04F11C00FFF7EF
:1039D0006FFC204610BD00BF9429050010B50446B9
:1039E000FFF7E0FF20466C2148F035F9204610BD76
:1039F00010B596B004465422002101A849F07AFA85
:103A00000E4A012301A9204614F0F7FD002802DA2E
:103A1000002016B010BD01A9204614F0F1FD084A9F
:103A2000012301A9204614F0E8FD0028F0DB01A9DC
:103A3000204614F0E5FD0120EBE700BFF90A050080
:103A4000DF0A0500012A30B403D10B78037030BCC3
:103A50007047002AFBD030BC4AF0CABE2DE9F043C3
:103A6000794B036000F124030025C36100F13C039E
:103A70008BB00126C0E90D3500F154030446C0E9BE
:103A80001335042206718161056280F8245080F8A4
:103A90003C5080F8545045666C496D4F06A8049020
:103AA0004FF00408FFF7CEFF04A902A8CDF8148058
:103AB0008DF81C50FFF736FF04A8FFF7F9FBFFF75E
:103AC00029FF29463EF0DAFC2946A0603EF0F6FBCD
:103AD00050221146A0682EF098FE0299A0683EF090
:103AE00013FCA06829463EF0F2FBBDF90C10A0685B
:103AF0003EF0F8FBA0682946FF2348F2AD022FF004
:103B0000E2FE3B88A068294648F2A9022FF0C2FED7
:103B10006FF03B0300932A462B462946A0682EF0FF
:103B2000C3FCFFF7F7FE29463FF02AFD0221E060C3
:103B30003FF0D0FCD4F80C9037F0BEFA37F0C2FA60
:103B4000014648462EF0AAFEE06850212EF0ADFE58
:103B5000E06840493FF0A3FCE06831463EF012FFC8
:103B60001E2300932A462B462946E0682EF09CFC33
:103B7000FFF7D0FE29463FF003FD314620613FF0BC
:103B8000A9FC20694346294648F289022FF082FEAB
:103B9000314B206948F28E0229462FF0ADFED4F851
:103BA000108037F089FA37F08DFA014640462EF042
:103BB00075FE206929493FF072FC206931463EF0CC
:103BC000E1FE5A2300932A462B46294620692EF00F
:103BD0006BFCFFF79FFE29463AF03CFC1422606123
:103BE000C8212EF012FE6FF00903009360692B4686
:103BF000294605222EF058FC6069294640F22143EF
:103C000029222FF047FE7B886069292231462FF058
:103C100041FE60694FF4FA713AF0A6FC60692946EA
:103C200064223AF0BBFC60692A4629463AF0EEFB72
:103C30002346032214210A4838F02EFBA0662046B2
:103C40000BB0BDE8F08300BF94290500110B0500FF
:103C50005E2C0500160B050074010020210B0500E9
:103C6000D313000070B50B460C4653F8081B99425D
:103C7000054607D1844262680AD122680023636046
:103C8000137070BD50F8082B82420BD100220AE05D
:103C900012B10068FFF7D6FE63682A686B600021E6
:103CA000D154EAE7AE68296061686960A168A960DB
:103CB00012B12260A660E0E72360DEE770B586B04F
:103CC000816900F11C060446684613F0CDFA694686
:103CD0003046FFF751FD05466846FFF7E9FA35BB68
:103CE000A169684613F0C0FA69463046FFF7BAFF8B
:103CF0006846FFF7DDFA31466846FFF713FE009984
:103D0000A0683EF001FBA068FF2348F2AD022946FF
:103D10002FF0D9FD334BA0681B88294648F2A90231
:103D20002FF0B8FDBDF90410A0683EF0DBFAA169E0
:103D3000684604F1340613F09EFA69463046FFF7F0
:103D40001BFD05466846FFF7B3FA75B9A1696846D9
:103D500013F091FA69463046FFF784FF6846FFF793
:103D6000A7FA616BE0683FF001FBA169684604F1C6
:103D70004C0613F087FA69463046FFF7FDFC05460E
:103D80006846FFF795FA75B9A169684613F07AFAA3
:103D900069463046FFF766FF6846FFF789FAE16C2F
:103DA00020693FF0E3FAA069656E13F05AFA854284
:103DB00016D0A06913F055FA0022606601B260695E
:103DC0003AF024FB636E60695A2BDABF064B1B88FE
:103DD000F8232922012106B0BDE870402FF05ABD1A
:103DE00006B070BD5E2C05005C2C050008B537F0F0
:103DF00063F9BDE808402EF03BB8000010B5084B51
:103E000003600446006C38F08DFAFFF7EFFF2EF0E8
:103E1000D1FF04F1140016F0C2F8204610BD00BF17
:103E20006C2C050010B50446FFF7E8FF204644213E
:103E300047F011FF204610BD052904D190F821302C
:103E40000BB1002303710120704738B590F8203082
:103E50000446FBB12DF08EF8A168A28BB4F91C507A
:103E6000401A4FF47043B3FBF2F2904212D993FB25
:103E7000F5F30B44A360E37F2069013BDBB2E377FA
:103E800033B9A37FE3775A21BDE8384014F0BAB8BC
:103E90001E21F9E738BD00002DE9F34116460D4615
:103EA00098460746FFF7A2FF00213FF069FB434613
:103EB00048F28E02002104462FF01EFD0C4B48F202
:103EC00089021B88204600212FF0E4FC3946204659
:103ED0003FF04CFA9DF820300093204600233246F4
:103EE00029462EF0E1FA204602B0BDE8F08100BF7D
:103EF000842C0500F7B56B4B0360002501270446B1
:103F0000C0E90255077101611146143016F02DF811
:103F1000654BE3612584FFF769FF294639F056FCBC
:103F2000624E60624464606A31462EF0EBF8606A6B
:103F30004FF48772294639F0FBFB606A872139F01C
:103F40001EFC606ADC22282139F002FDB4F91C1045
:103F5000606A39F01FFCD2221146606A2EF055FCCF
:103F60003946606A39F014FD676AFFF73FFF2B4658
:103F700001460095384602222EF096FA3723009328
:103F8000616A4B4B4B480222FFF786FF4A4BE062C7
:103F90000D22014600954948FFF77EFFFFF726FFF7
:103FA00029463AF041FBA0624464A06A31462EF0F3
:103FB000A9F82B46A06A2C2229462FF084FCA06A7F
:103FC00050212EF072FC00952B460222D4E90A0102
:103FD0002EF06AFAFFF70AFF29463CF0A7FC20639F
:103FE0004464206B31462EF08DF8206B3222732111
:103FF0002EF00BFC276BFFF7F9FE2B46042201463F
:10400000009538462EF050FA206B2D493CF009FC03
:10401000A17F206B013989B23CF058FC206B294606
:104020003CF06AFC206B27493CF0ECFB2946206BF6
:104030003FF0A6FAA27F606323493FF009FA00959A
:104040002B462A46D4E90C102EF02EFAFFF7CEFEAE
:1040500029463AF0E9FAA0634464A06B31462EF099
:1040600051F8A06B322273212EF0CFFBA66BFFF725
:10407000BDFE2B4606220146009530462EF014FA6E
:104080002946A06B3FF07CFA1049E0633FF007FA45
:104090002346032214210E4838F0FEF820642046FF
:1040A00003B0F0BD6C2C050078000401CD41000088
:1040B000A801002087100500DC0100208B100500FE
:1040C0008F100500B01C0500A1100500CB060500EF
:1040D000D3130000072A38B5044607D8072A45D865
:1040E000DFE802F02444454444444A45102A3DD1C7
:1040F000406A884209D139F066FCA08302462F4904
:10410000E06ABDE838403FF0A3B9206B88422DD16A
:104110003CF0D2FC421CD2B2606BA27728493FF03F
:1041200097F9606BBDE838402EF05BBB836A8B4229
:104130001CD12CF01FFFE36893B1C01AB0F5406F9B
:104140000ED24FF47041B1FBF0F109B2606AA18365
:1041500039F020FBB4F91C201849E06A3FF078F9E7
:104160002CF008FF0123E06084F8213038BD836A19
:104170008B42FBD10023F7E7836B8B42F6D190F89B
:10418000203083F0010380F8203004F11405C06B67
:104190005BB10C493FF083F9284615F0EAFE2CF09C
:1041A000E9FE0123A060E377E0E707493FF077F9F4
:1041B0002846BDE8384015F0E7BE00BFA81005004E
:1041C000A1100500D3060500CB0605000A460146EE
:1041D000406CFFF77FBF08B536F06EFFBDE80840C2
:1041E0002DF046BE10B5064B03600446D0F8B00073
:1041F00038F098F8FFF7EFFF2EF0DCFD204610BDF9
:10420000902C050010B50446FFF7ECFF2046B821BE
:1042100047F021FD204610BD052300EBC00090FBB8
:10422000F3F000F5486000B26423323090FBF3F005
:1042300000B270472DE9F04F044695B0C16804A85C
:1042400012F0A2FE94F840209DF84030934200F016
:10425000BE8004AE0FCE04F110050FC50FCE0FC502
:104260000FCE0FC596E80300012385E8030084F80C
:10427000483094F84830002B67D094F84070B4F977
:104280001820B4F91A60B4F91C5094F81E90002359
:1042900084F84830002F00F0C680A3689B7C012B77
:1042A00000F0A180642302F132073236323597FBE9
:1042B000F3F796FBF3F695FBF3F53FB236B22DB26A
:1042C0004FF04308312AD4F8A00040F39B80B2F5A8
:1042D000E17FC0F29C8040F659239A4240F39D80D2
:1042E000002319464FF01F0C022242EACC0242EA98
:1042F000012242EA4333002148F289022FF0CAFA30
:104300004846D4F898A004F083FD014650463FF09B
:104310002DF84846D4F89CA004F086FD014650468E
:104320003FF024F8C749D4F8A00043463A463FF08E
:104330008FF8C549D4F8A40032463FF089F8C24945
:10434000D4F8A8002A463FF083F8E16804A812F0E8
:1043500051FE94F888209DF84830934200F0868002
:1043600004AE0FCE04F150050FC50FCE0FC50FCE12
:104370000FC596E80F0085E80F00012384F8903000
:1043800094F8903003B34FF0000984F8909004F152
:1043900050060FCE04AD0FC50FCE0FC50FCE0FC503
:1043A00096E80F0085E80F009DF84850002D00F0BA
:1043B000188104A848F0A6FD87690137FFB204AD53
:1043C0009DF818304B455CDC15B0BDE8F08F002B34
:1043D0003FF44FAF04A904F1100012F041FE002891
:1043E0003FF437AF45E71046FFF716FF0746304664
:1043F000FFF712FF06462846FFF70EFF4FF046086C
:1044000005465FE704231F214FF0000C6CE70723EC
:104410001F214FF0000C1A4667E7042300214FF0DC
:104420001F0C052261E7D4F8980088493EF09EFFF2
:10443000D4F89C0085493EF099FFD4F8A000844947
:104440003EF094FF834BD4F8A0001B8848F2890209
:1044500039462FF01FFAD4F8A4007C493EF086FFBD
:104460007A49D4F8A8003EF081FF6EE7002B87D090
:1044700004A904F1500012F02CFE00283FF470AFA4
:104480007EE7A368B5F90C209B7CB5F90A60012B87
:1044900000F08F80642302F13208323698FBF3F883
:1044A00096FBF3F60FFA88F836B2312AD4F8AC004E
:1044B0001FFA89FA40F38680B2F5E17FC0F284806A
:1044C00040F659239A42CCBF0623052352460221C7
:1044D00041F0E0FFB5F90A30D4F8AC00312B75DDBE
:1044E000B3F5E17F74DB40F659229342CCBF06233B
:1044F00005235246032141F0CDFF072F86BFF81F49
:10450000C0B238460FF012FD524603460021D4F8DF
:10451000AC0041F00DFEA87BD4F8ACB004F078FC00
:10452000524603460121584641F002FE4A4B002103
:104530001A889B78ADF808208DF80A30ADF80C2069
:104540008DF80E30454A4346084648F0A1FA00214E
:10455000424A83463346084648F09AFAABEB0003DA
:10456000002B4FF0000235DCA0EB0B0000F15003F4
:104570000DEB03008DF80C2000F8482C02AB0093E3
:10458000CDF80480364BD4F8AC005246022141F0FD
:1045900027FE03AB00930196314BD4F8AC00524692
:1045A0000321013741F01CFE09F10109FFB2083572
:1045B00006E71046FFF730FE80463046FFF72CFE38
:1045C000064672E7032381E704237FE7032390E78E
:1045D00004238EE750336B448DF8082003F8442CF5
:1045E000CCE71A4FD4F8AC00AEB23B4632460021BD
:1045F00041F09EFDD4F8AC003B463246012141F02B
:1046000097FDD4F8AC003B463246022141F090FDC4
:10461000D4F8AC003B463246032141F089FDD4F882
:10462000AC0001233246022141F034FF0135D4F8B9
:10463000AC0001233246032141F02CFF052DD1D1DE
:10464000C2E600BFAD100500B4100500B01C0500A7
:10465000B9100500B22C0500C2100500750905004F
:10466000BD1005002DE9F743C64B03600446012643
:104670000025C0E90212067140220021103048F0E6
:1046800039FC4822294684F8405084F8486004F1F7
:10469000500048F02FFC84F8885084F89060FFF7B1
:1046A0009AFDDFF80C8329463EF06AFFB8F80070E7
:1046B000C4F8A0003B4648F2890229462FF0EAF8E8
:1046C000B14BD4F8A00048F28E0229462FF014F91D
:1046D000AE49D4F8A0003EF049FE6FF01D030093F0
:1046E0002A462B46D4F8A00029462DF0DDFE31469F
:1046F000D4F8A0002DF0B4FCFFF76DFD29463EF084
:104700003FFFA34BC4F8A400B3F8009048F289021D
:104710004B4629462FF0BEF89E49D4F8A4003EF03F
:1047200025FE00956FF009031022D4E928102DF022
:10473000BBFE3146D4F8A4002DF092FCFFF74BFDF0
:1047400029463EF01DFF4B4648F28902C4F8A800F6
:1047500029462FF09FF88F49D4F8A8003EF006FEB6
:1047600000950A231322D4F8A010D4F8A8002DF045
:104770009BFE3146D4F8A8002DF072FCFFF72BFD0C
:1047800029463EF0FDFE844BC4F89C00B3F800902F
:1047900048F289024B4629462FF07CF87D49D4F82F
:1047A0009C003EF0E3FD6FF0090300930A222B46C4
:1047B000D4E927012DF078FE3146D4F89C002DF085
:1047C0004FFCFFF708FD29463EF0DAFE3B46C4F8F1
:1047D000980048F2890229462FF05CF86F4BD4F814
:1047E000980048F28E0229462FF086F86949D4F8DD
:1047F00098003EF0BBFD00952B460A22D4E9260125
:104800002DF052FE3146D4F898002DF029FCFFF728
:10481000E2FC294641F08AFD0521C4F8AC0041F0D4
:1048200040FDD4F8AC00042141F034FCD4F8AC00D5
:104830002B46392231462FF02DF8D4F8AC004B46E8
:1048400048F2890231462FF025F8D4F8AC002B4607
:10485000392202212FF01EF8D4F8AC003B4648F272
:10486000890202212FF016F84C4BD4F8AC0048F224
:104870008E0202212FF040F8D4F8AC002B463922EA
:1048800003212FF007F8464BD4F8AC001B8848F200
:10489000890203212EF0FEFFD4F8AC002B4639220A
:1048A00004212EF0F7FFB8F80230D4F8AC0048F23B
:1048B000890204212EF0EEFFD4F8AC002B463922F9
:1048C00005212EF0E7FF374BD4F8AC001B8848F2E7
:1048D000890205212EF0DEFFD4F8AC002B463922E8
:1048E00006212EF0D7FF304BD4F8AC001B8848F2DD
:1048F000890206212EF0CEFF0095D4F8AC002B469D
:10490000042229462DF0D0FDAEB2D4F8AC003022FE
:10491000314641F07BFDD4F8AC0002233246012140
:1049200041F0B8FDD4F8AC0001233246002141F03B
:104930007EFD01231946D4F8AC00324641F077FDE4
:10494000D4F8AC0001233246022141F070FD01355C
:10495000D4F8AC0001233246032141F068FD052D57
:10496000D2D1234603224FF47A71104837F094FCD9
:10497000C4F8B0002046FFF75DFC204603B0BDE858
:10498000F08300BF902C050074010020B9100500D1
:10499000A82C0500B01C0500AA2C0500AC020020C4
:1049A000AC2C0500AE2C0500B02C0500D313000084
:1049B000B22C050008B536F07FFBBDE808402DF0AD
:1049C00057BA000010B5044B03600446FFF7F2FF2E
:1049D0002EF0F0F9204610BDC02C050010B504469D
:1049E000FFF7F0FF2046382147F035F9204610BD8B
:1049F000594B2DE9F3414FF47A7203600023C0E96B
:104A000006230022002300250126C0E90823C0E96F
:104A10000A23022720230386C0E902550671056197
:104A200080F832700446FFF7C5FF29463EF0A8FD26
:104A3000DFF83481206105213EF04CFD20693946C4
:104A40003DF0A0FFD4E90A23206941463EF000FD75
:104A500020691422C8212DF0D8FE052220690A21E0
:104A60002DF0DEFCFFF7A6FF29463EF089FD05216B
:104A7000E0603EF02FFDE06839463DF083FFD4E969
:104A80000823E06841463EF0E3FCE0681422C821B8
:104A90002DF0BBFE2322E0680A212DF0C1FCFFF7B8
:104AA00089FF29463AF044F9A0604464A0682B4984
:104AB0002DF028FBA0682A4939F08AFFA06831460A
:104AC0003AF0C4FBA068B422EE212DF09EFE254BE7
:104AD000A0681B88314629222EF0DCFEA0683346F0
:104AE000294614222EF0BDFEA06833462946102226
:104AF0002EF0B7FEA0683346294611222EF0B1FEF3
:104B0000A0683346294612222EF0ABFEA068334639
:104B1000294613222EF0A5FE0095A0682B462946B3
:104B200005222DF0C1FCA0683146FF234FF4967298
:104B30002EF0C9FEA068314680234FF491722EF00A
:104B400090FEA068802340F2211231462EF089FEAB
:104B5000204602B0BDE8F081C02C0500F3510000F2
:104B6000D82C0500282D0500C510050010B50446F9
:104B7000806894F830302A3B052B5AD8DFE803F0E0
:104B8000300359205949022340F2231201212EF00B
:104B900068FE2A4BA0681B8840F2291201212EF0E2
:104BA00079FE274B1B88A0684FF4957201212EF0E7
:104BB00071FE80220721A068BDE810403AF04BB991
:104BC000022340F2231201212EF04BFE1C4BA06861
:104BD0001B8840F2291201212EF05CFE174BE1E701
:104BE000022340F2231201212EF03BFE134BA0685A
:104BF0001B8840F2291201212EF04CFE104B1B881D
:104C0000A0684FF4957201212EF044FE80220B2102
:104C1000D1E7022340F2231201212EF022FE084B9D
:104C2000A0681B8840F2291201212EF033FE034BAD
:104C3000E5E7BDE8104080213AF0FBB82A2D0500D9
:104C4000282D050000220023C0E9082300234FF48B
:104C50007A72C0E9062320230386022380F83230CB
:104C6000704700002DE9FF4780464FF47A72D0E983
:104C70000A0100234BF0B0FA14461D4655EA04031E
:104C8000D8F8108007460E4608D123493A463346E5
:104C9000404604B0BDE8F0473EF0DABB002DA9461F
:104CA00002DA644265EB45090A22002320464946A0
:104CB0004BF092FA4FF0030A1A4313D10023204617
:104CC00049460A224BF088FA0AF1FF3A51EA0003FA
:104CD000044689465FFA8AFA04D00A2200234BF080
:104CE0007BFAE9E756EA07030BD1002D09DACDE993
:104CF00000490A49524640463EF0AAFB04B0BDE8CE
:104D0000F087CDE902490649CDF800A03A4633467E
:104D100040463EF09DFBF1E7C5100500CA100500B6
:104D2000D41005002DE9F04F90F83230C76887B0F5
:104D30000446002B3BD0012B40D0D0E908014FF4B2
:104D40007A7200234BF048FA002B81468846059280
:104D50001D461046194602DA504263EB4301D4E97E
:104D6000066B56EA0B030FBF012232465B46002456
:104D700004BF002314464FF00A0CB2F57A7F73F19A
:104D8000000E1DDB013CE4B2A246BAF1020F1FD9AE
:104D900058EA090325D1002D23DACDE90001224686
:104DA000214938463EF054FB07B0BDE8F08F1F495B
:104DB000384607B0BDE8F04F3EF071BB1C49F7E73D
:104DC0000CFB03FE0134A2FB0C237344E4B2D4E7D2
:104DD0000A2200230AF1010A4BF0FEF95FFA8AFA6F
:104DE000D3E7A6F57A7353EA0B0308D111494A4673
:104DF0004346384607B0BDE8F04F3EF029BB643E5D
:104E000056EA0B0606D1059B1D4303D10A494A46C3
:104E10004346EEE7CDE90201009408494A4643467D
:104E200038463EF015FBBFE7CA100500E01005004C
:104E3000EA100500C5100500F8100500D4100500A3
:104E40002DE9F04190F83030202B04460AD02A3B5F
:104E5000DAB2052A0AD8052B08D8DFE803F04C0996
:104E60000730077FD0E90823C0E90A23BDE8F081B5
:104E7000D0E90A32012BD0E9081572F100000BDBF2
:104E80004148E826C01A66EB02068842AE4110DAB5
:104E9000002384F83230E9E753EA020009D03B48A6
:104EA0006FF0E806C01A66EB0206814275EB060653
:104EB000EDE75B1842EB0502C4E90A32D6E7D0E918
:104EC0000A32002AD0E908150ADA2F48181842F1E8
:104ED000E8068842AE41DBDB5B1A62EB0502EBE7DA
:104EE00053EA0200F8D02948181862F1E806814216
:104EF00075EB0606EFE7D0E90A5855EA0803D0E952
:104F000008671CD0B8F1000F2A46434602DA6A420D
:104F100068EB48031AA1D1E900014BF05DF94FF4A9
:104F20007A72A0FB0203002F02FB0133324639469E
:104F300002DA724267EB470190428B41A8DB05FB26
:104F400007F106FB0811A5FB06064FF47A72002351
:104F500031444BF041F9C4E90A0187E7D0E908235D
:104F600052EA030101D1012393E7C16A806A4FF439
:104F70007A75A0FB050605FB0161EAE7AFF3008047
:104F8000FF0FA5D4E8000000FF0FA5D401F05A2BB5
:104F9000F8B50446806839F0A9FF0546002800F0FE
:104FA0001D8194F8313013B103783D2B03D194F86F
:104FB0003230022B04D02046FFF744FEFFF7D6FD27
:104FC0002D78392D10D8272D14D9A5F12803112BB0
:104FD00010D8DFE803F05C0F8A6F0F0F640F17170C
:104FE00017171717171717173D2D00F0E880EF2D2B
:104FF00000F08B802046FFF795FE2046BDE8F84084
:10500000FFF730BED4E90826D4E90601002EACBF74
:1050100001234FF0FF33B0F57A7FA5F1300571F130
:105020000007EDB217DA03FB01FCDF1700FB07CC2A
:10503000A3FB0037BC44A3FB05379B1805FB0C758D
:1050400045EB0605C4E908350A2200234BF0C4F8F5
:10505000C4E90601CEE7624F97424FF01707B74108
:10506000C8DBDF17594300FB0711A3FB00300144E5
:10507000A3FB053005FB01010A25A2FB05209B18B7
:1050800005FB060041EB0001C4E90831B2E7D4E9B1
:1050900008325B4262EB4202C4E90832AAE7D4E973
:1050A0000632A3F57A731343A4D164220023C4E922
:1050B00006239FE7D4E90832134305D02046FFF7C3
:1050C000BFFE2046FFF7BEFD94F830302B2B08D0F2
:1050D0002D2B00D1202584F830502046FFF746FDC7
:1050E00088E72D25F7E72F25F5E7D4E908321343A4
:1050F00005D02046FFF7A4FE2046FFF7A3FD94F855
:1051000030302A2BEFD02F2BE3E7D4E9080150EA07
:105110000102D4E9063538D0B3F57A7F75F1000283
:105120002CDA53EA050219BF0A21A3FB013201223E
:10513000002316BF01FB0522C4E90623C4E9063299
:10514000D4E90623B2F57A7F73F10001D4E9085659
:10515000BEBF0A21A2FB012001FB03032846314602
:105160004BF03AF8AA1A66EB0303C4E908231A4382
:105170007FF440AF202384F83030AEE70A220023CA
:105180004BF02AF8C4E90801DAE7B3F57A7F75F144
:1051900000020FDA53EA050219BF0A21A3FB01320C
:1051A0000122002316BF01FB0522C4E90623C4E93E
:1051B0000632DFE700220023C4E90A23DAE70123ED
:1051C00084F831302046FFF73BFE94F83030202B36
:1051D0007FF410AF2046FFF735FD0BE7F8BD00BFA9
:1051E000FFE7764883688B4202D10AB9FFF7D0BE49
:1051F00070470A460146406CFFF7F4BF08B535F02A
:105200005BFFBDE808402CF033BE000010B5044B36
:1052100003600446FFF7F2FF2DF0CCFD204610BDE1
:10522000342D050010B50446FFF7F0FF2046242179
:1052300046F011FD204610BDF7B5484B036001262E
:105240008160067104460F46FFF7D8FF00213EF04B
:1052500097F90025424BE0604249019300951423E1
:1052600032463EF0F5F800952B4632462946E06876
:105270002DF01AF9FFF7C2FF29463EF081F92061AF
:1052800000952B460C22E1682DF00EF9206931467D
:105290003EF062F9206931463EF01CF92069F021A8
:1052A0002DF0FCFA384612F054FE054630B12E4976
:1052B00020693EF0F4F8204603B0F0BD2B49206988
:1052C0003EF0EDF8FFF79AFF294639F0ADF960613D
:1052D00044646069322273212DF097FA00952B46C1
:1052E0000422606929462DF0DFF8214960692CF01D
:1052F00009FF204B60691B88292229462EF0CAFA33
:10530000294660693EF03CF91B49A0613EF0C7F8B0
:10531000FFF774FF294639F087F9E0614464E069DA
:10532000322273212DF071FA0095E0692B46062296
:1053300029462DF0B9F84FF0F8032922E0692946F3
:105340002EF0A8FA0A49E0692CF0DCFE2946E06953
:105350003EF016F909492062ABE700BF342D050085
:10536000A607050014110500361105006911050096
:10537000AF5300004C2D0500C6110500CF110500EC
:1053800010B543698B42044607D1062A05D18068CF
:1053900012F0E8FD0023237110BDE3698B42FBD1BD
:1053A000062AF9D1A068BDE8104012F0E9BD0A460E
:1053B0000146406CFFF7E4BF012A034602D10160B9
:1053C00000207047022A05D0032AF9D0002AF7D11D
:1053D0000260F5E703C983E80300F1E710B58368CD
:1053E000044613B1032201469847204610BD000031
:1053F0002DE9F0470346884686B00546044600F18D
:1054000030010022C3E90022C3E9022210338B429B
:10541000F8D1DFF850A0DFF8509000266F46CDE9B4
:10542000028602AB93E8030087E8030094E80300D8
:1054300083E8030097E80300A268049284E803006D
:10544000E268C4F808A0C4F80C901846013605922A
:10545000FFF7C4FF032E04F11004E0D1284606B084
:10546000BDE8F087B9530000F55400002DE9F04F76
:10547000062395B0534308ADDFF8748017460646FF
:105480000C4603F1060CA94601F1240E00220D2B57
:105490009CBF0EEBC301D1E9000103F1010391BFF1
:1054A000C5E90001C5F800802A716A71634505F1FC
:1054B0000805ECD1D4E905B3E2690793D4E9038A7E
:1054C0009420069246F0D8FB079B069A0492CDE9F9
:1054D00002B3CDE9008ACDF81490A3680322F9B293
:1054E0000546FBF7BFFF3046356015B0BDE8F08FCD
:1054F000B01C050010B50446D1E90012FFF7B6FF55
:10550000204610BD38B505460D4B45F8483B0446CE
:1055100035F0D2FD2CF0ACFC2DF04CFC2846FCF70D
:10552000DDFE04F13000FFF759FF04F12000FFF722
:1055300055FF04F11000FFF751FF204638BD00BFB2
:10554000582D050010B50446FFF7DCFF20464C211E
:1055500046F081FB204610BD38B50546074B45F89F
:10556000943B044635F0A8FD2CF082FC2DF022FC83
:105570002846FFF7C7FF204638BD00BF782D05003D
:1055800010B50446FFF7E8FF2046E02146F063FB34
:10559000204610BD2DE9F04F8DB00361169B43618D
:1055A000179B8361189BC3611646199B284A0362A7
:1055B00001270446C0E902160D46077102601A99D8
:1055C0007022243049F014F92146684696F8358057
:1055D00004F1A40AFFF70CFF1E4B84F89870C4F87E
:1055E0009C5004F19409C4F8943084F8A0806E466D
:1055F000554604F1D40B0027B368C5E90077C5E927
:1056000002773BB10222314628469847F368EB60A7
:10561000B368AB601035AB4506F11006ECD1002342
:10562000C4F8D4300AEB081109F1480084F8D88096
:10563000FDF755F808A8FFF7D1FE04A8FFF7CEFE46
:105640006846FFF7CBFE20460DB0BDE8F08F00BFE7
:10565000782D0500582D050073B5056C0446002D06
:105660003AD1042926D0052940F0858090F84400DD
:10567000F0B104F1480629463046FBF75CFA0221F6
:10568000A068FBF7FFF994F844100139C9B284F817
:105690004410013104EB011101A8FDF720F8019934
:1056A00001953046FBF747FA01A8FCF717FE0120E9
:1056B00002B070BD90F84430012BF8D800F14806D4
:1056C00029463046FBF737FA0121A068FBF7DAF9E3
:1056D00094F844100131D9E7012D34D1022920D0AA
:1056E000032948D190F844000028E1D004F148058E
:1056F00000212846FBF71FFA0021A068FBF7C2F93A
:1057000094F844100139C9B284F84410013104EB13
:10571000011101A8FCF7E3FF00230199019328463A
:10572000C0E790F84430012BC1D800F148050021B2
:105730002846FBF700FA0021A068FBF7A3F994F8CC
:1057400044100131DFE7062915D190F84430012BD0
:105750009ABF0133DBB2002300F1480580F84430E2
:1057600000212846FBF7E7F90021A068FBF78AF93A
:1057700094F84410CAE700209AE708B59430FFF780
:105780006BFF08BD08B535F097FCBDE808402CF06C
:105790006FBB70B50B4605460C46102200212EF05B
:1057A00060F823462846112200212EF05AF823469D
:1057B0002846122200212EF054F8234628461322B0
:1057C000BDE8704000212EF04CB810B504461830EA
:1057D00014F0DAFB606912F054FC606B18B12DF024
:1057E000C9FA0023636310BD2DE9F74F98460E9B5D
:1057F00003620F9B4362012380F82830044616465B
:1058000089460C9FFFF7BEFF00213AF01FFA206087
:10581000054635F051FC35F055FC824635F04CFC20
:1058200035F060FC51460246284600252CF0EDFF7D
:105830002B462922206829462EF02CF8206829467C
:10584000FFF7A7FF20682B46142229462EF009F8FF
:105850002B463022206829462EF003F8294620687E
:105860003AF0F4F99B4B60601B88292229462EF000
:1058700011F860680A21FFF78CFF60680523142285
:1058800029462DF0EEFF2B466068302229462DF088
:10589000E8FF3222294660682CF0C2FDD4F804B03B
:1058A00035F00AFC35F00EFC824635F005FC35F08B
:1058B00019FCA0F1320212B2514658462CF0A5FF55
:1058C000606802213AF024FA00952B462A46606867
:1058D00029463AF032FA294620683DF051FE424608
:1058E0009DF834307C4982463DF0B2FD10230322FE
:1058F000009329462B4650462CF0D6FD29462068B9
:105900003DF03EFE754B48F289021B8829468046D1
:105910002DF0C0FFB9F1000F2FD1714940463DF085
:10592000BEFD404604213DF0D5FD4046B4212CF09B
:10593000B5FF1023009300231946012240462CF0A6
:10594000B3FD002160683DF01BFE012180463DF063
:10595000C1FD35F0B1FB35F0B5FBA0F1140109B282
:1059600040462CF09BFF042F1DD0314640463DF0B1
:10597000FDFC204603B0BDE8F08F494640463DF0AF
:10598000F5FC40463DF011F80A2147F05BFA20256E
:1059900018B940463DF046FAC3E700F8015B0A211A
:1059A00047F050FAF4E760686C212CF07EFF404627
:1059B0004C493DF074FD606800213DF0E1FD00259B
:1059C0002B460C228146414600952CF06DFD0121AD
:1059D00048463DF07FFD35F06FFB35F073FBA0F1DD
:1059E000140109B248462CF059FF314648463DF0B3
:1059F000BDFC2946206838F017FEA0604464A0680A
:105A000039492CF07FFB4C22A06811462CF0FDFE9A
:105A100000952B463A46A06829462CF045FD2946BC
:105A2000A0683DF0ADFD314960613DF038FD304B7F
:105A3000A0681B88292229462DF02CFF29462068C2
:105A400038F0F2FD20614464206927492CF05AFBAC
:105A50004C22206911462CF0D8FE00952B460522D9
:105A6000206929462CF020FD294620693DF088FD5B
:105A70002049E0613DF013FD4FF0F8032922206931
:105A800029462DF007FF2946206838F0CDFDE0605B
:105A90004464E06814492CF035FB4C22E068114660
:105AA0002CF0B3FE00952B460622E06829462CF028
:105AB000FBFC2946E0683DF063FD0F49A0613DF025
:105AC000EEFC0E4BE0681B88292229462DF0E2FEF1
:105AD0004FE700BFB22D0500D5110500B62D05001A
